{
	"contracts/CZKC.sol": {
		"CZKC": {
			"abi": [
				{
					"inputs": [],
					"name": "_name",
					"outputs": [
						{
							"internalType": "string",
							"name": "",
							"type": "string"
						}
					],
					"stateMutability": "view",
					"type": "function"
				},
				{
					"inputs": [],
					"name": "_symbol",
					"outputs": [
						{
							"internalType": "string",
							"name": "",
							"type": "string"
						}
					],
					"stateMutability": "view",
					"type": "function"
				},
				{
					"inputs": [],
					"name": "decimals",
					"outputs": [
						{
							"internalType": "uint8",
							"name": "",
							"type": "uint8"
						}
					],
					"stateMutability": "view",
					"type": "function"
				}
			],
			"devdoc": {
				"kind": "dev",
				"methods": {},
				"version": 1
			},
			"evm": {
				"assembly": "    /* \"contracts/CZKC.sol\":63:273  contract CZKC {... */\n  mstore(0x40, 0x80)\n  callvalue\n  dup1\n  iszero\n  tag_1\n  jumpi\n  0x00\n  dup1\n  revert\ntag_1:\n  pop\n  dataSize(sub_0)\n  dup1\n  dataOffset(sub_0)\n  0x00\n  codecopy\n  0x00\n  return\nstop\n\nsub_0: assembly {\n        /* \"contracts/CZKC.sol\":63:273  contract CZKC {... */\n      mstore(0x40, 0x80)\n      callvalue\n      dup1\n      iszero\n      tag_1\n      jumpi\n      0x00\n      dup1\n      revert\n    tag_1:\n      pop\n      jumpi(tag_2, lt(calldatasize, 0x04))\n      shr(0xe0, calldataload(0x00))\n      dup1\n      0x313ce567\n      eq\n      tag_3\n      jumpi\n      dup1\n      0xb09f1266\n      eq\n      tag_4\n      jumpi\n      dup1\n      0xd28d8852\n      eq\n      tag_5\n      jumpi\n    tag_2:\n      0x00\n      dup1\n      revert\n        /* \"contracts/CZKC.sol\":180:215  uint8 public constant decimals = 18 */\n    tag_3:\n      tag_6\n      tag_7\n      jump\t// in\n    tag_6:\n      mload(0x40)\n      tag_8\n      swap2\n      swap1\n      tag_9\n      jump\t// in\n    tag_8:\n      mload(0x40)\n      dup1\n      swap2\n      sub\n      swap1\n      return\n        /* \"contracts/CZKC.sol\":134:173  string public constant _symbol = \"CZKC\" */\n    tag_4:\n      tag_10\n      tag_11\n      jump\t// in\n    tag_10:\n      mload(0x40)\n      tag_12\n      swap2\n      swap1\n      tag_13\n      jump\t// in\n    tag_12:\n      mload(0x40)\n      dup1\n      swap2\n      sub\n      swap1\n      return\n        /* \"contracts/CZKC.sol\":86:127  string public constant _name = \"CZK Coin\" */\n    tag_5:\n      tag_14\n      tag_15\n      jump\t// in\n    tag_14:\n      mload(0x40)\n      tag_16\n      swap2\n      swap1\n      tag_13\n      jump\t// in\n    tag_16:\n      mload(0x40)\n      dup1\n      swap2\n      sub\n      swap1\n      return\n        /* \"contracts/CZKC.sol\":180:215  uint8 public constant decimals = 18 */\n    tag_7:\n        /* \"contracts/CZKC.sol\":213:215  18 */\n      0x12\n        /* \"contracts/CZKC.sol\":180:215  uint8 public constant decimals = 18 */\n      dup2\n      jump\t// out\n        /* \"contracts/CZKC.sol\":134:173  string public constant _symbol = \"CZKC\" */\n    tag_11:\n      mload(0x40)\n      dup1\n      0x40\n      add\n      0x40\n      mstore\n      dup1\n      0x04\n      dup2\n      mstore\n      0x20\n      add\n      0x435a4b4300000000000000000000000000000000000000000000000000000000\n      dup2\n      mstore\n      pop\n      dup2\n      jump\t// out\n        /* \"contracts/CZKC.sol\":86:127  string public constant _name = \"CZK Coin\" */\n    tag_15:\n      mload(0x40)\n      dup1\n      0x40\n      add\n      0x40\n      mstore\n      dup1\n      0x08\n      dup2\n      mstore\n      0x20\n      add\n      0x435a4b20436f696e000000000000000000000000000000000000000000000000\n      dup2\n      mstore\n      pop\n      dup2\n      jump\t// out\n        /* \"#utility.yul\":7:93   */\n    tag_17:\n        /* \"#utility.yul\":42:49   */\n      0x00\n        /* \"#utility.yul\":82:86   */\n      0xff\n        /* \"#utility.yul\":75:80   */\n      dup3\n        /* \"#utility.yul\":71:87   */\n      and\n        /* \"#utility.yul\":60:87   */\n      swap1\n      pop\n        /* \"#utility.yul\":7:93   */\n      swap2\n      swap1\n      pop\n      jump\t// out\n        /* \"#utility.yul\":99:211   */\n    tag_18:\n        /* \"#utility.yul\":182:204   */\n      tag_27\n        /* \"#utility.yul\":198:203   */\n      dup2\n        /* \"#utility.yul\":182:204   */\n      tag_17\n      jump\t// in\n    tag_27:\n        /* \"#utility.yul\":177:180   */\n      dup3\n        /* \"#utility.yul\":170:205   */\n      mstore\n        /* \"#utility.yul\":99:211   */\n      pop\n      pop\n      jump\t// out\n        /* \"#utility.yul\":217:431   */\n    tag_9:\n        /* \"#utility.yul\":306:310   */\n      0x00\n        /* \"#utility.yul\":344:346   */\n      0x20\n        /* \"#utility.yul\":333:342   */\n      dup3\n        /* \"#utility.yul\":329:347   */\n      add\n        /* \"#utility.yul\":321:347   */\n      swap1\n      pop\n        /* \"#utility.yul\":357:424   */\n      tag_29\n        /* \"#utility.yul\":421:422   */\n      0x00\n        /* \"#utility.yul\":410:419   */\n      dup4\n        /* \"#utility.yul\":406:423   */\n      add\n        /* \"#utility.yul\":397:403   */\n      dup5\n        /* \"#utility.yul\":357:424   */\n      tag_18\n      jump\t// in\n    tag_29:\n        /* \"#utility.yul\":217:431   */\n      swap3\n      swap2\n      pop\n      pop\n      jump\t// out\n        /* \"#utility.yul\":437:536   */\n    tag_19:\n        /* \"#utility.yul\":489:495   */\n      0x00\n        /* \"#utility.yul\":523:528   */\n      dup2\n        /* \"#utility.yul\":517:529   */\n      mload\n        /* \"#utility.yul\":507:529   */\n      swap1\n      pop\n        /* \"#utility.yul\":437:536   */\n      swap2\n      swap1\n      pop\n      jump\t// out\n        /* \"#utility.yul\":542:711   */\n    tag_20:\n        /* \"#utility.yul\":626:637   */\n      0x00\n        /* \"#utility.yul\":660:666   */\n      dup3\n        /* \"#utility.yul\":655:658   */\n      dup3\n        /* \"#utility.yul\":648:667   */\n      mstore\n        /* \"#utility.yul\":700:704   */\n      0x20\n        /* \"#utility.yul\":695:698   */\n      dup3\n        /* \"#utility.yul\":691:705   */\n      add\n        /* \"#utility.yul\":676:705   */\n      swap1\n      pop\n        /* \"#utility.yul\":542:711   */\n      swap3\n      swap2\n      pop\n      pop\n      jump\t// out\n        /* \"#utility.yul\":717:963   */\n    tag_21:\n        /* \"#utility.yul\":798:799   */\n      0x00\n        /* \"#utility.yul\":808:921   */\n    tag_33:\n        /* \"#utility.yul\":822:828   */\n      dup4\n        /* \"#utility.yul\":819:820   */\n      dup2\n        /* \"#utility.yul\":816:829   */\n      lt\n        /* \"#utility.yul\":808:921   */\n      iszero\n      tag_35\n      jumpi\n        /* \"#utility.yul\":907:908   */\n      dup1\n        /* \"#utility.yul\":902:905   */\n      dup3\n        /* \"#utility.yul\":898:909   */\n      add\n        /* \"#utility.yul\":892:910   */\n      mload\n        /* \"#utility.yul\":888:889   */\n      dup2\n        /* \"#utility.yul\":883:886   */\n      dup5\n        /* \"#utility.yul\":879:890   */\n      add\n        /* \"#utility.yul\":872:911   */\n      mstore\n        /* \"#utility.yul\":844:846   */\n      0x20\n        /* \"#utility.yul\":841:842   */\n      dup2\n        /* \"#utility.yul\":837:847   */\n      add\n        /* \"#utility.yul\":832:847   */\n      swap1\n      pop\n        /* \"#utility.yul\":808:921   */\n      jump(tag_33)\n    tag_35:\n        /* \"#utility.yul\":955:956   */\n      0x00\n        /* \"#utility.yul\":946:952   */\n      dup5\n        /* \"#utility.yul\":941:944   */\n      dup5\n        /* \"#utility.yul\":937:953   */\n      add\n        /* \"#utility.yul\":930:957   */\n      mstore\n        /* \"#utility.yul\":779:963   */\n      pop\n        /* \"#utility.yul\":717:963   */\n      pop\n      pop\n      pop\n      jump\t// out\n        /* \"#utility.yul\":969:1071   */\n    tag_22:\n        /* \"#utility.yul\":1010:1016   */\n      0x00\n        /* \"#utility.yul\":1061:1063   */\n      0x1f\n        /* \"#utility.yul\":1057:1064   */\n      not\n        /* \"#utility.yul\":1052:1054   */\n      0x1f\n        /* \"#utility.yul\":1045:1050   */\n      dup4\n        /* \"#utility.yul\":1041:1055   */\n      add\n        /* \"#utility.yul\":1037:1065   */\n      and\n        /* \"#utility.yul\":1027:1065   */\n      swap1\n      pop\n        /* \"#utility.yul\":969:1071   */\n      swap2\n      swap1\n      pop\n      jump\t// out\n        /* \"#utility.yul\":1077:1454   */\n    tag_23:\n        /* \"#utility.yul\":1165:1168   */\n      0x00\n        /* \"#utility.yul\":1193:1232   */\n      tag_38\n        /* \"#utility.yul\":1226:1231   */\n      dup3\n        /* \"#utility.yul\":1193:1232   */\n      tag_19\n      jump\t// in\n    tag_38:\n        /* \"#utility.yul\":1248:1319   */\n      tag_39\n        /* \"#utility.yul\":1312:1318   */\n      dup2\n        /* \"#utility.yul\":1307:1310   */\n      dup6\n        /* \"#utility.yul\":1248:1319   */\n      tag_20\n      jump\t// in\n    tag_39:\n        /* \"#utility.yul\":1241:1319   */\n      swap4\n      pop\n        /* \"#utility.yul\":1328:1393   */\n      tag_40\n        /* \"#utility.yul\":1386:1392   */\n      dup2\n        /* \"#utility.yul\":1381:1384   */\n      dup6\n        /* \"#utility.yul\":1374:1378   */\n      0x20\n        /* \"#utility.yul\":1367:1372   */\n      dup7\n        /* \"#utility.yul\":1363:1379   */\n      add\n        /* \"#utility.yul\":1328:1393   */\n      tag_21\n      jump\t// in\n    tag_40:\n        /* \"#utility.yul\":1418:1447   */\n      tag_41\n        /* \"#utility.yul\":1440:1446   */\n      dup2\n        /* \"#utility.yul\":1418:1447   */\n      tag_22\n      jump\t// in\n    tag_41:\n        /* \"#utility.yul\":1413:1416   */\n      dup5\n        /* \"#utility.yul\":1409:1448   */\n      add\n        /* \"#utility.yul\":1402:1448   */\n      swap2\n      pop\n        /* \"#utility.yul\":1169:1454   */\n      pop\n        /* \"#utility.yul\":1077:1454   */\n      swap3\n      swap2\n      pop\n      pop\n      jump\t// out\n        /* \"#utility.yul\":1460:1773   */\n    tag_13:\n        /* \"#utility.yul\":1573:1577   */\n      0x00\n        /* \"#utility.yul\":1611:1613   */\n      0x20\n        /* \"#utility.yul\":1600:1609   */\n      dup3\n        /* \"#utility.yul\":1596:1614   */\n      add\n        /* \"#utility.yul\":1588:1614   */\n      swap1\n      pop\n        /* \"#utility.yul\":1660:1669   */\n      dup2\n        /* \"#utility.yul\":1654:1658   */\n      dup2\n        /* \"#utility.yul\":1650:1670   */\n      sub\n        /* \"#utility.yul\":1646:1647   */\n      0x00\n        /* \"#utility.yul\":1635:1644   */\n      dup4\n        /* \"#utility.yul\":1631:1648   */\n      add\n        /* \"#utility.yul\":1624:1671   */\n      mstore\n        /* \"#utility.yul\":1688:1766   */\n      tag_43\n        /* \"#utility.yul\":1761:1765   */\n      dup2\n        /* \"#utility.yul\":1752:1758   */\n      dup5\n        /* \"#utility.yul\":1688:1766   */\n      tag_23\n      jump\t// in\n    tag_43:\n        /* \"#utility.yul\":1680:1766   */\n      swap1\n      pop\n        /* \"#utility.yul\":1460:1773   */\n      swap3\n      swap2\n      pop\n      pop\n      jump\t// out\n\n    auxdata: 0xa26469706673582212208b2b526454ea37343896257a22b6a234d1843b55bb45b7835ba0f1126715950064736f6c63430008110033\n}\n",
				"bytecode": {
					"linkReferences": {},
					"object": "608060405234801561001057600080fd5b50610236806100206000396000f3fe608060405234801561001057600080fd5b50600436106100415760003560e01c8063313ce56714610046578063b09f126614610064578063d28d885214610082575b600080fd5b61004e6100a0565b60405161005b9190610133565b60405180910390f35b61006c6100a5565b60405161007991906101de565b60405180910390f35b61008a6100de565b60405161009791906101de565b60405180910390f35b601281565b6040518060400160405280600481526020017f435a4b430000000000000000000000000000000000000000000000000000000081525081565b6040518060400160405280600881526020017f435a4b20436f696e00000000000000000000000000000000000000000000000081525081565b600060ff82169050919050565b61012d81610117565b82525050565b60006020820190506101486000830184610124565b92915050565b600081519050919050565b600082825260208201905092915050565b60005b8381101561018857808201518184015260208101905061016d565b60008484015250505050565b6000601f19601f8301169050919050565b60006101b08261014e565b6101ba8185610159565b93506101ca81856020860161016a565b6101d381610194565b840191505092915050565b600060208201905081810360008301526101f881846101a5565b90509291505056fea26469706673582212208b2b526454ea37343896257a22b6a234d1843b55bb45b7835ba0f1126715950064736f6c63430008110033",
					"opcodes": "PUSH1 0x80 PUSH1 0x40 MSTORE CALLVALUE DUP1 ISZERO PUSH2 0x10 JUMPI PUSH1 0x0 DUP1 REVERT JUMPDEST POP PUSH2 0x236 DUP1 PUSH2 0x20 PUSH1 0x0 CODECOPY PUSH1 0x0 RETURN INVALID PUSH1 0x80 PUSH1 0x40 MSTORE CALLVALUE DUP1 ISZERO PUSH2 0x10 JUMPI PUSH1 0x0 DUP1 REVERT JUMPDEST POP PUSH1 0x4 CALLDATASIZE LT PUSH2 0x41 JUMPI PUSH1 0x0 CALLDATALOAD PUSH1 0xE0 SHR DUP1 PUSH4 0x313CE567 EQ PUSH2 0x46 JUMPI DUP1 PUSH4 0xB09F1266 EQ PUSH2 0x64 JUMPI DUP1 PUSH4 0xD28D8852 EQ PUSH2 0x82 JUMPI JUMPDEST PUSH1 0x0 DUP1 REVERT JUMPDEST PUSH2 0x4E PUSH2 0xA0 JUMP JUMPDEST PUSH1 0x40 MLOAD PUSH2 0x5B SWAP2 SWAP1 PUSH2 0x133 JUMP JUMPDEST PUSH1 0x40 MLOAD DUP1 SWAP2 SUB SWAP1 RETURN JUMPDEST PUSH2 0x6C PUSH2 0xA5 JUMP JUMPDEST PUSH1 0x40 MLOAD PUSH2 0x79 SWAP2 SWAP1 PUSH2 0x1DE JUMP JUMPDEST PUSH1 0x40 MLOAD DUP1 SWAP2 SUB SWAP1 RETURN JUMPDEST PUSH2 0x8A PUSH2 0xDE JUMP JUMPDEST PUSH1 0x40 MLOAD PUSH2 0x97 SWAP2 SWAP1 PUSH2 0x1DE JUMP JUMPDEST PUSH1 0x40 MLOAD DUP1 SWAP2 SUB SWAP1 RETURN JUMPDEST PUSH1 0x12 DUP2 JUMP JUMPDEST PUSH1 0x40 MLOAD DUP1 PUSH1 0x40 ADD PUSH1 0x40 MSTORE DUP1 PUSH1 0x4 DUP2 MSTORE PUSH1 0x20 ADD PUSH32 0x435A4B4300000000000000000000000000000000000000000000000000000000 DUP2 MSTORE POP DUP2 JUMP JUMPDEST PUSH1 0x40 MLOAD DUP1 PUSH1 0x40 ADD PUSH1 0x40 MSTORE DUP1 PUSH1 0x8 DUP2 MSTORE PUSH1 0x20 ADD PUSH32 0x435A4B20436F696E000000000000000000000000000000000000000000000000 DUP2 MSTORE POP DUP2 JUMP JUMPDEST PUSH1 0x0 PUSH1 0xFF DUP3 AND SWAP1 POP SWAP2 SWAP1 POP JUMP JUMPDEST PUSH2 0x12D DUP2 PUSH2 0x117 JUMP JUMPDEST DUP3 MSTORE POP POP JUMP JUMPDEST PUSH1 0x0 PUSH1 0x20 DUP3 ADD SWAP1 POP PUSH2 0x148 PUSH1 0x0 DUP4 ADD DUP5 PUSH2 0x124 JUMP JUMPDEST SWAP3 SWAP2 POP POP JUMP JUMPDEST PUSH1 0x0 DUP2 MLOAD SWAP1 POP SWAP2 SWAP1 POP JUMP JUMPDEST PUSH1 0x0 DUP3 DUP3 MSTORE PUSH1 0x20 DUP3 ADD SWAP1 POP SWAP3 SWAP2 POP POP JUMP JUMPDEST PUSH1 0x0 JUMPDEST DUP4 DUP2 LT ISZERO PUSH2 0x188 JUMPI DUP1 DUP3 ADD MLOAD DUP2 DUP5 ADD MSTORE PUSH1 0x20 DUP2 ADD SWAP1 POP PUSH2 0x16D JUMP JUMPDEST PUSH1 0x0 DUP5 DUP5 ADD MSTORE POP POP POP POP JUMP JUMPDEST PUSH1 0x0 PUSH1 0x1F NOT PUSH1 0x1F DUP4 ADD AND SWAP1 POP SWAP2 SWAP1 POP JUMP JUMPDEST PUSH1 0x0 PUSH2 0x1B0 DUP3 PUSH2 0x14E JUMP JUMPDEST PUSH2 0x1BA DUP2 DUP6 PUSH2 0x159 JUMP JUMPDEST SWAP4 POP PUSH2 0x1CA DUP2 DUP6 PUSH1 0x20 DUP7 ADD PUSH2 0x16A JUMP JUMPDEST PUSH2 0x1D3 DUP2 PUSH2 0x194 JUMP JUMPDEST DUP5 ADD SWAP2 POP POP SWAP3 SWAP2 POP POP JUMP JUMPDEST PUSH1 0x0 PUSH1 0x20 DUP3 ADD SWAP1 POP DUP2 DUP2 SUB PUSH1 0x0 DUP4 ADD MSTORE PUSH2 0x1F8 DUP2 DUP5 PUSH2 0x1A5 JUMP JUMPDEST SWAP1 POP SWAP3 SWAP2 POP POP JUMP INVALID LOG2 PUSH5 0x6970667358 0x22 SLT KECCAK256 DUP12 0x2B MSTORE PUSH5 0x54EA373438 SWAP7 0x25 PUSH27 0x22B6A234D1843B55BB45B7835BA0F1126715950064736F6C634300 ADDMOD GT STOP CALLER "
				},
				"gasEstimates": {
					"creation": {
						"codeDepositCost": "113200",
						"executionCost": "159",
						"totalCost": "113359"
					},
					"external": {
						"_name()": "infinite",
						"_symbol()": "infinite",
						"decimals()": "313"
					}
				},
				"methodIdentifiers": {
					"_name()": "d28d8852",
					"_symbol()": "b09f1266",
					"decimals()": "313ce567"
				}
			},
			"storageLayout": {
				"storage": [
					{
						"astId": 14,
						"contract": "contracts/CZKC.sol:CZKC",
						"label": "_balances",
						"offset": 0,
						"slot": "0",
						"type": "t_mapping(t_address,t_uint256)"
					}
				],
				"types": {
					"t_address": {
						"encoding": "inplace",
						"label": "address",
						"numberOfBytes": "20"
					},
					"t_mapping(t_address,t_uint256)": {
						"encoding": "mapping",
						"key": "t_address",
						"label": "mapping(address => uint256)",
						"numberOfBytes": "32",
						"value": "t_uint256"
					},
					"t_uint256": {
						"encoding": "inplace",
						"label": "uint256",
						"numberOfBytes": "32"
					}
				}
			},
			"userdoc": {
				"kind": "user",
				"methods": {},
				"version": 1
			}
		}
	}
}