{
	"contracts/CZKC.sol": {
		"CZKC": {
			"abi": [
				{
					"inputs": [],
					"stateMutability": "nonpayable",
					"type": "constructor"
				},
				{
					"anonymous": false,
					"inputs": [
						{
							"indexed": true,
							"internalType": "address",
							"name": "owner",
							"type": "address"
						},
						{
							"indexed": true,
							"internalType": "address",
							"name": "spender",
							"type": "address"
						},
						{
							"indexed": false,
							"internalType": "uint256",
							"name": "value",
							"type": "uint256"
						}
					],
					"name": "Approval",
					"type": "event"
				},
				{
					"anonymous": false,
					"inputs": [
						{
							"indexed": true,
							"internalType": "address",
							"name": "from",
							"type": "address"
						},
						{
							"indexed": true,
							"internalType": "address",
							"name": "to",
							"type": "address"
						},
						{
							"indexed": false,
							"internalType": "uint256",
							"name": "value",
							"type": "uint256"
						}
					],
					"name": "Transfer",
					"type": "event"
				},
				{
					"inputs": [
						{
							"internalType": "address",
							"name": "",
							"type": "address"
						},
						{
							"internalType": "address",
							"name": "",
							"type": "address"
						}
					],
					"name": "_allowances",
					"outputs": [
						{
							"internalType": "uint256",
							"name": "",
							"type": "uint256"
						}
					],
					"stateMutability": "view",
					"type": "function"
				},
				{
					"inputs": [
						{
							"internalType": "address",
							"name": "owner",
							"type": "address"
						},
						{
							"internalType": "address",
							"name": "spender",
							"type": "address"
						}
					],
					"name": "allowance",
					"outputs": [
						{
							"internalType": "uint256",
							"name": "",
							"type": "uint256"
						}
					],
					"stateMutability": "view",
					"type": "function"
				},
				{
					"inputs": [
						{
							"internalType": "address",
							"name": "spender",
							"type": "address"
						},
						{
							"internalType": "uint256",
							"name": "amount",
							"type": "uint256"
						}
					],
					"name": "approve",
					"outputs": [
						{
							"internalType": "bool",
							"name": "",
							"type": "bool"
						}
					],
					"stateMutability": "nonpayable",
					"type": "function"
				},
				{
					"inputs": [
						{
							"internalType": "address",
							"name": "",
							"type": "address"
						}
					],
					"name": "balanceOf",
					"outputs": [
						{
							"internalType": "uint256",
							"name": "",
							"type": "uint256"
						}
					],
					"stateMutability": "view",
					"type": "function"
				},
				{
					"inputs": [
						{
							"internalType": "uint256",
							"name": "amount",
							"type": "uint256"
						}
					],
					"name": "burn",
					"outputs": [
						{
							"internalType": "bool",
							"name": "",
							"type": "bool"
						}
					],
					"stateMutability": "nonpayable",
					"type": "function"
				},
				{
					"inputs": [],
					"name": "decimals",
					"outputs": [
						{
							"internalType": "uint8",
							"name": "",
							"type": "uint8"
						}
					],
					"stateMutability": "view",
					"type": "function"
				},
				{
					"inputs": [
						{
							"internalType": "address",
							"name": "recipient",
							"type": "address"
						},
						{
							"internalType": "uint256",
							"name": "amount",
							"type": "uint256"
						}
					],
					"name": "mint",
					"outputs": [
						{
							"internalType": "bool",
							"name": "",
							"type": "bool"
						}
					],
					"stateMutability": "nonpayable",
					"type": "function"
				},
				{
					"inputs": [],
					"name": "name",
					"outputs": [
						{
							"internalType": "string",
							"name": "",
							"type": "string"
						}
					],
					"stateMutability": "view",
					"type": "function"
				},
				{
					"inputs": [],
					"name": "symbol",
					"outputs": [
						{
							"internalType": "string",
							"name": "",
							"type": "string"
						}
					],
					"stateMutability": "view",
					"type": "function"
				},
				{
					"inputs": [],
					"name": "totalSupply",
					"outputs": [
						{
							"internalType": "uint256",
							"name": "",
							"type": "uint256"
						}
					],
					"stateMutability": "view",
					"type": "function"
				},
				{
					"inputs": [
						{
							"internalType": "address",
							"name": "to",
							"type": "address"
						},
						{
							"internalType": "uint256",
							"name": "amount",
							"type": "uint256"
						}
					],
					"name": "transfer",
					"outputs": [
						{
							"internalType": "bool",
							"name": "",
							"type": "bool"
						}
					],
					"stateMutability": "nonpayable",
					"type": "function"
				},
				{
					"inputs": [
						{
							"internalType": "address",
							"name": "spender",
							"type": "address"
						},
						{
							"internalType": "address",
							"name": "recipient",
							"type": "address"
						},
						{
							"internalType": "uint256",
							"name": "amount",
							"type": "uint256"
						}
					],
					"name": "transferFrom",
					"outputs": [
						{
							"internalType": "bool",
							"name": "",
							"type": "bool"
						}
					],
					"stateMutability": "nonpayable",
					"type": "function"
				}
			],
			"devdoc": {
				"kind": "dev",
				"methods": {},
				"version": 1
			},
			"evm": {
				"assembly": "    /* \"contracts/CZKC.sol\":87:2029  contract CZKC is IERC20{... */\n  mstore(0x40, 0x80)\n    /* \"contracts/CZKC.sol\":346:445  constructor() {... */\n  callvalue\n  dup1\n  iszero\n  tag_1\n  jumpi\n  0x00\n  dup1\n  revert\ntag_1:\n  pop\n    /* \"contracts/CZKC.sol\":370:388  _name = \"CZK Coin\" */\n  mload(0x40)\n  dup1\n  0x40\n  add\n  0x40\n  mstore\n  dup1\n  0x08\n  dup2\n  mstore\n  0x20\n  add\n  0x435a4b20436f696e000000000000000000000000000000000000000000000000\n  dup2\n  mstore\n  pop\n    /* \"contracts/CZKC.sol\":370:375  _name */\n  0x00\n    /* \"contracts/CZKC.sol\":370:388  _name = \"CZK Coin\" */\n  swap1\n  dup2\n  tag_4\n  swap2\n  swap1\n  tag_5\n  jump\t// in\ntag_4:\n  pop\n    /* \"contracts/CZKC.sol\":398:414  _symbol = \"CZKC\" */\n  mload(0x40)\n  dup1\n  0x40\n  add\n  0x40\n  mstore\n  dup1\n  0x04\n  dup2\n  mstore\n  0x20\n  add\n  0x435a4b4300000000000000000000000000000000000000000000000000000000\n  dup2\n  mstore\n  pop\n    /* \"contracts/CZKC.sol\":398:405  _symbol */\n  0x01\n    /* \"contracts/CZKC.sol\":398:414  _symbol = \"CZKC\" */\n  swap1\n  dup2\n  tag_6\n  swap2\n  swap1\n  tag_5\n  jump\t// in\ntag_6:\n  pop\n    /* \"contracts/CZKC.sol\":436:438  18 */\n  0x12\n    /* \"contracts/CZKC.sol\":424:433  _decimals */\n  0x02\n  0x00\n    /* \"contracts/CZKC.sol\":424:438  _decimals = 18 */\n  0x0100\n  exp\n  dup2\n  sload\n  dup2\n  0xff\n  mul\n  not\n  and\n  swap1\n  dup4\n  0xff\n  and\n  mul\n  or\n  swap1\n  sstore\n  pop\n    /* \"contracts/CZKC.sol\":87:2029  contract CZKC is IERC20{... */\n  jump(tag_7)\n    /* \"#utility.yul\":7:106   */\ntag_8:\n    /* \"#utility.yul\":59:65   */\n  0x00\n    /* \"#utility.yul\":93:98   */\n  dup2\n    /* \"#utility.yul\":87:99   */\n  mload\n    /* \"#utility.yul\":77:99   */\n  swap1\n  pop\n    /* \"#utility.yul\":7:106   */\n  swap2\n  swap1\n  pop\n  jump\t// out\n    /* \"#utility.yul\":112:292   */\ntag_9:\n    /* \"#utility.yul\":160:237   */\n  0x4e487b7100000000000000000000000000000000000000000000000000000000\n    /* \"#utility.yul\":157:158   */\n  0x00\n    /* \"#utility.yul\":150:238   */\n  mstore\n    /* \"#utility.yul\":257:261   */\n  0x41\n    /* \"#utility.yul\":254:255   */\n  0x04\n    /* \"#utility.yul\":247:262   */\n  mstore\n    /* \"#utility.yul\":281:285   */\n  0x24\n    /* \"#utility.yul\":278:279   */\n  0x00\n    /* \"#utility.yul\":271:286   */\n  revert\n    /* \"#utility.yul\":298:478   */\ntag_10:\n    /* \"#utility.yul\":346:423   */\n  0x4e487b7100000000000000000000000000000000000000000000000000000000\n    /* \"#utility.yul\":343:344   */\n  0x00\n    /* \"#utility.yul\":336:424   */\n  mstore\n    /* \"#utility.yul\":443:447   */\n  0x22\n    /* \"#utility.yul\":440:441   */\n  0x04\n    /* \"#utility.yul\":433:448   */\n  mstore\n    /* \"#utility.yul\":467:471   */\n  0x24\n    /* \"#utility.yul\":464:465   */\n  0x00\n    /* \"#utility.yul\":457:472   */\n  revert\n    /* \"#utility.yul\":484:804   */\ntag_11:\n    /* \"#utility.yul\":528:534   */\n  0x00\n    /* \"#utility.yul\":565:566   */\n  0x02\n    /* \"#utility.yul\":559:563   */\n  dup3\n    /* \"#utility.yul\":555:567   */\n  div\n    /* \"#utility.yul\":545:567   */\n  swap1\n  pop\n    /* \"#utility.yul\":612:613   */\n  0x01\n    /* \"#utility.yul\":606:610   */\n  dup3\n    /* \"#utility.yul\":602:614   */\n  and\n    /* \"#utility.yul\":633:651   */\n  dup1\n    /* \"#utility.yul\":623:704   */\n  tag_33\n  jumpi\n    /* \"#utility.yul\":689:693   */\n  0x7f\n    /* \"#utility.yul\":681:687   */\n  dup3\n    /* \"#utility.yul\":677:694   */\n  and\n    /* \"#utility.yul\":667:694   */\n  swap2\n  pop\n    /* \"#utility.yul\":623:704   */\ntag_33:\n    /* \"#utility.yul\":751:753   */\n  0x20\n    /* \"#utility.yul\":743:749   */\n  dup3\n    /* \"#utility.yul\":740:754   */\n  lt\n    /* \"#utility.yul\":720:738   */\n  dup2\n    /* \"#utility.yul\":717:755   */\n  sub\n    /* \"#utility.yul\":714:798   */\n  tag_34\n  jumpi\n    /* \"#utility.yul\":770:788   */\n  tag_35\n  tag_10\n  jump\t// in\ntag_35:\n    /* \"#utility.yul\":714:798   */\ntag_34:\n    /* \"#utility.yul\":535:804   */\n  pop\n    /* \"#utility.yul\":484:804   */\n  swap2\n  swap1\n  pop\n  jump\t// out\n    /* \"#utility.yul\":810:951   */\ntag_12:\n    /* \"#utility.yul\":859:863   */\n  0x00\n    /* \"#utility.yul\":882:885   */\n  dup2\n    /* \"#utility.yul\":874:885   */\n  swap1\n  pop\n    /* \"#utility.yul\":905:908   */\n  dup2\n    /* \"#utility.yul\":902:903   */\n  0x00\n    /* \"#utility.yul\":895:909   */\n  mstore\n    /* \"#utility.yul\":939:943   */\n  0x20\n    /* \"#utility.yul\":936:937   */\n  0x00\n    /* \"#utility.yul\":926:944   */\n  keccak256\n    /* \"#utility.yul\":918:944   */\n  swap1\n  pop\n    /* \"#utility.yul\":810:951   */\n  swap2\n  swap1\n  pop\n  jump\t// out\n    /* \"#utility.yul\":957:1050   */\ntag_13:\n    /* \"#utility.yul\":994:1000   */\n  0x00\n    /* \"#utility.yul\":1041:1043   */\n  0x20\n    /* \"#utility.yul\":1036:1038   */\n  0x1f\n    /* \"#utility.yul\":1029:1034   */\n  dup4\n    /* \"#utility.yul\":1025:1039   */\n  add\n    /* \"#utility.yul\":1021:1044   */\n  div\n    /* \"#utility.yul\":1011:1044   */\n  swap1\n  pop\n    /* \"#utility.yul\":957:1050   */\n  swap2\n  swap1\n  pop\n  jump\t// out\n    /* \"#utility.yul\":1056:1163   */\ntag_14:\n    /* \"#utility.yul\":1100:1108   */\n  0x00\n    /* \"#utility.yul\":1150:1155   */\n  dup3\n    /* \"#utility.yul\":1144:1148   */\n  dup3\n    /* \"#utility.yul\":1140:1156   */\n  shl\n    /* \"#utility.yul\":1119:1156   */\n  swap1\n  pop\n    /* \"#utility.yul\":1056:1163   */\n  swap3\n  swap2\n  pop\n  pop\n  jump\t// out\n    /* \"#utility.yul\":1169:1562   */\ntag_15:\n    /* \"#utility.yul\":1238:1244   */\n  0x00\n    /* \"#utility.yul\":1288:1289   */\n  0x08\n    /* \"#utility.yul\":1276:1286   */\n  dup4\n    /* \"#utility.yul\":1272:1290   */\n  mul\n    /* \"#utility.yul\":1311:1408   */\n  tag_40\n    /* \"#utility.yul\":1341:1407   */\n  0xffffffffffffffffffffffffffffffffffffffffffffffffffffffffffffffff\n    /* \"#utility.yul\":1330:1339   */\n  dup3\n    /* \"#utility.yul\":1311:1408   */\n  tag_14\n  jump\t// in\ntag_40:\n    /* \"#utility.yul\":1429:1468   */\n  tag_41\n    /* \"#utility.yul\":1459:1467   */\n  dup7\n    /* \"#utility.yul\":1448:1457   */\n  dup4\n    /* \"#utility.yul\":1429:1468   */\n  tag_14\n  jump\t// in\ntag_41:\n    /* \"#utility.yul\":1417:1468   */\n  swap6\n  pop\n    /* \"#utility.yul\":1501:1505   */\n  dup1\n    /* \"#utility.yul\":1497:1506   */\n  not\n    /* \"#utility.yul\":1490:1495   */\n  dup5\n    /* \"#utility.yul\":1486:1507   */\n  and\n    /* \"#utility.yul\":1477:1507   */\n  swap4\n  pop\n    /* \"#utility.yul\":1550:1554   */\n  dup1\n    /* \"#utility.yul\":1540:1548   */\n  dup7\n    /* \"#utility.yul\":1536:1555   */\n  and\n    /* \"#utility.yul\":1529:1534   */\n  dup5\n    /* \"#utility.yul\":1526:1556   */\n  or\n    /* \"#utility.yul\":1516:1556   */\n  swap3\n  pop\n    /* \"#utility.yul\":1245:1562   */\n  pop\n  pop\n    /* \"#utility.yul\":1169:1562   */\n  swap4\n  swap3\n  pop\n  pop\n  pop\n  jump\t// out\n    /* \"#utility.yul\":1568:1645   */\ntag_16:\n    /* \"#utility.yul\":1605:1612   */\n  0x00\n    /* \"#utility.yul\":1634:1639   */\n  dup2\n    /* \"#utility.yul\":1623:1639   */\n  swap1\n  pop\n    /* \"#utility.yul\":1568:1645   */\n  swap2\n  swap1\n  pop\n  jump\t// out\n    /* \"#utility.yul\":1651:1711   */\ntag_17:\n    /* \"#utility.yul\":1679:1682   */\n  0x00\n    /* \"#utility.yul\":1700:1705   */\n  dup2\n    /* \"#utility.yul\":1693:1705   */\n  swap1\n  pop\n    /* \"#utility.yul\":1651:1711   */\n  swap2\n  swap1\n  pop\n  jump\t// out\n    /* \"#utility.yul\":1717:1859   */\ntag_18:\n    /* \"#utility.yul\":1767:1776   */\n  0x00\n    /* \"#utility.yul\":1800:1853   */\n  tag_45\n    /* \"#utility.yul\":1818:1852   */\n  tag_46\n    /* \"#utility.yul\":1827:1851   */\n  tag_47\n    /* \"#utility.yul\":1845:1850   */\n  dup5\n    /* \"#utility.yul\":1827:1851   */\n  tag_16\n  jump\t// in\ntag_47:\n    /* \"#utility.yul\":1818:1852   */\n  tag_17\n  jump\t// in\ntag_46:\n    /* \"#utility.yul\":1800:1853   */\n  tag_16\n  jump\t// in\ntag_45:\n    /* \"#utility.yul\":1787:1853   */\n  swap1\n  pop\n    /* \"#utility.yul\":1717:1859   */\n  swap2\n  swap1\n  pop\n  jump\t// out\n    /* \"#utility.yul\":1865:1940   */\ntag_19:\n    /* \"#utility.yul\":1908:1911   */\n  0x00\n    /* \"#utility.yul\":1929:1934   */\n  dup2\n    /* \"#utility.yul\":1922:1934   */\n  swap1\n  pop\n    /* \"#utility.yul\":1865:1940   */\n  swap2\n  swap1\n  pop\n  jump\t// out\n    /* \"#utility.yul\":1946:2215   */\ntag_20:\n    /* \"#utility.yul\":2056:2095   */\n  tag_50\n    /* \"#utility.yul\":2087:2094   */\n  dup4\n    /* \"#utility.yul\":2056:2095   */\n  tag_18\n  jump\t// in\ntag_50:\n    /* \"#utility.yul\":2117:2208   */\n  tag_51\n    /* \"#utility.yul\":2166:2207   */\n  tag_52\n    /* \"#utility.yul\":2190:2206   */\n  dup3\n    /* \"#utility.yul\":2166:2207   */\n  tag_19\n  jump\t// in\ntag_52:\n    /* \"#utility.yul\":2158:2164   */\n  dup5\n    /* \"#utility.yul\":2151:2155   */\n  dup5\n    /* \"#utility.yul\":2145:2156   */\n  sload\n    /* \"#utility.yul\":2117:2208   */\n  tag_15\n  jump\t// in\ntag_51:\n    /* \"#utility.yul\":2111:2115   */\n  dup3\n    /* \"#utility.yul\":2104:2209   */\n  sstore\n    /* \"#utility.yul\":2022:2215   */\n  pop\n    /* \"#utility.yul\":1946:2215   */\n  pop\n  pop\n  pop\n  jump\t// out\n    /* \"#utility.yul\":2221:2294   */\ntag_21:\n    /* \"#utility.yul\":2266:2269   */\n  0x00\n    /* \"#utility.yul\":2221:2294   */\n  swap1\n  jump\t// out\n    /* \"#utility.yul\":2300:2489   */\ntag_22:\n    /* \"#utility.yul\":2377:2409   */\n  tag_55\n  tag_21\n  jump\t// in\ntag_55:\n    /* \"#utility.yul\":2418:2483   */\n  tag_56\n    /* \"#utility.yul\":2476:2482   */\n  dup2\n    /* \"#utility.yul\":2468:2474   */\n  dup5\n    /* \"#utility.yul\":2462:2466   */\n  dup5\n    /* \"#utility.yul\":2418:2483   */\n  tag_20\n  jump\t// in\ntag_56:\n    /* \"#utility.yul\":2353:2489   */\n  pop\n    /* \"#utility.yul\":2300:2489   */\n  pop\n  pop\n  jump\t// out\n    /* \"#utility.yul\":2495:2681   */\ntag_23:\n    /* \"#utility.yul\":2555:2675   */\ntag_58:\n    /* \"#utility.yul\":2572:2575   */\n  dup2\n    /* \"#utility.yul\":2565:2570   */\n  dup2\n    /* \"#utility.yul\":2562:2576   */\n  lt\n    /* \"#utility.yul\":2555:2675   */\n  iszero\n  tag_60\n  jumpi\n    /* \"#utility.yul\":2626:2665   */\n  tag_61\n    /* \"#utility.yul\":2663:2664   */\n  0x00\n    /* \"#utility.yul\":2656:2661   */\n  dup3\n    /* \"#utility.yul\":2626:2665   */\n  tag_22\n  jump\t// in\ntag_61:\n    /* \"#utility.yul\":2599:2600   */\n  0x01\n    /* \"#utility.yul\":2592:2597   */\n  dup2\n    /* \"#utility.yul\":2588:2601   */\n  add\n    /* \"#utility.yul\":2579:2601   */\n  swap1\n  pop\n    /* \"#utility.yul\":2555:2675   */\n  jump(tag_58)\ntag_60:\n    /* \"#utility.yul\":2495:2681   */\n  pop\n  pop\n  jump\t// out\n    /* \"#utility.yul\":2687:3230   */\ntag_24:\n    /* \"#utility.yul\":2788:2790   */\n  0x1f\n    /* \"#utility.yul\":2783:2786   */\n  dup3\n    /* \"#utility.yul\":2780:2791   */\n  gt\n    /* \"#utility.yul\":2777:3223   */\n  iszero\n  tag_63\n  jumpi\n    /* \"#utility.yul\":2822:2860   */\n  tag_64\n    /* \"#utility.yul\":2854:2859   */\n  dup2\n    /* \"#utility.yul\":2822:2860   */\n  tag_12\n  jump\t// in\ntag_64:\n    /* \"#utility.yul\":2906:2935   */\n  tag_65\n    /* \"#utility.yul\":2924:2934   */\n  dup5\n    /* \"#utility.yul\":2906:2935   */\n  tag_13\n  jump\t// in\ntag_65:\n    /* \"#utility.yul\":2896:2904   */\n  dup2\n    /* \"#utility.yul\":2892:2936   */\n  add\n    /* \"#utility.yul\":3089:3091   */\n  0x20\n    /* \"#utility.yul\":3077:3087   */\n  dup6\n    /* \"#utility.yul\":3074:3092   */\n  lt\n    /* \"#utility.yul\":3071:3120   */\n  iszero\n  tag_66\n  jumpi\n    /* \"#utility.yul\":3110:3118   */\n  dup2\n    /* \"#utility.yul\":3095:3118   */\n  swap1\n  pop\n    /* \"#utility.yul\":3071:3120   */\ntag_66:\n    /* \"#utility.yul\":3133:3213   */\n  tag_67\n    /* \"#utility.yul\":3189:3211   */\n  tag_68\n    /* \"#utility.yul\":3207:3210   */\n  dup6\n    /* \"#utility.yul\":3189:3211   */\n  tag_13\n  jump\t// in\ntag_68:\n    /* \"#utility.yul\":3179:3187   */\n  dup4\n    /* \"#utility.yul\":3175:3212   */\n  add\n    /* \"#utility.yul\":3162:3173   */\n  dup3\n    /* \"#utility.yul\":3133:3213   */\n  tag_23\n  jump\t// in\ntag_67:\n    /* \"#utility.yul\":2792:3223   */\n  pop\n  pop\n    /* \"#utility.yul\":2777:3223   */\ntag_63:\n    /* \"#utility.yul\":2687:3230   */\n  pop\n  pop\n  pop\n  jump\t// out\n    /* \"#utility.yul\":3236:3353   */\ntag_25:\n    /* \"#utility.yul\":3290:3298   */\n  0x00\n    /* \"#utility.yul\":3340:3345   */\n  dup3\n    /* \"#utility.yul\":3334:3338   */\n  dup3\n    /* \"#utility.yul\":3330:3346   */\n  shr\n    /* \"#utility.yul\":3309:3346   */\n  swap1\n  pop\n    /* \"#utility.yul\":3236:3353   */\n  swap3\n  swap2\n  pop\n  pop\n  jump\t// out\n    /* \"#utility.yul\":3359:3528   */\ntag_26:\n    /* \"#utility.yul\":3403:3409   */\n  0x00\n    /* \"#utility.yul\":3436:3487   */\n  tag_71\n    /* \"#utility.yul\":3484:3485   */\n  0x00\n    /* \"#utility.yul\":3480:3486   */\n  not\n    /* \"#utility.yul\":3472:3477   */\n  dup5\n    /* \"#utility.yul\":3469:3470   */\n  0x08\n    /* \"#utility.yul\":3465:3478   */\n  mul\n    /* \"#utility.yul\":3436:3487   */\n  tag_25\n  jump\t// in\ntag_71:\n    /* \"#utility.yul\":3432:3488   */\n  not\n    /* \"#utility.yul\":3517:3521   */\n  dup1\n    /* \"#utility.yul\":3511:3515   */\n  dup4\n    /* \"#utility.yul\":3507:3522   */\n  and\n    /* \"#utility.yul\":3497:3522   */\n  swap2\n  pop\n    /* \"#utility.yul\":3410:3528   */\n  pop\n    /* \"#utility.yul\":3359:3528   */\n  swap3\n  swap2\n  pop\n  pop\n  jump\t// out\n    /* \"#utility.yul\":3533:3828   */\ntag_27:\n    /* \"#utility.yul\":3609:3613   */\n  0x00\n    /* \"#utility.yul\":3755:3784   */\n  tag_73\n    /* \"#utility.yul\":3780:3783   */\n  dup4\n    /* \"#utility.yul\":3774:3778   */\n  dup4\n    /* \"#utility.yul\":3755:3784   */\n  tag_26\n  jump\t// in\ntag_73:\n    /* \"#utility.yul\":3747:3784   */\n  swap2\n  pop\n    /* \"#utility.yul\":3817:3820   */\n  dup3\n    /* \"#utility.yul\":3814:3815   */\n  0x02\n    /* \"#utility.yul\":3810:3821   */\n  mul\n    /* \"#utility.yul\":3804:3808   */\n  dup3\n    /* \"#utility.yul\":3801:3822   */\n  or\n    /* \"#utility.yul\":3793:3822   */\n  swap1\n  pop\n    /* \"#utility.yul\":3533:3828   */\n  swap3\n  swap2\n  pop\n  pop\n  jump\t// out\n    /* \"#utility.yul\":3833:5228   */\ntag_5:\n    /* \"#utility.yul\":3950:3987   */\n  tag_75\n    /* \"#utility.yul\":3983:3986   */\n  dup3\n    /* \"#utility.yul\":3950:3987   */\n  tag_8\n  jump\t// in\ntag_75:\n    /* \"#utility.yul\":4052:4070   */\n  0xffffffffffffffff\n    /* \"#utility.yul\":4044:4050   */\n  dup2\n    /* \"#utility.yul\":4041:4071   */\n  gt\n    /* \"#utility.yul\":4038:4094   */\n  iszero\n  tag_76\n  jumpi\n    /* \"#utility.yul\":4074:4092   */\n  tag_77\n  tag_9\n  jump\t// in\ntag_77:\n    /* \"#utility.yul\":4038:4094   */\ntag_76:\n    /* \"#utility.yul\":4118:4156   */\n  tag_78\n    /* \"#utility.yul\":4150:4154   */\n  dup3\n    /* \"#utility.yul\":4144:4155   */\n  sload\n    /* \"#utility.yul\":4118:4156   */\n  tag_11\n  jump\t// in\ntag_78:\n    /* \"#utility.yul\":4203:4270   */\n  tag_79\n    /* \"#utility.yul\":4263:4269   */\n  dup3\n    /* \"#utility.yul\":4255:4261   */\n  dup3\n    /* \"#utility.yul\":4249:4253   */\n  dup6\n    /* \"#utility.yul\":4203:4270   */\n  tag_24\n  jump\t// in\ntag_79:\n    /* \"#utility.yul\":4297:4298   */\n  0x00\n    /* \"#utility.yul\":4321:4325   */\n  0x20\n    /* \"#utility.yul\":4308:4325   */\n  swap1\n  pop\n    /* \"#utility.yul\":4353:4355   */\n  0x1f\n    /* \"#utility.yul\":4345:4351   */\n  dup4\n    /* \"#utility.yul\":4342:4356   */\n  gt\n    /* \"#utility.yul\":4370:4371   */\n  0x01\n    /* \"#utility.yul\":4365:4983   */\n  dup2\n  eq\n  tag_81\n  jumpi\n    /* \"#utility.yul\":5027:5028   */\n  0x00\n    /* \"#utility.yul\":5044:5050   */\n  dup5\n    /* \"#utility.yul\":5041:5118   */\n  iszero\n  tag_82\n  jumpi\n    /* \"#utility.yul\":5093:5102   */\n  dup3\n    /* \"#utility.yul\":5088:5091   */\n  dup8\n    /* \"#utility.yul\":5084:5103   */\n  add\n    /* \"#utility.yul\":5078:5104   */\n  mload\n    /* \"#utility.yul\":5069:5104   */\n  swap1\n  pop\n    /* \"#utility.yul\":5041:5118   */\ntag_82:\n    /* \"#utility.yul\":5144:5211   */\n  tag_83\n    /* \"#utility.yul\":5204:5210   */\n  dup6\n    /* \"#utility.yul\":5197:5202   */\n  dup3\n    /* \"#utility.yul\":5144:5211   */\n  tag_27\n  jump\t// in\ntag_83:\n    /* \"#utility.yul\":5138:5142   */\n  dup7\n    /* \"#utility.yul\":5131:5212   */\n  sstore\n    /* \"#utility.yul\":5000:5222   */\n  pop\n    /* \"#utility.yul\":4335:5222   */\n  jump(tag_80)\n    /* \"#utility.yul\":4365:4983   */\ntag_81:\n    /* \"#utility.yul\":4417:4421   */\n  0x1f\n    /* \"#utility.yul\":4413:4422   */\n  not\n    /* \"#utility.yul\":4405:4411   */\n  dup5\n    /* \"#utility.yul\":4401:4423   */\n  and\n    /* \"#utility.yul\":4451:4488   */\n  tag_84\n    /* \"#utility.yul\":4483:4487   */\n  dup7\n    /* \"#utility.yul\":4451:4488   */\n  tag_12\n  jump\t// in\ntag_84:\n    /* \"#utility.yul\":4510:4511   */\n  0x00\n    /* \"#utility.yul\":4524:4732   */\ntag_85:\n    /* \"#utility.yul\":4538:4545   */\n  dup3\n    /* \"#utility.yul\":4535:4536   */\n  dup2\n    /* \"#utility.yul\":4532:4546   */\n  lt\n    /* \"#utility.yul\":4524:4732   */\n  iszero\n  tag_87\n  jumpi\n    /* \"#utility.yul\":4617:4626   */\n  dup5\n    /* \"#utility.yul\":4612:4615   */\n  dup10\n    /* \"#utility.yul\":4608:4627   */\n  add\n    /* \"#utility.yul\":4602:4628   */\n  mload\n    /* \"#utility.yul\":4594:4600   */\n  dup3\n    /* \"#utility.yul\":4587:4629   */\n  sstore\n    /* \"#utility.yul\":4668:4669   */\n  0x01\n    /* \"#utility.yul\":4660:4666   */\n  dup3\n    /* \"#utility.yul\":4656:4670   */\n  add\n    /* \"#utility.yul\":4646:4670   */\n  swap2\n  pop\n    /* \"#utility.yul\":4715:4717   */\n  0x20\n    /* \"#utility.yul\":4704:4713   */\n  dup6\n    /* \"#utility.yul\":4700:4718   */\n  add\n    /* \"#utility.yul\":4687:4718   */\n  swap5\n  pop\n    /* \"#utility.yul\":4561:4565   */\n  0x20\n    /* \"#utility.yul\":4558:4559   */\n  dup2\n    /* \"#utility.yul\":4554:4566   */\n  add\n    /* \"#utility.yul\":4549:4566   */\n  swap1\n  pop\n    /* \"#utility.yul\":4524:4732   */\n  jump(tag_85)\ntag_87:\n    /* \"#utility.yul\":4760:4766   */\n  dup7\n    /* \"#utility.yul\":4751:4758   */\n  dup4\n    /* \"#utility.yul\":4748:4767   */\n  lt\n    /* \"#utility.yul\":4745:4924   */\n  iszero\n  tag_88\n  jumpi\n    /* \"#utility.yul\":4818:4827   */\n  dup5\n    /* \"#utility.yul\":4813:4816   */\n  dup10\n    /* \"#utility.yul\":4809:4828   */\n  add\n    /* \"#utility.yul\":4803:4829   */\n  mload\n    /* \"#utility.yul\":4861:4909   */\n  tag_89\n    /* \"#utility.yul\":4903:4907   */\n  0x1f\n    /* \"#utility.yul\":4895:4901   */\n  dup10\n    /* \"#utility.yul\":4891:4908   */\n  and\n    /* \"#utility.yul\":4880:4889   */\n  dup3\n    /* \"#utility.yul\":4861:4909   */\n  tag_26\n  jump\t// in\ntag_89:\n    /* \"#utility.yul\":4853:4859   */\n  dup4\n    /* \"#utility.yul\":4846:4910   */\n  sstore\n    /* \"#utility.yul\":4768:4924   */\n  pop\n    /* \"#utility.yul\":4745:4924   */\ntag_88:\n    /* \"#utility.yul\":4970:4971   */\n  0x01\n    /* \"#utility.yul\":4966:4967   */\n  0x02\n    /* \"#utility.yul\":4958:4964   */\n  dup9\n    /* \"#utility.yul\":4954:4968   */\n  mul\n    /* \"#utility.yul\":4950:4972   */\n  add\n    /* \"#utility.yul\":4944:4948   */\n  dup9\n    /* \"#utility.yul\":4937:4973   */\n  sstore\n    /* \"#utility.yul\":4372:4983   */\n  pop\n  pop\n  pop\n    /* \"#utility.yul\":4335:5222   */\ntag_80:\n  pop\n    /* \"#utility.yul\":3925:5228   */\n  pop\n  pop\n  pop\n    /* \"#utility.yul\":3833:5228   */\n  pop\n  pop\n  jump\t// out\n    /* \"contracts/CZKC.sol\":87:2029  contract CZKC is IERC20{... */\ntag_7:\n  dataSize(sub_0)\n  dup1\n  dataOffset(sub_0)\n  0x00\n  codecopy\n  0x00\n  return\nstop\n\nsub_0: assembly {\n        /* \"contracts/CZKC.sol\":87:2029  contract CZKC is IERC20{... */\n      mstore(0x40, 0x80)\n      callvalue\n      dup1\n      iszero\n      tag_1\n      jumpi\n      0x00\n      dup1\n      revert\n    tag_1:\n      pop\n      jumpi(tag_2, lt(calldatasize, 0x04))\n      shr(0xe0, calldataload(0x00))\n      dup1\n      0x40c10f19\n      gt\n      tag_15\n      jumpi\n      dup1\n      0x40c10f19\n      eq\n      tag_9\n      jumpi\n      dup1\n      0x42966c68\n      eq\n      tag_10\n      jumpi\n      dup1\n      0x70a08231\n      eq\n      tag_11\n      jumpi\n      dup1\n      0x95d89b41\n      eq\n      tag_12\n      jumpi\n      dup1\n      0xa9059cbb\n      eq\n      tag_13\n      jumpi\n      dup1\n      0xdd62ed3e\n      eq\n      tag_14\n      jumpi\n      jump(tag_2)\n    tag_15:\n      dup1\n      0x024c2ddd\n      eq\n      tag_3\n      jumpi\n      dup1\n      0x06fdde03\n      eq\n      tag_4\n      jumpi\n      dup1\n      0x095ea7b3\n      eq\n      tag_5\n      jumpi\n      dup1\n      0x18160ddd\n      eq\n      tag_6\n      jumpi\n      dup1\n      0x23b872dd\n      eq\n      tag_7\n      jumpi\n      dup1\n      0x313ce567\n      eq\n      tag_8\n      jumpi\n    tag_2:\n      0x00\n      dup1\n      revert\n        /* \"contracts/CZKC.sol\":276:339  mapping(address => mapping(address => uint)) public _allowances */\n    tag_3:\n      tag_16\n      0x04\n      dup1\n      calldatasize\n      sub\n      dup2\n      add\n      swap1\n      tag_17\n      swap2\n      swap1\n      tag_18\n      jump\t// in\n    tag_17:\n      tag_19\n      jump\t// in\n    tag_16:\n      mload(0x40)\n      tag_20\n      swap2\n      swap1\n      tag_21\n      jump\t// in\n    tag_20:\n      mload(0x40)\n      dup1\n      swap2\n      sub\n      swap1\n      return\n        /* \"contracts/CZKC.sol\":451:534  function name() external view returns (string memory) {... */\n    tag_4:\n      tag_22\n      tag_23\n      jump\t// in\n    tag_22:\n      mload(0x40)\n      tag_24\n      swap2\n      swap1\n      tag_25\n      jump\t// in\n    tag_24:\n      mload(0x40)\n      dup1\n      swap2\n      sub\n      swap1\n      return\n        /* \"contracts/CZKC.sol\":1080:1281  function approve(address spender, uint amount) external returns (bool){... */\n    tag_5:\n      tag_26\n      0x04\n      dup1\n      calldatasize\n      sub\n      dup2\n      add\n      swap1\n      tag_27\n      swap2\n      swap1\n      tag_28\n      jump\t// in\n    tag_27:\n      tag_29\n      jump\t// in\n    tag_26:\n      mload(0x40)\n      tag_30\n      swap2\n      swap1\n      tag_31\n      jump\t// in\n    tag_30:\n      mload(0x40)\n      dup1\n      swap2\n      sub\n      swap1\n      return\n        /* \"contracts/CZKC.sol\":199:222  uint public totalSupply */\n    tag_6:\n      tag_32\n      tag_33\n      jump\t// in\n    tag_32:\n      mload(0x40)\n      tag_34\n      swap2\n      swap1\n      tag_21\n      jump\t// in\n    tag_34:\n      mload(0x40)\n      dup1\n      swap2\n      sub\n      swap1\n      return\n        /* \"contracts/CZKC.sol\":1287:1590  function transferFrom(address spender, address recipient, uint amount) external returns (bool){... */\n    tag_7:\n      tag_35\n      0x04\n      dup1\n      calldatasize\n      sub\n      dup2\n      add\n      swap1\n      tag_36\n      swap2\n      swap1\n      tag_37\n      jump\t// in\n    tag_36:\n      tag_38\n      jump\t// in\n    tag_35:\n      mload(0x40)\n      tag_39\n      swap2\n      swap1\n      tag_31\n      jump\t// in\n    tag_39:\n      mload(0x40)\n      dup1\n      swap2\n      sub\n      swap1\n      return\n        /* \"contracts/CZKC.sol\":633:716  function decimals() external view returns (uint8) {... */\n    tag_8:\n      tag_40\n      tag_41\n      jump\t// in\n    tag_40:\n      mload(0x40)\n      tag_42\n      swap2\n      swap1\n      tag_43\n      jump\t// in\n    tag_42:\n      mload(0x40)\n      dup1\n      swap2\n      sub\n      swap1\n      return\n        /* \"contracts/CZKC.sol\":1596:1817  function mint(address recipient, uint amount) external returns(bool){... */\n    tag_9:\n      tag_44\n      0x04\n      dup1\n      calldatasize\n      sub\n      dup2\n      add\n      swap1\n      tag_45\n      swap2\n      swap1\n      tag_28\n      jump\t// in\n    tag_45:\n      tag_46\n      jump\t// in\n    tag_44:\n      mload(0x40)\n      tag_47\n      swap2\n      swap1\n      tag_31\n      jump\t// in\n    tag_47:\n      mload(0x40)\n      dup1\n      swap2\n      sub\n      swap1\n      return\n        /* \"contracts/CZKC.sol\":1823:2027  function burn(uint amount) external returns(bool){... */\n    tag_10:\n      tag_48\n      0x04\n      dup1\n      calldatasize\n      sub\n      dup2\n      add\n      swap1\n      tag_49\n      swap2\n      swap1\n      tag_50\n      jump\t// in\n    tag_49:\n      tag_51\n      jump\t// in\n    tag_48:\n      mload(0x40)\n      tag_52\n      swap2\n      swap1\n      tag_31\n      jump\t// in\n    tag_52:\n      mload(0x40)\n      dup1\n      swap2\n      sub\n      swap1\n      return\n        /* \"contracts/CZKC.sol\":229:270  mapping(address => uint) public balanceOf */\n    tag_11:\n      tag_53\n      0x04\n      dup1\n      calldatasize\n      sub\n      dup2\n      add\n      swap1\n      tag_54\n      swap2\n      swap1\n      tag_55\n      jump\t// in\n    tag_54:\n      tag_56\n      jump\t// in\n    tag_53:\n      mload(0x40)\n      tag_57\n      swap2\n      swap1\n      tag_21\n      jump\t// in\n    tag_57:\n      mload(0x40)\n      dup1\n      swap2\n      sub\n      swap1\n      return\n        /* \"contracts/CZKC.sol\":540:627  function symbol() external view returns (string memory) {... */\n    tag_12:\n      tag_58\n      tag_59\n      jump\t// in\n    tag_58:\n      mload(0x40)\n      tag_60\n      swap2\n      swap1\n      tag_25\n      jump\t// in\n    tag_60:\n      mload(0x40)\n      dup1\n      swap2\n      sub\n      swap1\n      return\n        /* \"contracts/CZKC.sol\":858:1074  function transfer(address to, uint amount) external returns (bool) {... */\n    tag_13:\n      tag_61\n      0x04\n      dup1\n      calldatasize\n      sub\n      dup2\n      add\n      swap1\n      tag_62\n      swap2\n      swap1\n      tag_28\n      jump\t// in\n    tag_62:\n      tag_63\n      jump\t// in\n    tag_61:\n      mload(0x40)\n      tag_64\n      swap2\n      swap1\n      tag_31\n      jump\t// in\n    tag_64:\n      mload(0x40)\n      dup1\n      swap2\n      sub\n      swap1\n      return\n        /* \"contracts/CZKC.sol\":722:852  function allowance(address owner, address spender) external view returns (uint){... */\n    tag_14:\n      tag_65\n      0x04\n      dup1\n      calldatasize\n      sub\n      dup2\n      add\n      swap1\n      tag_66\n      swap2\n      swap1\n      tag_18\n      jump\t// in\n    tag_66:\n      tag_67\n      jump\t// in\n    tag_65:\n      mload(0x40)\n      tag_68\n      swap2\n      swap1\n      tag_21\n      jump\t// in\n    tag_68:\n      mload(0x40)\n      dup1\n      swap2\n      sub\n      swap1\n      return\n        /* \"contracts/CZKC.sol\":276:339  mapping(address => mapping(address => uint)) public _allowances */\n    tag_19:\n      mstore(0x20, 0x05)\n      dup2\n      0x00\n      mstore\n      mstore(0x20, keccak256(0x00, 0x40))\n      dup1\n      0x00\n      mstore\n      keccak256(0x00, 0x40)\n      0x00\n      swap2\n      pop\n      swap2\n      pop\n      pop\n      sload\n      dup2\n      jump\t// out\n        /* \"contracts/CZKC.sol\":451:534  function name() external view returns (string memory) {... */\n    tag_23:\n        /* \"contracts/CZKC.sol\":490:503  string memory */\n      0x60\n        /* \"contracts/CZKC.sol\":522:527  _name */\n      0x00\n        /* \"contracts/CZKC.sol\":515:527  return _name */\n      dup1\n      sload\n      tag_70\n      swap1\n      tag_71\n      jump\t// in\n    tag_70:\n      dup1\n      0x1f\n      add\n      0x20\n      dup1\n      swap2\n      div\n      mul\n      0x20\n      add\n      mload(0x40)\n      swap1\n      dup2\n      add\n      0x40\n      mstore\n      dup1\n      swap3\n      swap2\n      swap1\n      dup2\n      dup2\n      mstore\n      0x20\n      add\n      dup3\n      dup1\n      sload\n      tag_72\n      swap1\n      tag_71\n      jump\t// in\n    tag_72:\n      dup1\n      iszero\n      tag_73\n      jumpi\n      dup1\n      0x1f\n      lt\n      tag_74\n      jumpi\n      0x0100\n      dup1\n      dup4\n      sload\n      div\n      mul\n      dup4\n      mstore\n      swap2\n      0x20\n      add\n      swap2\n      jump(tag_73)\n    tag_74:\n      dup3\n      add\n      swap2\n      swap1\n      0x00\n      mstore\n      keccak256(0x00, 0x20)\n      swap1\n    tag_75:\n      dup2\n      sload\n      dup2\n      mstore\n      swap1\n      0x01\n      add\n      swap1\n      0x20\n      add\n      dup1\n      dup4\n      gt\n      tag_75\n      jumpi\n      dup3\n      swap1\n      sub\n      0x1f\n      and\n      dup3\n      add\n      swap2\n    tag_73:\n      pop\n      pop\n      pop\n      pop\n      pop\n      swap1\n      pop\n        /* \"contracts/CZKC.sol\":451:534  function name() external view returns (string memory) {... */\n      swap1\n      jump\t// out\n        /* \"contracts/CZKC.sol\":1080:1281  function approve(address spender, uint amount) external returns (bool){... */\n    tag_29:\n        /* \"contracts/CZKC.sol\":1145:1149  bool */\n      0x00\n        /* \"contracts/CZKC.sol\":1195:1201  amount */\n      dup2\n        /* \"contracts/CZKC.sol\":1160:1171  _allowances */\n      0x05\n        /* \"contracts/CZKC.sol\":1160:1183  _allowances[msg.sender] */\n      0x00\n        /* \"contracts/CZKC.sol\":1172:1182  msg.sender */\n      caller\n        /* \"contracts/CZKC.sol\":1160:1183  _allowances[msg.sender] */\n      0xffffffffffffffffffffffffffffffffffffffff\n      and\n      0xffffffffffffffffffffffffffffffffffffffff\n      and\n      dup2\n      mstore\n      0x20\n      add\n      swap1\n      dup2\n      mstore\n      0x20\n      add\n      0x00\n      keccak256\n        /* \"contracts/CZKC.sol\":1160:1192  _allowances[msg.sender][spender] */\n      0x00\n        /* \"contracts/CZKC.sol\":1184:1191  spender */\n      dup6\n        /* \"contracts/CZKC.sol\":1160:1192  _allowances[msg.sender][spender] */\n      0xffffffffffffffffffffffffffffffffffffffff\n      and\n      0xffffffffffffffffffffffffffffffffffffffff\n      and\n      dup2\n      mstore\n      0x20\n      add\n      swap1\n      dup2\n      mstore\n      0x20\n      add\n      0x00\n      keccak256\n        /* \"contracts/CZKC.sol\":1160:1201  _allowances[msg.sender][spender] = amount */\n      dup2\n      swap1\n      sstore\n      pop\n        /* \"contracts/CZKC.sol\":1237:1244  spender */\n      dup3\n        /* \"contracts/CZKC.sol\":1216:1253  Approval(msg.sender, spender, amount) */\n      0xffffffffffffffffffffffffffffffffffffffff\n      and\n        /* \"contracts/CZKC.sol\":1225:1235  msg.sender */\n      caller\n        /* \"contracts/CZKC.sol\":1216:1253  Approval(msg.sender, spender, amount) */\n      0xffffffffffffffffffffffffffffffffffffffff\n      and\n      0x8c5be1e5ebec7d5bd14f71427d1e84f3dd0314c0f7b2291e5b200ac8c7c3b925\n        /* \"contracts/CZKC.sol\":1246:1252  amount */\n      dup5\n        /* \"contracts/CZKC.sol\":1216:1253  Approval(msg.sender, spender, amount) */\n      mload(0x40)\n      tag_77\n      swap2\n      swap1\n      tag_21\n      jump\t// in\n    tag_77:\n      mload(0x40)\n      dup1\n      swap2\n      sub\n      swap1\n      log3\n        /* \"contracts/CZKC.sol\":1270:1274  true */\n      0x01\n        /* \"contracts/CZKC.sol\":1263:1274  return true */\n      swap1\n      pop\n        /* \"contracts/CZKC.sol\":1080:1281  function approve(address spender, uint amount) external returns (bool){... */\n      swap3\n      swap2\n      pop\n      pop\n      jump\t// out\n        /* \"contracts/CZKC.sol\":199:222  uint public totalSupply */\n    tag_33:\n      sload(0x03)\n      dup2\n      jump\t// out\n        /* \"contracts/CZKC.sol\":1287:1590  function transferFrom(address spender, address recipient, uint amount) external returns (bool){... */\n    tag_38:\n        /* \"contracts/CZKC.sol\":1376:1380  bool */\n      0x00\n        /* \"contracts/CZKC.sol\":1427:1433  amount */\n      dup2\n        /* \"contracts/CZKC.sol\":1391:1402  _allowances */\n      0x05\n        /* \"contracts/CZKC.sol\":1391:1411  _allowances[spender] */\n      0x00\n        /* \"contracts/CZKC.sol\":1403:1410  spender */\n      dup7\n        /* \"contracts/CZKC.sol\":1391:1411  _allowances[spender] */\n      0xffffffffffffffffffffffffffffffffffffffff\n      and\n      0xffffffffffffffffffffffffffffffffffffffff\n      and\n      dup2\n      mstore\n      0x20\n      add\n      swap1\n      dup2\n      mstore\n      0x20\n      add\n      0x00\n      keccak256\n        /* \"contracts/CZKC.sol\":1391:1423  _allowances[spender][msg.sender] */\n      0x00\n        /* \"contracts/CZKC.sol\":1412:1422  msg.sender */\n      caller\n        /* \"contracts/CZKC.sol\":1391:1423  _allowances[spender][msg.sender] */\n      0xffffffffffffffffffffffffffffffffffffffff\n      and\n      0xffffffffffffffffffffffffffffffffffffffff\n      and\n      dup2\n      mstore\n      0x20\n      add\n      swap1\n      dup2\n      mstore\n      0x20\n      add\n      0x00\n      keccak256\n      0x00\n        /* \"contracts/CZKC.sol\":1391:1433  _allowances[spender][msg.sender] -= amount */\n      dup3\n      dup3\n      sload\n      tag_79\n      swap2\n      swap1\n      tag_80\n      jump\t// in\n    tag_79:\n      swap3\n      pop\n      pop\n      dup2\n      swap1\n      sstore\n      pop\n        /* \"contracts/CZKC.sol\":1465:1471  amount */\n      dup2\n        /* \"contracts/CZKC.sol\":1443:1452  balanceOf */\n      0x04\n        /* \"contracts/CZKC.sol\":1443:1461  balanceOf[spender] */\n      0x00\n        /* \"contracts/CZKC.sol\":1453:1460  spender */\n      dup7\n        /* \"contracts/CZKC.sol\":1443:1461  balanceOf[spender] */\n      0xffffffffffffffffffffffffffffffffffffffff\n      and\n      0xffffffffffffffffffffffffffffffffffffffff\n      and\n      dup2\n      mstore\n      0x20\n      add\n      swap1\n      dup2\n      mstore\n      0x20\n      add\n      0x00\n      keccak256\n      0x00\n        /* \"contracts/CZKC.sol\":1443:1471  balanceOf[spender] -= amount */\n      dup3\n      dup3\n      sload\n      tag_81\n      swap2\n      swap1\n      tag_80\n      jump\t// in\n    tag_81:\n      swap3\n      pop\n      pop\n      dup2\n      swap1\n      sstore\n      pop\n        /* \"contracts/CZKC.sol\":1505:1511  amount */\n      dup2\n        /* \"contracts/CZKC.sol\":1481:1490  balanceOf */\n      0x04\n        /* \"contracts/CZKC.sol\":1481:1501  balanceOf[recipient] */\n      0x00\n        /* \"contracts/CZKC.sol\":1491:1500  recipient */\n      dup6\n        /* \"contracts/CZKC.sol\":1481:1501  balanceOf[recipient] */\n      0xffffffffffffffffffffffffffffffffffffffff\n      and\n      0xffffffffffffffffffffffffffffffffffffffff\n      and\n      dup2\n      mstore\n      0x20\n      add\n      swap1\n      dup2\n      mstore\n      0x20\n      add\n      0x00\n      keccak256\n      0x00\n        /* \"contracts/CZKC.sol\":1481:1511  balanceOf[recipient] += amount */\n      dup3\n      dup3\n      sload\n      tag_82\n      swap2\n      swap1\n      tag_83\n      jump\t// in\n    tag_82:\n      swap3\n      pop\n      pop\n      dup2\n      swap1\n      sstore\n      pop\n        /* \"contracts/CZKC.sol\":1544:1553  recipient */\n      dup3\n        /* \"contracts/CZKC.sol\":1526:1562  Transfer(spender, recipient, amount) */\n      0xffffffffffffffffffffffffffffffffffffffff\n      and\n        /* \"contracts/CZKC.sol\":1535:1542  spender */\n      dup5\n        /* \"contracts/CZKC.sol\":1526:1562  Transfer(spender, recipient, amount) */\n      0xffffffffffffffffffffffffffffffffffffffff\n      and\n      0xddf252ad1be2c89b69c2b068fc378daa952ba7f163c4a11628f55a4df523b3ef\n        /* \"contracts/CZKC.sol\":1555:1561  amount */\n      dup5\n        /* \"contracts/CZKC.sol\":1526:1562  Transfer(spender, recipient, amount) */\n      mload(0x40)\n      tag_84\n      swap2\n      swap1\n      tag_21\n      jump\t// in\n    tag_84:\n      mload(0x40)\n      dup1\n      swap2\n      sub\n      swap1\n      log3\n        /* \"contracts/CZKC.sol\":1579:1583  true */\n      0x01\n        /* \"contracts/CZKC.sol\":1572:1583  return true */\n      swap1\n      pop\n        /* \"contracts/CZKC.sol\":1287:1590  function transferFrom(address spender, address recipient, uint amount) external returns (bool){... */\n      swap4\n      swap3\n      pop\n      pop\n      pop\n      jump\t// out\n        /* \"contracts/CZKC.sol\":633:716  function decimals() external view returns (uint8) {... */\n    tag_41:\n        /* \"contracts/CZKC.sol\":676:681  uint8 */\n      0x00\n        /* \"contracts/CZKC.sol\":700:709  _decimals */\n      0x02\n      0x00\n      swap1\n      sload\n      swap1\n      0x0100\n      exp\n      swap1\n      div\n      0xff\n      and\n        /* \"contracts/CZKC.sol\":693:709  return _decimals */\n      swap1\n      pop\n        /* \"contracts/CZKC.sol\":633:716  function decimals() external view returns (uint8) {... */\n      swap1\n      jump\t// out\n        /* \"contracts/CZKC.sol\":1596:1817  function mint(address recipient, uint amount) external returns(bool){... */\n    tag_46:\n        /* \"contracts/CZKC.sol\":1659:1663  bool */\n      0x00\n        /* \"contracts/CZKC.sol\":1689:1695  amount */\n      dup2\n        /* \"contracts/CZKC.sol\":1674:1685  totalSupply */\n      0x03\n      0x00\n        /* \"contracts/CZKC.sol\":1674:1695  totalSupply += amount */\n      dup3\n      dup3\n      sload\n      tag_87\n      swap2\n      swap1\n      tag_83\n      jump\t// in\n    tag_87:\n      swap3\n      pop\n      pop\n      dup2\n      swap1\n      sstore\n      pop\n        /* \"contracts/CZKC.sol\":1729:1735  amount */\n      dup2\n        /* \"contracts/CZKC.sol\":1705:1714  balanceOf */\n      0x04\n        /* \"contracts/CZKC.sol\":1705:1725  balanceOf[recipient] */\n      0x00\n        /* \"contracts/CZKC.sol\":1715:1724  recipient */\n      dup6\n        /* \"contracts/CZKC.sol\":1705:1725  balanceOf[recipient] */\n      0xffffffffffffffffffffffffffffffffffffffff\n      and\n      0xffffffffffffffffffffffffffffffffffffffff\n      and\n      dup2\n      mstore\n      0x20\n      add\n      swap1\n      dup2\n      mstore\n      0x20\n      add\n      0x00\n      keccak256\n      0x00\n        /* \"contracts/CZKC.sol\":1705:1735  balanceOf[recipient] += amount */\n      dup3\n      dup3\n      sload\n      tag_88\n      swap2\n      swap1\n      tag_83\n      jump\t// in\n    tag_88:\n      swap3\n      pop\n      pop\n      dup2\n      swap1\n      sstore\n      pop\n        /* \"contracts/CZKC.sol\":1771:1780  recipient */\n      dup3\n        /* \"contracts/CZKC.sol\":1750:1789  Transfer(address(0), recipient, amount) */\n      0xffffffffffffffffffffffffffffffffffffffff\n      and\n        /* \"contracts/CZKC.sol\":1767:1768  0 */\n      0x00\n        /* \"contracts/CZKC.sol\":1750:1789  Transfer(address(0), recipient, amount) */\n      0xffffffffffffffffffffffffffffffffffffffff\n      and\n      0xddf252ad1be2c89b69c2b068fc378daa952ba7f163c4a11628f55a4df523b3ef\n        /* \"contracts/CZKC.sol\":1782:1788  amount */\n      dup5\n        /* \"contracts/CZKC.sol\":1750:1789  Transfer(address(0), recipient, amount) */\n      mload(0x40)\n      tag_89\n      swap2\n      swap1\n      tag_21\n      jump\t// in\n    tag_89:\n      mload(0x40)\n      dup1\n      swap2\n      sub\n      swap1\n      log3\n        /* \"contracts/CZKC.sol\":1806:1810  true */\n      0x01\n        /* \"contracts/CZKC.sol\":1799:1810  return true */\n      swap1\n      pop\n        /* \"contracts/CZKC.sol\":1596:1817  function mint(address recipient, uint amount) external returns(bool){... */\n      swap3\n      swap2\n      pop\n      pop\n      jump\t// out\n        /* \"contracts/CZKC.sol\":1823:2027  function burn(uint amount) external returns(bool){... */\n    tag_51:\n        /* \"contracts/CZKC.sol\":1867:1871  bool */\n      0x00\n        /* \"contracts/CZKC.sol\":1897:1903  amount */\n      dup2\n        /* \"contracts/CZKC.sol\":1882:1893  totalSupply */\n      0x03\n      0x00\n        /* \"contracts/CZKC.sol\":1882:1903  totalSupply -= amount */\n      dup3\n      dup3\n      sload\n      tag_91\n      swap2\n      swap1\n      tag_80\n      jump\t// in\n    tag_91:\n      swap3\n      pop\n      pop\n      dup2\n      swap1\n      sstore\n      pop\n        /* \"contracts/CZKC.sol\":1938:1944  amount */\n      dup2\n        /* \"contracts/CZKC.sol\":1913:1922  balanceOf */\n      0x04\n        /* \"contracts/CZKC.sol\":1913:1934  balanceOf[msg.sender] */\n      0x00\n        /* \"contracts/CZKC.sol\":1923:1933  msg.sender */\n      caller\n        /* \"contracts/CZKC.sol\":1913:1934  balanceOf[msg.sender] */\n      0xffffffffffffffffffffffffffffffffffffffff\n      and\n      0xffffffffffffffffffffffffffffffffffffffff\n      and\n      dup2\n      mstore\n      0x20\n      add\n      swap1\n      dup2\n      mstore\n      0x20\n      add\n      0x00\n      keccak256\n      0x00\n        /* \"contracts/CZKC.sol\":1913:1944  balanceOf[msg.sender] -= amount */\n      dup3\n      dup3\n      sload\n      tag_92\n      swap2\n      swap1\n      tag_80\n      jump\t// in\n    tag_92:\n      swap3\n      pop\n      pop\n      dup2\n      swap1\n      sstore\n      pop\n        /* \"contracts/CZKC.sol\":1988:1989  0 */\n      0x00\n        /* \"contracts/CZKC.sol\":1959:1999  Transfer(msg.sender, address(0), amount) */\n      0xffffffffffffffffffffffffffffffffffffffff\n      and\n        /* \"contracts/CZKC.sol\":1968:1978  msg.sender */\n      caller\n        /* \"contracts/CZKC.sol\":1959:1999  Transfer(msg.sender, address(0), amount) */\n      0xffffffffffffffffffffffffffffffffffffffff\n      and\n      0xddf252ad1be2c89b69c2b068fc378daa952ba7f163c4a11628f55a4df523b3ef\n        /* \"contracts/CZKC.sol\":1992:1998  amount */\n      dup5\n        /* \"contracts/CZKC.sol\":1959:1999  Transfer(msg.sender, address(0), amount) */\n      mload(0x40)\n      tag_93\n      swap2\n      swap1\n      tag_21\n      jump\t// in\n    tag_93:\n      mload(0x40)\n      dup1\n      swap2\n      sub\n      swap1\n      log3\n        /* \"contracts/CZKC.sol\":2016:2020  true */\n      0x01\n        /* \"contracts/CZKC.sol\":2009:2020  return true */\n      swap1\n      pop\n        /* \"contracts/CZKC.sol\":1823:2027  function burn(uint amount) external returns(bool){... */\n      swap2\n      swap1\n      pop\n      jump\t// out\n        /* \"contracts/CZKC.sol\":229:270  mapping(address => uint) public balanceOf */\n    tag_56:\n      mstore(0x20, 0x04)\n      dup1\n      0x00\n      mstore\n      keccak256(0x00, 0x40)\n      0x00\n      swap2\n      pop\n      swap1\n      pop\n      sload\n      dup2\n      jump\t// out\n        /* \"contracts/CZKC.sol\":540:627  function symbol() external view returns (string memory) {... */\n    tag_59:\n        /* \"contracts/CZKC.sol\":581:594  string memory */\n      0x60\n        /* \"contracts/CZKC.sol\":613:620  _symbol */\n      0x01\n        /* \"contracts/CZKC.sol\":606:620  return _symbol */\n      dup1\n      sload\n      tag_95\n      swap1\n      tag_71\n      jump\t// in\n    tag_95:\n      dup1\n      0x1f\n      add\n      0x20\n      dup1\n      swap2\n      div\n      mul\n      0x20\n      add\n      mload(0x40)\n      swap1\n      dup2\n      add\n      0x40\n      mstore\n      dup1\n      swap3\n      swap2\n      swap1\n      dup2\n      dup2\n      mstore\n      0x20\n      add\n      dup3\n      dup1\n      sload\n      tag_96\n      swap1\n      tag_71\n      jump\t// in\n    tag_96:\n      dup1\n      iszero\n      tag_97\n      jumpi\n      dup1\n      0x1f\n      lt\n      tag_98\n      jumpi\n      0x0100\n      dup1\n      dup4\n      sload\n      div\n      mul\n      dup4\n      mstore\n      swap2\n      0x20\n      add\n      swap2\n      jump(tag_97)\n    tag_98:\n      dup3\n      add\n      swap2\n      swap1\n      0x00\n      mstore\n      keccak256(0x00, 0x20)\n      swap1\n    tag_99:\n      dup2\n      sload\n      dup2\n      mstore\n      swap1\n      0x01\n      add\n      swap1\n      0x20\n      add\n      dup1\n      dup4\n      gt\n      tag_99\n      jumpi\n      dup3\n      swap1\n      sub\n      0x1f\n      and\n      dup3\n      add\n      swap2\n    tag_97:\n      pop\n      pop\n      pop\n      pop\n      pop\n      swap1\n      pop\n        /* \"contracts/CZKC.sol\":540:627  function symbol() external view returns (string memory) {... */\n      swap1\n      jump\t// out\n        /* \"contracts/CZKC.sol\":858:1074  function transfer(address to, uint amount) external returns (bool) {... */\n    tag_63:\n        /* \"contracts/CZKC.sol\":919:923  bool */\n      0x00\n        /* \"contracts/CZKC.sol\":960:966  amount */\n      dup2\n        /* \"contracts/CZKC.sol\":935:944  balanceOf */\n      0x04\n        /* \"contracts/CZKC.sol\":935:956  balanceOf[msg.sender] */\n      0x00\n        /* \"contracts/CZKC.sol\":945:955  msg.sender */\n      caller\n        /* \"contracts/CZKC.sol\":935:956  balanceOf[msg.sender] */\n      0xffffffffffffffffffffffffffffffffffffffff\n      and\n      0xffffffffffffffffffffffffffffffffffffffff\n      and\n      dup2\n      mstore\n      0x20\n      add\n      swap1\n      dup2\n      mstore\n      0x20\n      add\n      0x00\n      keccak256\n      0x00\n        /* \"contracts/CZKC.sol\":935:966  balanceOf[msg.sender] -= amount */\n      dup3\n      dup3\n      sload\n      tag_101\n      swap2\n      swap1\n      tag_80\n      jump\t// in\n    tag_101:\n      swap3\n      pop\n      pop\n      dup2\n      swap1\n      sstore\n      pop\n        /* \"contracts/CZKC.sol\":993:999  amount */\n      dup2\n        /* \"contracts/CZKC.sol\":976:985  balanceOf */\n      0x04\n        /* \"contracts/CZKC.sol\":976:989  balanceOf[to] */\n      0x00\n        /* \"contracts/CZKC.sol\":986:988  to */\n      dup6\n        /* \"contracts/CZKC.sol\":976:989  balanceOf[to] */\n      0xffffffffffffffffffffffffffffffffffffffff\n      and\n      0xffffffffffffffffffffffffffffffffffffffff\n      and\n      dup2\n      mstore\n      0x20\n      add\n      swap1\n      dup2\n      mstore\n      0x20\n      add\n      0x00\n      keccak256\n      0x00\n        /* \"contracts/CZKC.sol\":976:999  balanceOf[to] += amount */\n      dup3\n      dup3\n      sload\n      tag_102\n      swap2\n      swap1\n      tag_83\n      jump\t// in\n    tag_102:\n      swap3\n      pop\n      pop\n      dup2\n      swap1\n      sstore\n      pop\n        /* \"contracts/CZKC.sol\":1035:1037  to */\n      dup3\n        /* \"contracts/CZKC.sol\":1014:1046  Transfer(msg.sender, to, amount) */\n      0xffffffffffffffffffffffffffffffffffffffff\n      and\n        /* \"contracts/CZKC.sol\":1023:1033  msg.sender */\n      caller\n        /* \"contracts/CZKC.sol\":1014:1046  Transfer(msg.sender, to, amount) */\n      0xffffffffffffffffffffffffffffffffffffffff\n      and\n      0xddf252ad1be2c89b69c2b068fc378daa952ba7f163c4a11628f55a4df523b3ef\n        /* \"contracts/CZKC.sol\":1039:1045  amount */\n      dup5\n        /* \"contracts/CZKC.sol\":1014:1046  Transfer(msg.sender, to, amount) */\n      mload(0x40)\n      tag_103\n      swap2\n      swap1\n      tag_21\n      jump\t// in\n    tag_103:\n      mload(0x40)\n      dup1\n      swap2\n      sub\n      swap1\n      log3\n        /* \"contracts/CZKC.sol\":1063:1067  true */\n      0x01\n        /* \"contracts/CZKC.sol\":1056:1067  return true */\n      swap1\n      pop\n        /* \"contracts/CZKC.sol\":858:1074  function transfer(address to, uint amount) external returns (bool) {... */\n      swap3\n      swap2\n      pop\n      pop\n      jump\t// out\n        /* \"contracts/CZKC.sol\":722:852  function allowance(address owner, address spender) external view returns (uint){... */\n    tag_67:\n        /* \"contracts/CZKC.sol\":796:800  uint */\n      0x00\n        /* \"contracts/CZKC.sol\":818:829  _allowances */\n      0x05\n        /* \"contracts/CZKC.sol\":818:836  _allowances[owner] */\n      0x00\n        /* \"contracts/CZKC.sol\":830:835  owner */\n      dup5\n        /* \"contracts/CZKC.sol\":818:836  _allowances[owner] */\n      0xffffffffffffffffffffffffffffffffffffffff\n      and\n      0xffffffffffffffffffffffffffffffffffffffff\n      and\n      dup2\n      mstore\n      0x20\n      add\n      swap1\n      dup2\n      mstore\n      0x20\n      add\n      0x00\n      keccak256\n        /* \"contracts/CZKC.sol\":818:845  _allowances[owner][spender] */\n      0x00\n        /* \"contracts/CZKC.sol\":837:844  spender */\n      dup4\n        /* \"contracts/CZKC.sol\":818:845  _allowances[owner][spender] */\n      0xffffffffffffffffffffffffffffffffffffffff\n      and\n      0xffffffffffffffffffffffffffffffffffffffff\n      and\n      dup2\n      mstore\n      0x20\n      add\n      swap1\n      dup2\n      mstore\n      0x20\n      add\n      0x00\n      keccak256\n      sload\n        /* \"contracts/CZKC.sol\":811:845  return _allowances[owner][spender] */\n      swap1\n      pop\n        /* \"contracts/CZKC.sol\":722:852  function allowance(address owner, address spender) external view returns (uint){... */\n      swap3\n      swap2\n      pop\n      pop\n      jump\t// out\n        /* \"#utility.yul\":88:205   */\n    tag_106:\n        /* \"#utility.yul\":197:198   */\n      0x00\n        /* \"#utility.yul\":194:195   */\n      dup1\n        /* \"#utility.yul\":187:199   */\n      revert\n        /* \"#utility.yul\":334:460   */\n    tag_108:\n        /* \"#utility.yul\":371:378   */\n      0x00\n        /* \"#utility.yul\":411:453   */\n      0xffffffffffffffffffffffffffffffffffffffff\n        /* \"#utility.yul\":404:409   */\n      dup3\n        /* \"#utility.yul\":400:454   */\n      and\n        /* \"#utility.yul\":389:454   */\n      swap1\n      pop\n        /* \"#utility.yul\":334:460   */\n      swap2\n      swap1\n      pop\n      jump\t// out\n        /* \"#utility.yul\":466:562   */\n    tag_109:\n        /* \"#utility.yul\":503:510   */\n      0x00\n        /* \"#utility.yul\":532:556   */\n      tag_133\n        /* \"#utility.yul\":550:555   */\n      dup3\n        /* \"#utility.yul\":532:556   */\n      tag_108\n      jump\t// in\n    tag_133:\n        /* \"#utility.yul\":521:556   */\n      swap1\n      pop\n        /* \"#utility.yul\":466:562   */\n      swap2\n      swap1\n      pop\n      jump\t// out\n        /* \"#utility.yul\":568:690   */\n    tag_110:\n        /* \"#utility.yul\":641:665   */\n      tag_135\n        /* \"#utility.yul\":659:664   */\n      dup2\n        /* \"#utility.yul\":641:665   */\n      tag_109\n      jump\t// in\n    tag_135:\n        /* \"#utility.yul\":634:639   */\n      dup2\n        /* \"#utility.yul\":631:666   */\n      eq\n        /* \"#utility.yul\":621:684   */\n      tag_136\n      jumpi\n        /* \"#utility.yul\":680:681   */\n      0x00\n        /* \"#utility.yul\":677:678   */\n      dup1\n        /* \"#utility.yul\":670:682   */\n      revert\n        /* \"#utility.yul\":621:684   */\n    tag_136:\n        /* \"#utility.yul\":568:690   */\n      pop\n      jump\t// out\n        /* \"#utility.yul\":696:835   */\n    tag_111:\n        /* \"#utility.yul\":742:747   */\n      0x00\n        /* \"#utility.yul\":780:786   */\n      dup2\n        /* \"#utility.yul\":767:787   */\n      calldataload\n        /* \"#utility.yul\":758:787   */\n      swap1\n      pop\n        /* \"#utility.yul\":796:829   */\n      tag_138\n        /* \"#utility.yul\":823:828   */\n      dup2\n        /* \"#utility.yul\":796:829   */\n      tag_110\n      jump\t// in\n    tag_138:\n        /* \"#utility.yul\":696:835   */\n      swap3\n      swap2\n      pop\n      pop\n      jump\t// out\n        /* \"#utility.yul\":841:1315   */\n    tag_18:\n        /* \"#utility.yul\":909:915   */\n      0x00\n        /* \"#utility.yul\":917:923   */\n      dup1\n        /* \"#utility.yul\":966:968   */\n      0x40\n        /* \"#utility.yul\":954:963   */\n      dup4\n        /* \"#utility.yul\":945:952   */\n      dup6\n        /* \"#utility.yul\":941:964   */\n      sub\n        /* \"#utility.yul\":937:969   */\n      slt\n        /* \"#utility.yul\":934:1053   */\n      iszero\n      tag_140\n      jumpi\n        /* \"#utility.yul\":972:1051   */\n      tag_141\n      tag_106\n      jump\t// in\n    tag_141:\n        /* \"#utility.yul\":934:1053   */\n    tag_140:\n        /* \"#utility.yul\":1092:1093   */\n      0x00\n        /* \"#utility.yul\":1117:1170   */\n      tag_142\n        /* \"#utility.yul\":1162:1169   */\n      dup6\n        /* \"#utility.yul\":1153:1159   */\n      dup3\n        /* \"#utility.yul\":1142:1151   */\n      dup7\n        /* \"#utility.yul\":1138:1160   */\n      add\n        /* \"#utility.yul\":1117:1170   */\n      tag_111\n      jump\t// in\n    tag_142:\n        /* \"#utility.yul\":1107:1170   */\n      swap3\n      pop\n        /* \"#utility.yul\":1063:1180   */\n      pop\n        /* \"#utility.yul\":1219:1221   */\n      0x20\n        /* \"#utility.yul\":1245:1298   */\n      tag_143\n        /* \"#utility.yul\":1290:1297   */\n      dup6\n        /* \"#utility.yul\":1281:1287   */\n      dup3\n        /* \"#utility.yul\":1270:1279   */\n      dup7\n        /* \"#utility.yul\":1266:1288   */\n      add\n        /* \"#utility.yul\":1245:1298   */\n      tag_111\n      jump\t// in\n    tag_143:\n        /* \"#utility.yul\":1235:1298   */\n      swap2\n      pop\n        /* \"#utility.yul\":1190:1308   */\n      pop\n        /* \"#utility.yul\":841:1315   */\n      swap3\n      pop\n      swap3\n      swap1\n      pop\n      jump\t// out\n        /* \"#utility.yul\":1321:1398   */\n    tag_112:\n        /* \"#utility.yul\":1358:1365   */\n      0x00\n        /* \"#utility.yul\":1387:1392   */\n      dup2\n        /* \"#utility.yul\":1376:1392   */\n      swap1\n      pop\n        /* \"#utility.yul\":1321:1398   */\n      swap2\n      swap1\n      pop\n      jump\t// out\n        /* \"#utility.yul\":1404:1522   */\n    tag_113:\n        /* \"#utility.yul\":1491:1515   */\n      tag_146\n        /* \"#utility.yul\":1509:1514   */\n      dup2\n        /* \"#utility.yul\":1491:1515   */\n      tag_112\n      jump\t// in\n    tag_146:\n        /* \"#utility.yul\":1486:1489   */\n      dup3\n        /* \"#utility.yul\":1479:1516   */\n      mstore\n        /* \"#utility.yul\":1404:1522   */\n      pop\n      pop\n      jump\t// out\n        /* \"#utility.yul\":1528:1750   */\n    tag_21:\n        /* \"#utility.yul\":1621:1625   */\n      0x00\n        /* \"#utility.yul\":1659:1661   */\n      0x20\n        /* \"#utility.yul\":1648:1657   */\n      dup3\n        /* \"#utility.yul\":1644:1662   */\n      add\n        /* \"#utility.yul\":1636:1662   */\n      swap1\n      pop\n        /* \"#utility.yul\":1672:1743   */\n      tag_148\n        /* \"#utility.yul\":1740:1741   */\n      0x00\n        /* \"#utility.yul\":1729:1738   */\n      dup4\n        /* \"#utility.yul\":1725:1742   */\n      add\n        /* \"#utility.yul\":1716:1722   */\n      dup5\n        /* \"#utility.yul\":1672:1743   */\n      tag_113\n      jump\t// in\n    tag_148:\n        /* \"#utility.yul\":1528:1750   */\n      swap3\n      swap2\n      pop\n      pop\n      jump\t// out\n        /* \"#utility.yul\":1756:1855   */\n    tag_114:\n        /* \"#utility.yul\":1808:1814   */\n      0x00\n        /* \"#utility.yul\":1842:1847   */\n      dup2\n        /* \"#utility.yul\":1836:1848   */\n      mload\n        /* \"#utility.yul\":1826:1848   */\n      swap1\n      pop\n        /* \"#utility.yul\":1756:1855   */\n      swap2\n      swap1\n      pop\n      jump\t// out\n        /* \"#utility.yul\":1861:2030   */\n    tag_115:\n        /* \"#utility.yul\":1945:1956   */\n      0x00\n        /* \"#utility.yul\":1979:1985   */\n      dup3\n        /* \"#utility.yul\":1974:1977   */\n      dup3\n        /* \"#utility.yul\":1967:1986   */\n      mstore\n        /* \"#utility.yul\":2019:2023   */\n      0x20\n        /* \"#utility.yul\":2014:2017   */\n      dup3\n        /* \"#utility.yul\":2010:2024   */\n      add\n        /* \"#utility.yul\":1995:2024   */\n      swap1\n      pop\n        /* \"#utility.yul\":1861:2030   */\n      swap3\n      swap2\n      pop\n      pop\n      jump\t// out\n        /* \"#utility.yul\":2036:2282   */\n    tag_116:\n        /* \"#utility.yul\":2117:2118   */\n      0x00\n        /* \"#utility.yul\":2127:2240   */\n    tag_152:\n        /* \"#utility.yul\":2141:2147   */\n      dup4\n        /* \"#utility.yul\":2138:2139   */\n      dup2\n        /* \"#utility.yul\":2135:2148   */\n      lt\n        /* \"#utility.yul\":2127:2240   */\n      iszero\n      tag_154\n      jumpi\n        /* \"#utility.yul\":2226:2227   */\n      dup1\n        /* \"#utility.yul\":2221:2224   */\n      dup3\n        /* \"#utility.yul\":2217:2228   */\n      add\n        /* \"#utility.yul\":2211:2229   */\n      mload\n        /* \"#utility.yul\":2207:2208   */\n      dup2\n        /* \"#utility.yul\":2202:2205   */\n      dup5\n        /* \"#utility.yul\":2198:2209   */\n      add\n        /* \"#utility.yul\":2191:2230   */\n      mstore\n        /* \"#utility.yul\":2163:2165   */\n      0x20\n        /* \"#utility.yul\":2160:2161   */\n      dup2\n        /* \"#utility.yul\":2156:2166   */\n      add\n        /* \"#utility.yul\":2151:2166   */\n      swap1\n      pop\n        /* \"#utility.yul\":2127:2240   */\n      jump(tag_152)\n    tag_154:\n        /* \"#utility.yul\":2274:2275   */\n      0x00\n        /* \"#utility.yul\":2265:2271   */\n      dup5\n        /* \"#utility.yul\":2260:2263   */\n      dup5\n        /* \"#utility.yul\":2256:2272   */\n      add\n        /* \"#utility.yul\":2249:2276   */\n      mstore\n        /* \"#utility.yul\":2098:2282   */\n      pop\n        /* \"#utility.yul\":2036:2282   */\n      pop\n      pop\n      pop\n      jump\t// out\n        /* \"#utility.yul\":2288:2390   */\n    tag_117:\n        /* \"#utility.yul\":2329:2335   */\n      0x00\n        /* \"#utility.yul\":2380:2382   */\n      0x1f\n        /* \"#utility.yul\":2376:2383   */\n      not\n        /* \"#utility.yul\":2371:2373   */\n      0x1f\n        /* \"#utility.yul\":2364:2369   */\n      dup4\n        /* \"#utility.yul\":2360:2374   */\n      add\n        /* \"#utility.yul\":2356:2384   */\n      and\n        /* \"#utility.yul\":2346:2384   */\n      swap1\n      pop\n        /* \"#utility.yul\":2288:2390   */\n      swap2\n      swap1\n      pop\n      jump\t// out\n        /* \"#utility.yul\":2396:2773   */\n    tag_118:\n        /* \"#utility.yul\":2484:2487   */\n      0x00\n        /* \"#utility.yul\":2512:2551   */\n      tag_157\n        /* \"#utility.yul\":2545:2550   */\n      dup3\n        /* \"#utility.yul\":2512:2551   */\n      tag_114\n      jump\t// in\n    tag_157:\n        /* \"#utility.yul\":2567:2638   */\n      tag_158\n        /* \"#utility.yul\":2631:2637   */\n      dup2\n        /* \"#utility.yul\":2626:2629   */\n      dup6\n        /* \"#utility.yul\":2567:2638   */\n      tag_115\n      jump\t// in\n    tag_158:\n        /* \"#utility.yul\":2560:2638   */\n      swap4\n      pop\n        /* \"#utility.yul\":2647:2712   */\n      tag_159\n        /* \"#utility.yul\":2705:2711   */\n      dup2\n        /* \"#utility.yul\":2700:2703   */\n      dup6\n        /* \"#utility.yul\":2693:2697   */\n      0x20\n        /* \"#utility.yul\":2686:2691   */\n      dup7\n        /* \"#utility.yul\":2682:2698   */\n      add\n        /* \"#utility.yul\":2647:2712   */\n      tag_116\n      jump\t// in\n    tag_159:\n        /* \"#utility.yul\":2737:2766   */\n      tag_160\n        /* \"#utility.yul\":2759:2765   */\n      dup2\n        /* \"#utility.yul\":2737:2766   */\n      tag_117\n      jump\t// in\n    tag_160:\n        /* \"#utility.yul\":2732:2735   */\n      dup5\n        /* \"#utility.yul\":2728:2767   */\n      add\n        /* \"#utility.yul\":2721:2767   */\n      swap2\n      pop\n        /* \"#utility.yul\":2488:2773   */\n      pop\n        /* \"#utility.yul\":2396:2773   */\n      swap3\n      swap2\n      pop\n      pop\n      jump\t// out\n        /* \"#utility.yul\":2779:3092   */\n    tag_25:\n        /* \"#utility.yul\":2892:2896   */\n      0x00\n        /* \"#utility.yul\":2930:2932   */\n      0x20\n        /* \"#utility.yul\":2919:2928   */\n      dup3\n        /* \"#utility.yul\":2915:2933   */\n      add\n        /* \"#utility.yul\":2907:2933   */\n      swap1\n      pop\n        /* \"#utility.yul\":2979:2988   */\n      dup2\n        /* \"#utility.yul\":2973:2977   */\n      dup2\n        /* \"#utility.yul\":2969:2989   */\n      sub\n        /* \"#utility.yul\":2965:2966   */\n      0x00\n        /* \"#utility.yul\":2954:2963   */\n      dup4\n        /* \"#utility.yul\":2950:2967   */\n      add\n        /* \"#utility.yul\":2943:2990   */\n      mstore\n        /* \"#utility.yul\":3007:3085   */\n      tag_162\n        /* \"#utility.yul\":3080:3084   */\n      dup2\n        /* \"#utility.yul\":3071:3077   */\n      dup5\n        /* \"#utility.yul\":3007:3085   */\n      tag_118\n      jump\t// in\n    tag_162:\n        /* \"#utility.yul\":2999:3085   */\n      swap1\n      pop\n        /* \"#utility.yul\":2779:3092   */\n      swap3\n      swap2\n      pop\n      pop\n      jump\t// out\n        /* \"#utility.yul\":3098:3220   */\n    tag_119:\n        /* \"#utility.yul\":3171:3195   */\n      tag_164\n        /* \"#utility.yul\":3189:3194   */\n      dup2\n        /* \"#utility.yul\":3171:3195   */\n      tag_112\n      jump\t// in\n    tag_164:\n        /* \"#utility.yul\":3164:3169   */\n      dup2\n        /* \"#utility.yul\":3161:3196   */\n      eq\n        /* \"#utility.yul\":3151:3214   */\n      tag_165\n      jumpi\n        /* \"#utility.yul\":3210:3211   */\n      0x00\n        /* \"#utility.yul\":3207:3208   */\n      dup1\n        /* \"#utility.yul\":3200:3212   */\n      revert\n        /* \"#utility.yul\":3151:3214   */\n    tag_165:\n        /* \"#utility.yul\":3098:3220   */\n      pop\n      jump\t// out\n        /* \"#utility.yul\":3226:3365   */\n    tag_120:\n        /* \"#utility.yul\":3272:3277   */\n      0x00\n        /* \"#utility.yul\":3310:3316   */\n      dup2\n        /* \"#utility.yul\":3297:3317   */\n      calldataload\n        /* \"#utility.yul\":3288:3317   */\n      swap1\n      pop\n        /* \"#utility.yul\":3326:3359   */\n      tag_167\n        /* \"#utility.yul\":3353:3358   */\n      dup2\n        /* \"#utility.yul\":3326:3359   */\n      tag_119\n      jump\t// in\n    tag_167:\n        /* \"#utility.yul\":3226:3365   */\n      swap3\n      swap2\n      pop\n      pop\n      jump\t// out\n        /* \"#utility.yul\":3371:3845   */\n    tag_28:\n        /* \"#utility.yul\":3439:3445   */\n      0x00\n        /* \"#utility.yul\":3447:3453   */\n      dup1\n        /* \"#utility.yul\":3496:3498   */\n      0x40\n        /* \"#utility.yul\":3484:3493   */\n      dup4\n        /* \"#utility.yul\":3475:3482   */\n      dup6\n        /* \"#utility.yul\":3471:3494   */\n      sub\n        /* \"#utility.yul\":3467:3499   */\n      slt\n        /* \"#utility.yul\":3464:3583   */\n      iszero\n      tag_169\n      jumpi\n        /* \"#utility.yul\":3502:3581   */\n      tag_170\n      tag_106\n      jump\t// in\n    tag_170:\n        /* \"#utility.yul\":3464:3583   */\n    tag_169:\n        /* \"#utility.yul\":3622:3623   */\n      0x00\n        /* \"#utility.yul\":3647:3700   */\n      tag_171\n        /* \"#utility.yul\":3692:3699   */\n      dup6\n        /* \"#utility.yul\":3683:3689   */\n      dup3\n        /* \"#utility.yul\":3672:3681   */\n      dup7\n        /* \"#utility.yul\":3668:3690   */\n      add\n        /* \"#utility.yul\":3647:3700   */\n      tag_111\n      jump\t// in\n    tag_171:\n        /* \"#utility.yul\":3637:3700   */\n      swap3\n      pop\n        /* \"#utility.yul\":3593:3710   */\n      pop\n        /* \"#utility.yul\":3749:3751   */\n      0x20\n        /* \"#utility.yul\":3775:3828   */\n      tag_172\n        /* \"#utility.yul\":3820:3827   */\n      dup6\n        /* \"#utility.yul\":3811:3817   */\n      dup3\n        /* \"#utility.yul\":3800:3809   */\n      dup7\n        /* \"#utility.yul\":3796:3818   */\n      add\n        /* \"#utility.yul\":3775:3828   */\n      tag_120\n      jump\t// in\n    tag_172:\n        /* \"#utility.yul\":3765:3828   */\n      swap2\n      pop\n        /* \"#utility.yul\":3720:3838   */\n      pop\n        /* \"#utility.yul\":3371:3845   */\n      swap3\n      pop\n      swap3\n      swap1\n      pop\n      jump\t// out\n        /* \"#utility.yul\":3851:3941   */\n    tag_121:\n        /* \"#utility.yul\":3885:3892   */\n      0x00\n        /* \"#utility.yul\":3928:3933   */\n      dup2\n        /* \"#utility.yul\":3921:3934   */\n      iszero\n        /* \"#utility.yul\":3914:3935   */\n      iszero\n        /* \"#utility.yul\":3903:3935   */\n      swap1\n      pop\n        /* \"#utility.yul\":3851:3941   */\n      swap2\n      swap1\n      pop\n      jump\t// out\n        /* \"#utility.yul\":3947:4056   */\n    tag_122:\n        /* \"#utility.yul\":4028:4049   */\n      tag_175\n        /* \"#utility.yul\":4043:4048   */\n      dup2\n        /* \"#utility.yul\":4028:4049   */\n      tag_121\n      jump\t// in\n    tag_175:\n        /* \"#utility.yul\":4023:4026   */\n      dup3\n        /* \"#utility.yul\":4016:4050   */\n      mstore\n        /* \"#utility.yul\":3947:4056   */\n      pop\n      pop\n      jump\t// out\n        /* \"#utility.yul\":4062:4272   */\n    tag_31:\n        /* \"#utility.yul\":4149:4153   */\n      0x00\n        /* \"#utility.yul\":4187:4189   */\n      0x20\n        /* \"#utility.yul\":4176:4185   */\n      dup3\n        /* \"#utility.yul\":4172:4190   */\n      add\n        /* \"#utility.yul\":4164:4190   */\n      swap1\n      pop\n        /* \"#utility.yul\":4200:4265   */\n      tag_177\n        /* \"#utility.yul\":4262:4263   */\n      0x00\n        /* \"#utility.yul\":4251:4260   */\n      dup4\n        /* \"#utility.yul\":4247:4264   */\n      add\n        /* \"#utility.yul\":4238:4244   */\n      dup5\n        /* \"#utility.yul\":4200:4265   */\n      tag_122\n      jump\t// in\n    tag_177:\n        /* \"#utility.yul\":4062:4272   */\n      swap3\n      swap2\n      pop\n      pop\n      jump\t// out\n        /* \"#utility.yul\":4278:4897   */\n    tag_37:\n        /* \"#utility.yul\":4355:4361   */\n      0x00\n        /* \"#utility.yul\":4363:4369   */\n      dup1\n        /* \"#utility.yul\":4371:4377   */\n      0x00\n        /* \"#utility.yul\":4420:4422   */\n      0x60\n        /* \"#utility.yul\":4408:4417   */\n      dup5\n        /* \"#utility.yul\":4399:4406   */\n      dup7\n        /* \"#utility.yul\":4395:4418   */\n      sub\n        /* \"#utility.yul\":4391:4423   */\n      slt\n        /* \"#utility.yul\":4388:4507   */\n      iszero\n      tag_179\n      jumpi\n        /* \"#utility.yul\":4426:4505   */\n      tag_180\n      tag_106\n      jump\t// in\n    tag_180:\n        /* \"#utility.yul\":4388:4507   */\n    tag_179:\n        /* \"#utility.yul\":4546:4547   */\n      0x00\n        /* \"#utility.yul\":4571:4624   */\n      tag_181\n        /* \"#utility.yul\":4616:4623   */\n      dup7\n        /* \"#utility.yul\":4607:4613   */\n      dup3\n        /* \"#utility.yul\":4596:4605   */\n      dup8\n        /* \"#utility.yul\":4592:4614   */\n      add\n        /* \"#utility.yul\":4571:4624   */\n      tag_111\n      jump\t// in\n    tag_181:\n        /* \"#utility.yul\":4561:4624   */\n      swap4\n      pop\n        /* \"#utility.yul\":4517:4634   */\n      pop\n        /* \"#utility.yul\":4673:4675   */\n      0x20\n        /* \"#utility.yul\":4699:4752   */\n      tag_182\n        /* \"#utility.yul\":4744:4751   */\n      dup7\n        /* \"#utility.yul\":4735:4741   */\n      dup3\n        /* \"#utility.yul\":4724:4733   */\n      dup8\n        /* \"#utility.yul\":4720:4742   */\n      add\n        /* \"#utility.yul\":4699:4752   */\n      tag_111\n      jump\t// in\n    tag_182:\n        /* \"#utility.yul\":4689:4752   */\n      swap3\n      pop\n        /* \"#utility.yul\":4644:4762   */\n      pop\n        /* \"#utility.yul\":4801:4803   */\n      0x40\n        /* \"#utility.yul\":4827:4880   */\n      tag_183\n        /* \"#utility.yul\":4872:4879   */\n      dup7\n        /* \"#utility.yul\":4863:4869   */\n      dup3\n        /* \"#utility.yul\":4852:4861   */\n      dup8\n        /* \"#utility.yul\":4848:4870   */\n      add\n        /* \"#utility.yul\":4827:4880   */\n      tag_120\n      jump\t// in\n    tag_183:\n        /* \"#utility.yul\":4817:4880   */\n      swap2\n      pop\n        /* \"#utility.yul\":4772:4890   */\n      pop\n        /* \"#utility.yul\":4278:4897   */\n      swap3\n      pop\n      swap3\n      pop\n      swap3\n      jump\t// out\n        /* \"#utility.yul\":4903:4989   */\n    tag_123:\n        /* \"#utility.yul\":4938:4945   */\n      0x00\n        /* \"#utility.yul\":4978:4982   */\n      0xff\n        /* \"#utility.yul\":4971:4976   */\n      dup3\n        /* \"#utility.yul\":4967:4983   */\n      and\n        /* \"#utility.yul\":4956:4983   */\n      swap1\n      pop\n        /* \"#utility.yul\":4903:4989   */\n      swap2\n      swap1\n      pop\n      jump\t// out\n        /* \"#utility.yul\":4995:5107   */\n    tag_124:\n        /* \"#utility.yul\":5078:5100   */\n      tag_186\n        /* \"#utility.yul\":5094:5099   */\n      dup2\n        /* \"#utility.yul\":5078:5100   */\n      tag_123\n      jump\t// in\n    tag_186:\n        /* \"#utility.yul\":5073:5076   */\n      dup3\n        /* \"#utility.yul\":5066:5101   */\n      mstore\n        /* \"#utility.yul\":4995:5107   */\n      pop\n      pop\n      jump\t// out\n        /* \"#utility.yul\":5113:5327   */\n    tag_43:\n        /* \"#utility.yul\":5202:5206   */\n      0x00\n        /* \"#utility.yul\":5240:5242   */\n      0x20\n        /* \"#utility.yul\":5229:5238   */\n      dup3\n        /* \"#utility.yul\":5225:5243   */\n      add\n        /* \"#utility.yul\":5217:5243   */\n      swap1\n      pop\n        /* \"#utility.yul\":5253:5320   */\n      tag_188\n        /* \"#utility.yul\":5317:5318   */\n      0x00\n        /* \"#utility.yul\":5306:5315   */\n      dup4\n        /* \"#utility.yul\":5302:5319   */\n      add\n        /* \"#utility.yul\":5293:5299   */\n      dup5\n        /* \"#utility.yul\":5253:5320   */\n      tag_124\n      jump\t// in\n    tag_188:\n        /* \"#utility.yul\":5113:5327   */\n      swap3\n      swap2\n      pop\n      pop\n      jump\t// out\n        /* \"#utility.yul\":5333:5662   */\n    tag_50:\n        /* \"#utility.yul\":5392:5398   */\n      0x00\n        /* \"#utility.yul\":5441:5443   */\n      0x20\n        /* \"#utility.yul\":5429:5438   */\n      dup3\n        /* \"#utility.yul\":5420:5427   */\n      dup5\n        /* \"#utility.yul\":5416:5439   */\n      sub\n        /* \"#utility.yul\":5412:5444   */\n      slt\n        /* \"#utility.yul\":5409:5528   */\n      iszero\n      tag_190\n      jumpi\n        /* \"#utility.yul\":5447:5526   */\n      tag_191\n      tag_106\n      jump\t// in\n    tag_191:\n        /* \"#utility.yul\":5409:5528   */\n    tag_190:\n        /* \"#utility.yul\":5567:5568   */\n      0x00\n        /* \"#utility.yul\":5592:5645   */\n      tag_192\n        /* \"#utility.yul\":5637:5644   */\n      dup5\n        /* \"#utility.yul\":5628:5634   */\n      dup3\n        /* \"#utility.yul\":5617:5626   */\n      dup6\n        /* \"#utility.yul\":5613:5635   */\n      add\n        /* \"#utility.yul\":5592:5645   */\n      tag_120\n      jump\t// in\n    tag_192:\n        /* \"#utility.yul\":5582:5645   */\n      swap2\n      pop\n        /* \"#utility.yul\":5538:5655   */\n      pop\n        /* \"#utility.yul\":5333:5662   */\n      swap3\n      swap2\n      pop\n      pop\n      jump\t// out\n        /* \"#utility.yul\":5668:5997   */\n    tag_55:\n        /* \"#utility.yul\":5727:5733   */\n      0x00\n        /* \"#utility.yul\":5776:5778   */\n      0x20\n        /* \"#utility.yul\":5764:5773   */\n      dup3\n        /* \"#utility.yul\":5755:5762   */\n      dup5\n        /* \"#utility.yul\":5751:5774   */\n      sub\n        /* \"#utility.yul\":5747:5779   */\n      slt\n        /* \"#utility.yul\":5744:5863   */\n      iszero\n      tag_194\n      jumpi\n        /* \"#utility.yul\":5782:5861   */\n      tag_195\n      tag_106\n      jump\t// in\n    tag_195:\n        /* \"#utility.yul\":5744:5863   */\n    tag_194:\n        /* \"#utility.yul\":5902:5903   */\n      0x00\n        /* \"#utility.yul\":5927:5980   */\n      tag_196\n        /* \"#utility.yul\":5972:5979   */\n      dup5\n        /* \"#utility.yul\":5963:5969   */\n      dup3\n        /* \"#utility.yul\":5952:5961   */\n      dup6\n        /* \"#utility.yul\":5948:5970   */\n      add\n        /* \"#utility.yul\":5927:5980   */\n      tag_111\n      jump\t// in\n    tag_196:\n        /* \"#utility.yul\":5917:5980   */\n      swap2\n      pop\n        /* \"#utility.yul\":5873:5990   */\n      pop\n        /* \"#utility.yul\":5668:5997   */\n      swap3\n      swap2\n      pop\n      pop\n      jump\t// out\n        /* \"#utility.yul\":6003:6183   */\n    tag_125:\n        /* \"#utility.yul\":6051:6128   */\n      0x4e487b7100000000000000000000000000000000000000000000000000000000\n        /* \"#utility.yul\":6048:6049   */\n      0x00\n        /* \"#utility.yul\":6041:6129   */\n      mstore\n        /* \"#utility.yul\":6148:6152   */\n      0x22\n        /* \"#utility.yul\":6145:6146   */\n      0x04\n        /* \"#utility.yul\":6138:6153   */\n      mstore\n        /* \"#utility.yul\":6172:6176   */\n      0x24\n        /* \"#utility.yul\":6169:6170   */\n      0x00\n        /* \"#utility.yul\":6162:6177   */\n      revert\n        /* \"#utility.yul\":6189:6509   */\n    tag_71:\n        /* \"#utility.yul\":6233:6239   */\n      0x00\n        /* \"#utility.yul\":6270:6271   */\n      0x02\n        /* \"#utility.yul\":6264:6268   */\n      dup3\n        /* \"#utility.yul\":6260:6272   */\n      div\n        /* \"#utility.yul\":6250:6272   */\n      swap1\n      pop\n        /* \"#utility.yul\":6317:6318   */\n      0x01\n        /* \"#utility.yul\":6311:6315   */\n      dup3\n        /* \"#utility.yul\":6307:6319   */\n      and\n        /* \"#utility.yul\":6338:6356   */\n      dup1\n        /* \"#utility.yul\":6328:6409   */\n      tag_199\n      jumpi\n        /* \"#utility.yul\":6394:6398   */\n      0x7f\n        /* \"#utility.yul\":6386:6392   */\n      dup3\n        /* \"#utility.yul\":6382:6399   */\n      and\n        /* \"#utility.yul\":6372:6399   */\n      swap2\n      pop\n        /* \"#utility.yul\":6328:6409   */\n    tag_199:\n        /* \"#utility.yul\":6456:6458   */\n      0x20\n        /* \"#utility.yul\":6448:6454   */\n      dup3\n        /* \"#utility.yul\":6445:6459   */\n      lt\n        /* \"#utility.yul\":6425:6443   */\n      dup2\n        /* \"#utility.yul\":6422:6460   */\n      sub\n        /* \"#utility.yul\":6419:6503   */\n      tag_200\n      jumpi\n        /* \"#utility.yul\":6475:6493   */\n      tag_201\n      tag_125\n      jump\t// in\n    tag_201:\n        /* \"#utility.yul\":6419:6503   */\n    tag_200:\n        /* \"#utility.yul\":6240:6509   */\n      pop\n        /* \"#utility.yul\":6189:6509   */\n      swap2\n      swap1\n      pop\n      jump\t// out\n        /* \"#utility.yul\":6515:6695   */\n    tag_126:\n        /* \"#utility.yul\":6563:6640   */\n      0x4e487b7100000000000000000000000000000000000000000000000000000000\n        /* \"#utility.yul\":6560:6561   */\n      0x00\n        /* \"#utility.yul\":6553:6641   */\n      mstore\n        /* \"#utility.yul\":6660:6664   */\n      0x11\n        /* \"#utility.yul\":6657:6658   */\n      0x04\n        /* \"#utility.yul\":6650:6665   */\n      mstore\n        /* \"#utility.yul\":6684:6688   */\n      0x24\n        /* \"#utility.yul\":6681:6682   */\n      0x00\n        /* \"#utility.yul\":6674:6689   */\n      revert\n        /* \"#utility.yul\":6701:6895   */\n    tag_80:\n        /* \"#utility.yul\":6741:6745   */\n      0x00\n        /* \"#utility.yul\":6761:6781   */\n      tag_204\n        /* \"#utility.yul\":6779:6780   */\n      dup3\n        /* \"#utility.yul\":6761:6781   */\n      tag_112\n      jump\t// in\n    tag_204:\n        /* \"#utility.yul\":6756:6781   */\n      swap2\n      pop\n        /* \"#utility.yul\":6795:6815   */\n      tag_205\n        /* \"#utility.yul\":6813:6814   */\n      dup4\n        /* \"#utility.yul\":6795:6815   */\n      tag_112\n      jump\t// in\n    tag_205:\n        /* \"#utility.yul\":6790:6815   */\n      swap3\n      pop\n        /* \"#utility.yul\":6839:6840   */\n      dup3\n        /* \"#utility.yul\":6836:6837   */\n      dup3\n        /* \"#utility.yul\":6832:6841   */\n      sub\n        /* \"#utility.yul\":6824:6841   */\n      swap1\n      pop\n        /* \"#utility.yul\":6863:6864   */\n      dup2\n        /* \"#utility.yul\":6857:6861   */\n      dup2\n        /* \"#utility.yul\":6854:6865   */\n      gt\n        /* \"#utility.yul\":6851:6888   */\n      iszero\n      tag_206\n      jumpi\n        /* \"#utility.yul\":6868:6886   */\n      tag_207\n      tag_126\n      jump\t// in\n    tag_207:\n        /* \"#utility.yul\":6851:6888   */\n    tag_206:\n        /* \"#utility.yul\":6701:6895   */\n      swap3\n      swap2\n      pop\n      pop\n      jump\t// out\n        /* \"#utility.yul\":6901:7092   */\n    tag_83:\n        /* \"#utility.yul\":6941:6944   */\n      0x00\n        /* \"#utility.yul\":6960:6980   */\n      tag_209\n        /* \"#utility.yul\":6978:6979   */\n      dup3\n        /* \"#utility.yul\":6960:6980   */\n      tag_112\n      jump\t// in\n    tag_209:\n        /* \"#utility.yul\":6955:6980   */\n      swap2\n      pop\n        /* \"#utility.yul\":6994:7014   */\n      tag_210\n        /* \"#utility.yul\":7012:7013   */\n      dup4\n        /* \"#utility.yul\":6994:7014   */\n      tag_112\n      jump\t// in\n    tag_210:\n        /* \"#utility.yul\":6989:7014   */\n      swap3\n      pop\n        /* \"#utility.yul\":7037:7038   */\n      dup3\n        /* \"#utility.yul\":7034:7035   */\n      dup3\n        /* \"#utility.yul\":7030:7039   */\n      add\n        /* \"#utility.yul\":7023:7039   */\n      swap1\n      pop\n        /* \"#utility.yul\":7058:7061   */\n      dup1\n        /* \"#utility.yul\":7055:7056   */\n      dup3\n        /* \"#utility.yul\":7052:7062   */\n      gt\n        /* \"#utility.yul\":7049:7085   */\n      iszero\n      tag_211\n      jumpi\n        /* \"#utility.yul\":7065:7083   */\n      tag_212\n      tag_126\n      jump\t// in\n    tag_212:\n        /* \"#utility.yul\":7049:7085   */\n    tag_211:\n        /* \"#utility.yul\":6901:7092   */\n      swap3\n      swap2\n      pop\n      pop\n      jump\t// out\n\n    auxdata: 0xa26469706673582212202f85c5e1773f2d4bccbc834c6d67021b5538375968f326b62d46df6bc98d21d164736f6c63430008110033\n}\n",
				"bytecode": {
					"linkReferences": {},
					"object": "60806040523480156200001157600080fd5b506040518060400160405280600881526020017f435a4b20436f696e000000000000000000000000000000000000000000000000815250600090816200005891906200033c565b506040518060400160405280600481526020017f435a4b4300000000000000000000000000000000000000000000000000000000815250600190816200009f91906200033c565b506012600260006101000a81548160ff021916908360ff16021790555062000423565b600081519050919050565b7f4e487b7100000000000000000000000000000000000000000000000000000000600052604160045260246000fd5b7f4e487b7100000000000000000000000000000000000000000000000000000000600052602260045260246000fd5b600060028204905060018216806200014457607f821691505b6020821081036200015a5762000159620000fc565b5b50919050565b60008190508160005260206000209050919050565b60006020601f8301049050919050565b600082821b905092915050565b600060088302620001c47fffffffffffffffffffffffffffffffffffffffffffffffffffffffffffffffff8262000185565b620001d0868362000185565b95508019841693508086168417925050509392505050565b6000819050919050565b6000819050919050565b60006200021d620002176200021184620001e8565b620001f2565b620001e8565b9050919050565b6000819050919050565b6200023983620001fc565b62000251620002488262000224565b84845462000192565b825550505050565b600090565b6200026862000259565b620002758184846200022e565b505050565b5b818110156200029d57620002916000826200025e565b6001810190506200027b565b5050565b601f821115620002ec57620002b68162000160565b620002c18462000175565b81016020851015620002d1578190505b620002e9620002e08562000175565b8301826200027a565b50505b505050565b600082821c905092915050565b60006200031160001984600802620002f1565b1980831691505092915050565b60006200032c8383620002fe565b9150826002028217905092915050565b6200034782620000c2565b67ffffffffffffffff811115620003635762000362620000cd565b5b6200036f82546200012b565b6200037c828285620002a1565b600060209050601f831160018114620003b457600084156200039f578287015190505b620003ab85826200031e565b8655506200041b565b601f198416620003c48662000160565b60005b82811015620003ee57848901518255600182019150602085019450602081019050620003c7565b868310156200040e57848901516200040a601f891682620002fe565b8355505b6001600288020188555050505b505050505050565b610e7380620004336000396000f3fe608060405234801561001057600080fd5b50600436106100b45760003560e01c806340c10f191161007157806340c10f19146101a357806342966c68146101d357806370a082311461020357806395d89b4114610233578063a9059cbb14610251578063dd62ed3e14610281576100b4565b8063024c2ddd146100b957806306fdde03146100e9578063095ea7b31461010757806318160ddd1461013757806323b872dd14610155578063313ce56714610185575b600080fd5b6100d360048036038101906100ce9190610a9a565b6102b1565b6040516100e09190610af3565b60405180910390f35b6100f16102d6565b6040516100fe9190610b9e565b60405180910390f35b610121600480360381019061011c9190610bec565b610368565b60405161012e9190610c47565b60405180910390f35b61013f61045a565b60405161014c9190610af3565b60405180910390f35b61016f600480360381019061016a9190610c62565b610460565b60405161017c9190610c47565b60405180910390f35b61018d610611565b60405161019a9190610cd1565b60405180910390f35b6101bd60048036038101906101b89190610bec565b610628565b6040516101ca9190610c47565b60405180910390f35b6101ed60048036038101906101e89190610cec565b610709565b6040516101fa9190610c47565b60405180910390f35b61021d60048036038101906102189190610d19565b6107e9565b60405161022a9190610af3565b60405180910390f35b61023b610801565b6040516102489190610b9e565b60405180910390f35b61026b60048036038101906102669190610bec565b610893565b6040516102789190610c47565b60405180910390f35b61029b60048036038101906102969190610a9a565b6109b0565b6040516102a89190610af3565b60405180910390f35b6005602052816000526040600020602052806000526040600020600091509150505481565b6060600080546102e590610d75565b80601f016020809104026020016040519081016040528092919081815260200182805461031190610d75565b801561035e5780601f106103335761010080835404028352916020019161035e565b820191906000526020600020905b81548152906001019060200180831161034157829003601f168201915b5050505050905090565b600081600560003373ffffffffffffffffffffffffffffffffffffffff1673ffffffffffffffffffffffffffffffffffffffff16815260200190815260200160002060008573ffffffffffffffffffffffffffffffffffffffff1673ffffffffffffffffffffffffffffffffffffffff168152602001908152602001600020819055508273ffffffffffffffffffffffffffffffffffffffff163373ffffffffffffffffffffffffffffffffffffffff167f8c5be1e5ebec7d5bd14f71427d1e84f3dd0314c0f7b2291e5b200ac8c7c3b925846040516104489190610af3565b60405180910390a36001905092915050565b60035481565b600081600560008673ffffffffffffffffffffffffffffffffffffffff1673ffffffffffffffffffffffffffffffffffffffff16815260200190815260200160002060003373ffffffffffffffffffffffffffffffffffffffff1673ffffffffffffffffffffffffffffffffffffffff16815260200190815260200160002060008282546104ee9190610dd5565b9250508190555081600460008673ffffffffffffffffffffffffffffffffffffffff1673ffffffffffffffffffffffffffffffffffffffff16815260200190815260200160002060008282546105449190610dd5565b9250508190555081600460008573ffffffffffffffffffffffffffffffffffffffff1673ffffffffffffffffffffffffffffffffffffffff168152602001908152602001600020600082825461059a9190610e09565b925050819055508273ffffffffffffffffffffffffffffffffffffffff168473ffffffffffffffffffffffffffffffffffffffff167fddf252ad1be2c89b69c2b068fc378daa952ba7f163c4a11628f55a4df523b3ef846040516105fe9190610af3565b60405180910390a3600190509392505050565b6000600260009054906101000a900460ff16905090565b6000816003600082825461063c9190610e09565b9250508190555081600460008573ffffffffffffffffffffffffffffffffffffffff1673ffffffffffffffffffffffffffffffffffffffff16815260200190815260200160002060008282546106929190610e09565b925050819055508273ffffffffffffffffffffffffffffffffffffffff16600073ffffffffffffffffffffffffffffffffffffffff167fddf252ad1be2c89b69c2b068fc378daa952ba7f163c4a11628f55a4df523b3ef846040516106f79190610af3565b60405180910390a36001905092915050565b6000816003600082825461071d9190610dd5565b9250508190555081600460003373ffffffffffffffffffffffffffffffffffffffff1673ffffffffffffffffffffffffffffffffffffffff16815260200190815260200160002060008282546107739190610dd5565b92505081905550600073ffffffffffffffffffffffffffffffffffffffff163373ffffffffffffffffffffffffffffffffffffffff167fddf252ad1be2c89b69c2b068fc378daa952ba7f163c4a11628f55a4df523b3ef846040516107d89190610af3565b60405180910390a360019050919050565b60046020528060005260406000206000915090505481565b60606001805461081090610d75565b80601f016020809104026020016040519081016040528092919081815260200182805461083c90610d75565b80156108895780601f1061085e57610100808354040283529160200191610889565b820191906000526020600020905b81548152906001019060200180831161086c57829003601f168201915b5050505050905090565b600081600460003373ffffffffffffffffffffffffffffffffffffffff1673ffffffffffffffffffffffffffffffffffffffff16815260200190815260200160002060008282546108e49190610dd5565b9250508190555081600460008573ffffffffffffffffffffffffffffffffffffffff1673ffffffffffffffffffffffffffffffffffffffff168152602001908152602001600020600082825461093a9190610e09565b925050819055508273ffffffffffffffffffffffffffffffffffffffff163373ffffffffffffffffffffffffffffffffffffffff167fddf252ad1be2c89b69c2b068fc378daa952ba7f163c4a11628f55a4df523b3ef8460405161099e9190610af3565b60405180910390a36001905092915050565b6000600560008473ffffffffffffffffffffffffffffffffffffffff1673ffffffffffffffffffffffffffffffffffffffff16815260200190815260200160002060008373ffffffffffffffffffffffffffffffffffffffff1673ffffffffffffffffffffffffffffffffffffffff16815260200190815260200160002054905092915050565b600080fd5b600073ffffffffffffffffffffffffffffffffffffffff82169050919050565b6000610a6782610a3c565b9050919050565b610a7781610a5c565b8114610a8257600080fd5b50565b600081359050610a9481610a6e565b92915050565b60008060408385031215610ab157610ab0610a37565b5b6000610abf85828601610a85565b9250506020610ad085828601610a85565b9150509250929050565b6000819050919050565b610aed81610ada565b82525050565b6000602082019050610b086000830184610ae4565b92915050565b600081519050919050565b600082825260208201905092915050565b60005b83811015610b48578082015181840152602081019050610b2d565b60008484015250505050565b6000601f19601f8301169050919050565b6000610b7082610b0e565b610b7a8185610b19565b9350610b8a818560208601610b2a565b610b9381610b54565b840191505092915050565b60006020820190508181036000830152610bb88184610b65565b905092915050565b610bc981610ada565b8114610bd457600080fd5b50565b600081359050610be681610bc0565b92915050565b60008060408385031215610c0357610c02610a37565b5b6000610c1185828601610a85565b9250506020610c2285828601610bd7565b9150509250929050565b60008115159050919050565b610c4181610c2c565b82525050565b6000602082019050610c5c6000830184610c38565b92915050565b600080600060608486031215610c7b57610c7a610a37565b5b6000610c8986828701610a85565b9350506020610c9a86828701610a85565b9250506040610cab86828701610bd7565b9150509250925092565b600060ff82169050919050565b610ccb81610cb5565b82525050565b6000602082019050610ce66000830184610cc2565b92915050565b600060208284031215610d0257610d01610a37565b5b6000610d1084828501610bd7565b91505092915050565b600060208284031215610d2f57610d2e610a37565b5b6000610d3d84828501610a85565b91505092915050565b7f4e487b7100000000000000000000000000000000000000000000000000000000600052602260045260246000fd5b60006002820490506001821680610d8d57607f821691505b602082108103610da057610d9f610d46565b5b50919050565b7f4e487b7100000000000000000000000000000000000000000000000000000000600052601160045260246000fd5b6000610de082610ada565b9150610deb83610ada565b9250828203905081811115610e0357610e02610da6565b5b92915050565b6000610e1482610ada565b9150610e1f83610ada565b9250828201905080821115610e3757610e36610da6565b5b9291505056fea26469706673582212202f85c5e1773f2d4bccbc834c6d67021b5538375968f326b62d46df6bc98d21d164736f6c63430008110033",
					"opcodes": "PUSH1 0x80 PUSH1 0x40 MSTORE CALLVALUE DUP1 ISZERO PUSH3 0x11 JUMPI PUSH1 0x0 DUP1 REVERT JUMPDEST POP PUSH1 0x40 MLOAD DUP1 PUSH1 0x40 ADD PUSH1 0x40 MSTORE DUP1 PUSH1 0x8 DUP2 MSTORE PUSH1 0x20 ADD PUSH32 0x435A4B20436F696E000000000000000000000000000000000000000000000000 DUP2 MSTORE POP PUSH1 0x0 SWAP1 DUP2 PUSH3 0x58 SWAP2 SWAP1 PUSH3 0x33C JUMP JUMPDEST POP PUSH1 0x40 MLOAD DUP1 PUSH1 0x40 ADD PUSH1 0x40 MSTORE DUP1 PUSH1 0x4 DUP2 MSTORE PUSH1 0x20 ADD PUSH32 0x435A4B4300000000000000000000000000000000000000000000000000000000 DUP2 MSTORE POP PUSH1 0x1 SWAP1 DUP2 PUSH3 0x9F SWAP2 SWAP1 PUSH3 0x33C JUMP JUMPDEST POP PUSH1 0x12 PUSH1 0x2 PUSH1 0x0 PUSH2 0x100 EXP DUP2 SLOAD DUP2 PUSH1 0xFF MUL NOT AND SWAP1 DUP4 PUSH1 0xFF AND MUL OR SWAP1 SSTORE POP PUSH3 0x423 JUMP JUMPDEST PUSH1 0x0 DUP2 MLOAD SWAP1 POP SWAP2 SWAP1 POP JUMP JUMPDEST PUSH32 0x4E487B7100000000000000000000000000000000000000000000000000000000 PUSH1 0x0 MSTORE PUSH1 0x41 PUSH1 0x4 MSTORE PUSH1 0x24 PUSH1 0x0 REVERT JUMPDEST PUSH32 0x4E487B7100000000000000000000000000000000000000000000000000000000 PUSH1 0x0 MSTORE PUSH1 0x22 PUSH1 0x4 MSTORE PUSH1 0x24 PUSH1 0x0 REVERT JUMPDEST PUSH1 0x0 PUSH1 0x2 DUP3 DIV SWAP1 POP PUSH1 0x1 DUP3 AND DUP1 PUSH3 0x144 JUMPI PUSH1 0x7F DUP3 AND SWAP2 POP JUMPDEST PUSH1 0x20 DUP3 LT DUP2 SUB PUSH3 0x15A JUMPI PUSH3 0x159 PUSH3 0xFC JUMP JUMPDEST JUMPDEST POP SWAP2 SWAP1 POP JUMP JUMPDEST PUSH1 0x0 DUP2 SWAP1 POP DUP2 PUSH1 0x0 MSTORE PUSH1 0x20 PUSH1 0x0 KECCAK256 SWAP1 POP SWAP2 SWAP1 POP JUMP JUMPDEST PUSH1 0x0 PUSH1 0x20 PUSH1 0x1F DUP4 ADD DIV SWAP1 POP SWAP2 SWAP1 POP JUMP JUMPDEST PUSH1 0x0 DUP3 DUP3 SHL SWAP1 POP SWAP3 SWAP2 POP POP JUMP JUMPDEST PUSH1 0x0 PUSH1 0x8 DUP4 MUL PUSH3 0x1C4 PUSH32 0xFFFFFFFFFFFFFFFFFFFFFFFFFFFFFFFFFFFFFFFFFFFFFFFFFFFFFFFFFFFFFFFF DUP3 PUSH3 0x185 JUMP JUMPDEST PUSH3 0x1D0 DUP7 DUP4 PUSH3 0x185 JUMP JUMPDEST SWAP6 POP DUP1 NOT DUP5 AND SWAP4 POP DUP1 DUP7 AND DUP5 OR SWAP3 POP POP POP SWAP4 SWAP3 POP POP POP JUMP JUMPDEST PUSH1 0x0 DUP2 SWAP1 POP SWAP2 SWAP1 POP JUMP JUMPDEST PUSH1 0x0 DUP2 SWAP1 POP SWAP2 SWAP1 POP JUMP JUMPDEST PUSH1 0x0 PUSH3 0x21D PUSH3 0x217 PUSH3 0x211 DUP5 PUSH3 0x1E8 JUMP JUMPDEST PUSH3 0x1F2 JUMP JUMPDEST PUSH3 0x1E8 JUMP JUMPDEST SWAP1 POP SWAP2 SWAP1 POP JUMP JUMPDEST PUSH1 0x0 DUP2 SWAP1 POP SWAP2 SWAP1 POP JUMP JUMPDEST PUSH3 0x239 DUP4 PUSH3 0x1FC JUMP JUMPDEST PUSH3 0x251 PUSH3 0x248 DUP3 PUSH3 0x224 JUMP JUMPDEST DUP5 DUP5 SLOAD PUSH3 0x192 JUMP JUMPDEST DUP3 SSTORE POP POP POP POP JUMP JUMPDEST PUSH1 0x0 SWAP1 JUMP JUMPDEST PUSH3 0x268 PUSH3 0x259 JUMP JUMPDEST PUSH3 0x275 DUP2 DUP5 DUP5 PUSH3 0x22E JUMP JUMPDEST POP POP POP JUMP JUMPDEST JUMPDEST DUP2 DUP2 LT ISZERO PUSH3 0x29D JUMPI PUSH3 0x291 PUSH1 0x0 DUP3 PUSH3 0x25E JUMP JUMPDEST PUSH1 0x1 DUP2 ADD SWAP1 POP PUSH3 0x27B JUMP JUMPDEST POP POP JUMP JUMPDEST PUSH1 0x1F DUP3 GT ISZERO PUSH3 0x2EC JUMPI PUSH3 0x2B6 DUP2 PUSH3 0x160 JUMP JUMPDEST PUSH3 0x2C1 DUP5 PUSH3 0x175 JUMP JUMPDEST DUP2 ADD PUSH1 0x20 DUP6 LT ISZERO PUSH3 0x2D1 JUMPI DUP2 SWAP1 POP JUMPDEST PUSH3 0x2E9 PUSH3 0x2E0 DUP6 PUSH3 0x175 JUMP JUMPDEST DUP4 ADD DUP3 PUSH3 0x27A JUMP JUMPDEST POP POP JUMPDEST POP POP POP JUMP JUMPDEST PUSH1 0x0 DUP3 DUP3 SHR SWAP1 POP SWAP3 SWAP2 POP POP JUMP JUMPDEST PUSH1 0x0 PUSH3 0x311 PUSH1 0x0 NOT DUP5 PUSH1 0x8 MUL PUSH3 0x2F1 JUMP JUMPDEST NOT DUP1 DUP4 AND SWAP2 POP POP SWAP3 SWAP2 POP POP JUMP JUMPDEST PUSH1 0x0 PUSH3 0x32C DUP4 DUP4 PUSH3 0x2FE JUMP JUMPDEST SWAP2 POP DUP3 PUSH1 0x2 MUL DUP3 OR SWAP1 POP SWAP3 SWAP2 POP POP JUMP JUMPDEST PUSH3 0x347 DUP3 PUSH3 0xC2 JUMP JUMPDEST PUSH8 0xFFFFFFFFFFFFFFFF DUP2 GT ISZERO PUSH3 0x363 JUMPI PUSH3 0x362 PUSH3 0xCD JUMP JUMPDEST JUMPDEST PUSH3 0x36F DUP3 SLOAD PUSH3 0x12B JUMP JUMPDEST PUSH3 0x37C DUP3 DUP3 DUP6 PUSH3 0x2A1 JUMP JUMPDEST PUSH1 0x0 PUSH1 0x20 SWAP1 POP PUSH1 0x1F DUP4 GT PUSH1 0x1 DUP2 EQ PUSH3 0x3B4 JUMPI PUSH1 0x0 DUP5 ISZERO PUSH3 0x39F JUMPI DUP3 DUP8 ADD MLOAD SWAP1 POP JUMPDEST PUSH3 0x3AB DUP6 DUP3 PUSH3 0x31E JUMP JUMPDEST DUP7 SSTORE POP PUSH3 0x41B JUMP JUMPDEST PUSH1 0x1F NOT DUP5 AND PUSH3 0x3C4 DUP7 PUSH3 0x160 JUMP JUMPDEST PUSH1 0x0 JUMPDEST DUP3 DUP2 LT ISZERO PUSH3 0x3EE JUMPI DUP5 DUP10 ADD MLOAD DUP3 SSTORE PUSH1 0x1 DUP3 ADD SWAP2 POP PUSH1 0x20 DUP6 ADD SWAP5 POP PUSH1 0x20 DUP2 ADD SWAP1 POP PUSH3 0x3C7 JUMP JUMPDEST DUP7 DUP4 LT ISZERO PUSH3 0x40E JUMPI DUP5 DUP10 ADD MLOAD PUSH3 0x40A PUSH1 0x1F DUP10 AND DUP3 PUSH3 0x2FE JUMP JUMPDEST DUP4 SSTORE POP JUMPDEST PUSH1 0x1 PUSH1 0x2 DUP9 MUL ADD DUP9 SSTORE POP POP POP JUMPDEST POP POP POP POP POP POP JUMP JUMPDEST PUSH2 0xE73 DUP1 PUSH3 0x433 PUSH1 0x0 CODECOPY PUSH1 0x0 RETURN INVALID PUSH1 0x80 PUSH1 0x40 MSTORE CALLVALUE DUP1 ISZERO PUSH2 0x10 JUMPI PUSH1 0x0 DUP1 REVERT JUMPDEST POP PUSH1 0x4 CALLDATASIZE LT PUSH2 0xB4 JUMPI PUSH1 0x0 CALLDATALOAD PUSH1 0xE0 SHR DUP1 PUSH4 0x40C10F19 GT PUSH2 0x71 JUMPI DUP1 PUSH4 0x40C10F19 EQ PUSH2 0x1A3 JUMPI DUP1 PUSH4 0x42966C68 EQ PUSH2 0x1D3 JUMPI DUP1 PUSH4 0x70A08231 EQ PUSH2 0x203 JUMPI DUP1 PUSH4 0x95D89B41 EQ PUSH2 0x233 JUMPI DUP1 PUSH4 0xA9059CBB EQ PUSH2 0x251 JUMPI DUP1 PUSH4 0xDD62ED3E EQ PUSH2 0x281 JUMPI PUSH2 0xB4 JUMP JUMPDEST DUP1 PUSH4 0x24C2DDD EQ PUSH2 0xB9 JUMPI DUP1 PUSH4 0x6FDDE03 EQ PUSH2 0xE9 JUMPI DUP1 PUSH4 0x95EA7B3 EQ PUSH2 0x107 JUMPI DUP1 PUSH4 0x18160DDD EQ PUSH2 0x137 JUMPI DUP1 PUSH4 0x23B872DD EQ PUSH2 0x155 JUMPI DUP1 PUSH4 0x313CE567 EQ PUSH2 0x185 JUMPI JUMPDEST PUSH1 0x0 DUP1 REVERT JUMPDEST PUSH2 0xD3 PUSH1 0x4 DUP1 CALLDATASIZE SUB DUP2 ADD SWAP1 PUSH2 0xCE SWAP2 SWAP1 PUSH2 0xA9A JUMP JUMPDEST PUSH2 0x2B1 JUMP JUMPDEST PUSH1 0x40 MLOAD PUSH2 0xE0 SWAP2 SWAP1 PUSH2 0xAF3 JUMP JUMPDEST PUSH1 0x40 MLOAD DUP1 SWAP2 SUB SWAP1 RETURN JUMPDEST PUSH2 0xF1 PUSH2 0x2D6 JUMP JUMPDEST PUSH1 0x40 MLOAD PUSH2 0xFE SWAP2 SWAP1 PUSH2 0xB9E JUMP JUMPDEST PUSH1 0x40 MLOAD DUP1 SWAP2 SUB SWAP1 RETURN JUMPDEST PUSH2 0x121 PUSH1 0x4 DUP1 CALLDATASIZE SUB DUP2 ADD SWAP1 PUSH2 0x11C SWAP2 SWAP1 PUSH2 0xBEC JUMP JUMPDEST PUSH2 0x368 JUMP JUMPDEST PUSH1 0x40 MLOAD PUSH2 0x12E SWAP2 SWAP1 PUSH2 0xC47 JUMP JUMPDEST PUSH1 0x40 MLOAD DUP1 SWAP2 SUB SWAP1 RETURN JUMPDEST PUSH2 0x13F PUSH2 0x45A JUMP JUMPDEST PUSH1 0x40 MLOAD PUSH2 0x14C SWAP2 SWAP1 PUSH2 0xAF3 JUMP JUMPDEST PUSH1 0x40 MLOAD DUP1 SWAP2 SUB SWAP1 RETURN JUMPDEST PUSH2 0x16F PUSH1 0x4 DUP1 CALLDATASIZE SUB DUP2 ADD SWAP1 PUSH2 0x16A SWAP2 SWAP1 PUSH2 0xC62 JUMP JUMPDEST PUSH2 0x460 JUMP JUMPDEST PUSH1 0x40 MLOAD PUSH2 0x17C SWAP2 SWAP1 PUSH2 0xC47 JUMP JUMPDEST PUSH1 0x40 MLOAD DUP1 SWAP2 SUB SWAP1 RETURN JUMPDEST PUSH2 0x18D PUSH2 0x611 JUMP JUMPDEST PUSH1 0x40 MLOAD PUSH2 0x19A SWAP2 SWAP1 PUSH2 0xCD1 JUMP JUMPDEST PUSH1 0x40 MLOAD DUP1 SWAP2 SUB SWAP1 RETURN JUMPDEST PUSH2 0x1BD PUSH1 0x4 DUP1 CALLDATASIZE SUB DUP2 ADD SWAP1 PUSH2 0x1B8 SWAP2 SWAP1 PUSH2 0xBEC JUMP JUMPDEST PUSH2 0x628 JUMP JUMPDEST PUSH1 0x40 MLOAD PUSH2 0x1CA SWAP2 SWAP1 PUSH2 0xC47 JUMP JUMPDEST PUSH1 0x40 MLOAD DUP1 SWAP2 SUB SWAP1 RETURN JUMPDEST PUSH2 0x1ED PUSH1 0x4 DUP1 CALLDATASIZE SUB DUP2 ADD SWAP1 PUSH2 0x1E8 SWAP2 SWAP1 PUSH2 0xCEC JUMP JUMPDEST PUSH2 0x709 JUMP JUMPDEST PUSH1 0x40 MLOAD PUSH2 0x1FA SWAP2 SWAP1 PUSH2 0xC47 JUMP JUMPDEST PUSH1 0x40 MLOAD DUP1 SWAP2 SUB SWAP1 RETURN JUMPDEST PUSH2 0x21D PUSH1 0x4 DUP1 CALLDATASIZE SUB DUP2 ADD SWAP1 PUSH2 0x218 SWAP2 SWAP1 PUSH2 0xD19 JUMP JUMPDEST PUSH2 0x7E9 JUMP JUMPDEST PUSH1 0x40 MLOAD PUSH2 0x22A SWAP2 SWAP1 PUSH2 0xAF3 JUMP JUMPDEST PUSH1 0x40 MLOAD DUP1 SWAP2 SUB SWAP1 RETURN JUMPDEST PUSH2 0x23B PUSH2 0x801 JUMP JUMPDEST PUSH1 0x40 MLOAD PUSH2 0x248 SWAP2 SWAP1 PUSH2 0xB9E JUMP JUMPDEST PUSH1 0x40 MLOAD DUP1 SWAP2 SUB SWAP1 RETURN JUMPDEST PUSH2 0x26B PUSH1 0x4 DUP1 CALLDATASIZE SUB DUP2 ADD SWAP1 PUSH2 0x266 SWAP2 SWAP1 PUSH2 0xBEC JUMP JUMPDEST PUSH2 0x893 JUMP JUMPDEST PUSH1 0x40 MLOAD PUSH2 0x278 SWAP2 SWAP1 PUSH2 0xC47 JUMP JUMPDEST PUSH1 0x40 MLOAD DUP1 SWAP2 SUB SWAP1 RETURN JUMPDEST PUSH2 0x29B PUSH1 0x4 DUP1 CALLDATASIZE SUB DUP2 ADD SWAP1 PUSH2 0x296 SWAP2 SWAP1 PUSH2 0xA9A JUMP JUMPDEST PUSH2 0x9B0 JUMP JUMPDEST PUSH1 0x40 MLOAD PUSH2 0x2A8 SWAP2 SWAP1 PUSH2 0xAF3 JUMP JUMPDEST PUSH1 0x40 MLOAD DUP1 SWAP2 SUB SWAP1 RETURN JUMPDEST PUSH1 0x5 PUSH1 0x20 MSTORE DUP2 PUSH1 0x0 MSTORE PUSH1 0x40 PUSH1 0x0 KECCAK256 PUSH1 0x20 MSTORE DUP1 PUSH1 0x0 MSTORE PUSH1 0x40 PUSH1 0x0 KECCAK256 PUSH1 0x0 SWAP2 POP SWAP2 POP POP SLOAD DUP2 JUMP JUMPDEST PUSH1 0x60 PUSH1 0x0 DUP1 SLOAD PUSH2 0x2E5 SWAP1 PUSH2 0xD75 JUMP JUMPDEST DUP1 PUSH1 0x1F ADD PUSH1 0x20 DUP1 SWAP2 DIV MUL PUSH1 0x20 ADD PUSH1 0x40 MLOAD SWAP1 DUP2 ADD PUSH1 0x40 MSTORE DUP1 SWAP3 SWAP2 SWAP1 DUP2 DUP2 MSTORE PUSH1 0x20 ADD DUP3 DUP1 SLOAD PUSH2 0x311 SWAP1 PUSH2 0xD75 JUMP JUMPDEST DUP1 ISZERO PUSH2 0x35E JUMPI DUP1 PUSH1 0x1F LT PUSH2 0x333 JUMPI PUSH2 0x100 DUP1 DUP4 SLOAD DIV MUL DUP4 MSTORE SWAP2 PUSH1 0x20 ADD SWAP2 PUSH2 0x35E JUMP JUMPDEST DUP3 ADD SWAP2 SWAP1 PUSH1 0x0 MSTORE PUSH1 0x20 PUSH1 0x0 KECCAK256 SWAP1 JUMPDEST DUP2 SLOAD DUP2 MSTORE SWAP1 PUSH1 0x1 ADD SWAP1 PUSH1 0x20 ADD DUP1 DUP4 GT PUSH2 0x341 JUMPI DUP3 SWAP1 SUB PUSH1 0x1F AND DUP3 ADD SWAP2 JUMPDEST POP POP POP POP POP SWAP1 POP SWAP1 JUMP JUMPDEST PUSH1 0x0 DUP2 PUSH1 0x5 PUSH1 0x0 CALLER PUSH20 0xFFFFFFFFFFFFFFFFFFFFFFFFFFFFFFFFFFFFFFFF AND PUSH20 0xFFFFFFFFFFFFFFFFFFFFFFFFFFFFFFFFFFFFFFFF AND DUP2 MSTORE PUSH1 0x20 ADD SWAP1 DUP2 MSTORE PUSH1 0x20 ADD PUSH1 0x0 KECCAK256 PUSH1 0x0 DUP6 PUSH20 0xFFFFFFFFFFFFFFFFFFFFFFFFFFFFFFFFFFFFFFFF AND PUSH20 0xFFFFFFFFFFFFFFFFFFFFFFFFFFFFFFFFFFFFFFFF AND DUP2 MSTORE PUSH1 0x20 ADD SWAP1 DUP2 MSTORE PUSH1 0x20 ADD PUSH1 0x0 KECCAK256 DUP2 SWAP1 SSTORE POP DUP3 PUSH20 0xFFFFFFFFFFFFFFFFFFFFFFFFFFFFFFFFFFFFFFFF AND CALLER PUSH20 0xFFFFFFFFFFFFFFFFFFFFFFFFFFFFFFFFFFFFFFFF AND PUSH32 0x8C5BE1E5EBEC7D5BD14F71427D1E84F3DD0314C0F7B2291E5B200AC8C7C3B925 DUP5 PUSH1 0x40 MLOAD PUSH2 0x448 SWAP2 SWAP1 PUSH2 0xAF3 JUMP JUMPDEST PUSH1 0x40 MLOAD DUP1 SWAP2 SUB SWAP1 LOG3 PUSH1 0x1 SWAP1 POP SWAP3 SWAP2 POP POP JUMP JUMPDEST PUSH1 0x3 SLOAD DUP2 JUMP JUMPDEST PUSH1 0x0 DUP2 PUSH1 0x5 PUSH1 0x0 DUP7 PUSH20 0xFFFFFFFFFFFFFFFFFFFFFFFFFFFFFFFFFFFFFFFF AND PUSH20 0xFFFFFFFFFFFFFFFFFFFFFFFFFFFFFFFFFFFFFFFF AND DUP2 MSTORE PUSH1 0x20 ADD SWAP1 DUP2 MSTORE PUSH1 0x20 ADD PUSH1 0x0 KECCAK256 PUSH1 0x0 CALLER PUSH20 0xFFFFFFFFFFFFFFFFFFFFFFFFFFFFFFFFFFFFFFFF AND PUSH20 0xFFFFFFFFFFFFFFFFFFFFFFFFFFFFFFFFFFFFFFFF AND DUP2 MSTORE PUSH1 0x20 ADD SWAP1 DUP2 MSTORE PUSH1 0x20 ADD PUSH1 0x0 KECCAK256 PUSH1 0x0 DUP3 DUP3 SLOAD PUSH2 0x4EE SWAP2 SWAP1 PUSH2 0xDD5 JUMP JUMPDEST SWAP3 POP POP DUP2 SWAP1 SSTORE POP DUP2 PUSH1 0x4 PUSH1 0x0 DUP7 PUSH20 0xFFFFFFFFFFFFFFFFFFFFFFFFFFFFFFFFFFFFFFFF AND PUSH20 0xFFFFFFFFFFFFFFFFFFFFFFFFFFFFFFFFFFFFFFFF AND DUP2 MSTORE PUSH1 0x20 ADD SWAP1 DUP2 MSTORE PUSH1 0x20 ADD PUSH1 0x0 KECCAK256 PUSH1 0x0 DUP3 DUP3 SLOAD PUSH2 0x544 SWAP2 SWAP1 PUSH2 0xDD5 JUMP JUMPDEST SWAP3 POP POP DUP2 SWAP1 SSTORE POP DUP2 PUSH1 0x4 PUSH1 0x0 DUP6 PUSH20 0xFFFFFFFFFFFFFFFFFFFFFFFFFFFFFFFFFFFFFFFF AND PUSH20 0xFFFFFFFFFFFFFFFFFFFFFFFFFFFFFFFFFFFFFFFF AND DUP2 MSTORE PUSH1 0x20 ADD SWAP1 DUP2 MSTORE PUSH1 0x20 ADD PUSH1 0x0 KECCAK256 PUSH1 0x0 DUP3 DUP3 SLOAD PUSH2 0x59A SWAP2 SWAP1 PUSH2 0xE09 JUMP JUMPDEST SWAP3 POP POP DUP2 SWAP1 SSTORE POP DUP3 PUSH20 0xFFFFFFFFFFFFFFFFFFFFFFFFFFFFFFFFFFFFFFFF AND DUP5 PUSH20 0xFFFFFFFFFFFFFFFFFFFFFFFFFFFFFFFFFFFFFFFF AND PUSH32 0xDDF252AD1BE2C89B69C2B068FC378DAA952BA7F163C4A11628F55A4DF523B3EF DUP5 PUSH1 0x40 MLOAD PUSH2 0x5FE SWAP2 SWAP1 PUSH2 0xAF3 JUMP JUMPDEST PUSH1 0x40 MLOAD DUP1 SWAP2 SUB SWAP1 LOG3 PUSH1 0x1 SWAP1 POP SWAP4 SWAP3 POP POP POP JUMP JUMPDEST PUSH1 0x0 PUSH1 0x2 PUSH1 0x0 SWAP1 SLOAD SWAP1 PUSH2 0x100 EXP SWAP1 DIV PUSH1 0xFF AND SWAP1 POP SWAP1 JUMP JUMPDEST PUSH1 0x0 DUP2 PUSH1 0x3 PUSH1 0x0 DUP3 DUP3 SLOAD PUSH2 0x63C SWAP2 SWAP1 PUSH2 0xE09 JUMP JUMPDEST SWAP3 POP POP DUP2 SWAP1 SSTORE POP DUP2 PUSH1 0x4 PUSH1 0x0 DUP6 PUSH20 0xFFFFFFFFFFFFFFFFFFFFFFFFFFFFFFFFFFFFFFFF AND PUSH20 0xFFFFFFFFFFFFFFFFFFFFFFFFFFFFFFFFFFFFFFFF AND DUP2 MSTORE PUSH1 0x20 ADD SWAP1 DUP2 MSTORE PUSH1 0x20 ADD PUSH1 0x0 KECCAK256 PUSH1 0x0 DUP3 DUP3 SLOAD PUSH2 0x692 SWAP2 SWAP1 PUSH2 0xE09 JUMP JUMPDEST SWAP3 POP POP DUP2 SWAP1 SSTORE POP DUP3 PUSH20 0xFFFFFFFFFFFFFFFFFFFFFFFFFFFFFFFFFFFFFFFF AND PUSH1 0x0 PUSH20 0xFFFFFFFFFFFFFFFFFFFFFFFFFFFFFFFFFFFFFFFF AND PUSH32 0xDDF252AD1BE2C89B69C2B068FC378DAA952BA7F163C4A11628F55A4DF523B3EF DUP5 PUSH1 0x40 MLOAD PUSH2 0x6F7 SWAP2 SWAP1 PUSH2 0xAF3 JUMP JUMPDEST PUSH1 0x40 MLOAD DUP1 SWAP2 SUB SWAP1 LOG3 PUSH1 0x1 SWAP1 POP SWAP3 SWAP2 POP POP JUMP JUMPDEST PUSH1 0x0 DUP2 PUSH1 0x3 PUSH1 0x0 DUP3 DUP3 SLOAD PUSH2 0x71D SWAP2 SWAP1 PUSH2 0xDD5 JUMP JUMPDEST SWAP3 POP POP DUP2 SWAP1 SSTORE POP DUP2 PUSH1 0x4 PUSH1 0x0 CALLER PUSH20 0xFFFFFFFFFFFFFFFFFFFFFFFFFFFFFFFFFFFFFFFF AND PUSH20 0xFFFFFFFFFFFFFFFFFFFFFFFFFFFFFFFFFFFFFFFF AND DUP2 MSTORE PUSH1 0x20 ADD SWAP1 DUP2 MSTORE PUSH1 0x20 ADD PUSH1 0x0 KECCAK256 PUSH1 0x0 DUP3 DUP3 SLOAD PUSH2 0x773 SWAP2 SWAP1 PUSH2 0xDD5 JUMP JUMPDEST SWAP3 POP POP DUP2 SWAP1 SSTORE POP PUSH1 0x0 PUSH20 0xFFFFFFFFFFFFFFFFFFFFFFFFFFFFFFFFFFFFFFFF AND CALLER PUSH20 0xFFFFFFFFFFFFFFFFFFFFFFFFFFFFFFFFFFFFFFFF AND PUSH32 0xDDF252AD1BE2C89B69C2B068FC378DAA952BA7F163C4A11628F55A4DF523B3EF DUP5 PUSH1 0x40 MLOAD PUSH2 0x7D8 SWAP2 SWAP1 PUSH2 0xAF3 JUMP JUMPDEST PUSH1 0x40 MLOAD DUP1 SWAP2 SUB SWAP1 LOG3 PUSH1 0x1 SWAP1 POP SWAP2 SWAP1 POP JUMP JUMPDEST PUSH1 0x4 PUSH1 0x20 MSTORE DUP1 PUSH1 0x0 MSTORE PUSH1 0x40 PUSH1 0x0 KECCAK256 PUSH1 0x0 SWAP2 POP SWAP1 POP SLOAD DUP2 JUMP JUMPDEST PUSH1 0x60 PUSH1 0x1 DUP1 SLOAD PUSH2 0x810 SWAP1 PUSH2 0xD75 JUMP JUMPDEST DUP1 PUSH1 0x1F ADD PUSH1 0x20 DUP1 SWAP2 DIV MUL PUSH1 0x20 ADD PUSH1 0x40 MLOAD SWAP1 DUP2 ADD PUSH1 0x40 MSTORE DUP1 SWAP3 SWAP2 SWAP1 DUP2 DUP2 MSTORE PUSH1 0x20 ADD DUP3 DUP1 SLOAD PUSH2 0x83C SWAP1 PUSH2 0xD75 JUMP JUMPDEST DUP1 ISZERO PUSH2 0x889 JUMPI DUP1 PUSH1 0x1F LT PUSH2 0x85E JUMPI PUSH2 0x100 DUP1 DUP4 SLOAD DIV MUL DUP4 MSTORE SWAP2 PUSH1 0x20 ADD SWAP2 PUSH2 0x889 JUMP JUMPDEST DUP3 ADD SWAP2 SWAP1 PUSH1 0x0 MSTORE PUSH1 0x20 PUSH1 0x0 KECCAK256 SWAP1 JUMPDEST DUP2 SLOAD DUP2 MSTORE SWAP1 PUSH1 0x1 ADD SWAP1 PUSH1 0x20 ADD DUP1 DUP4 GT PUSH2 0x86C JUMPI DUP3 SWAP1 SUB PUSH1 0x1F AND DUP3 ADD SWAP2 JUMPDEST POP POP POP POP POP SWAP1 POP SWAP1 JUMP JUMPDEST PUSH1 0x0 DUP2 PUSH1 0x4 PUSH1 0x0 CALLER PUSH20 0xFFFFFFFFFFFFFFFFFFFFFFFFFFFFFFFFFFFFFFFF AND PUSH20 0xFFFFFFFFFFFFFFFFFFFFFFFFFFFFFFFFFFFFFFFF AND DUP2 MSTORE PUSH1 0x20 ADD SWAP1 DUP2 MSTORE PUSH1 0x20 ADD PUSH1 0x0 KECCAK256 PUSH1 0x0 DUP3 DUP3 SLOAD PUSH2 0x8E4 SWAP2 SWAP1 PUSH2 0xDD5 JUMP JUMPDEST SWAP3 POP POP DUP2 SWAP1 SSTORE POP DUP2 PUSH1 0x4 PUSH1 0x0 DUP6 PUSH20 0xFFFFFFFFFFFFFFFFFFFFFFFFFFFFFFFFFFFFFFFF AND PUSH20 0xFFFFFFFFFFFFFFFFFFFFFFFFFFFFFFFFFFFFFFFF AND DUP2 MSTORE PUSH1 0x20 ADD SWAP1 DUP2 MSTORE PUSH1 0x20 ADD PUSH1 0x0 KECCAK256 PUSH1 0x0 DUP3 DUP3 SLOAD PUSH2 0x93A SWAP2 SWAP1 PUSH2 0xE09 JUMP JUMPDEST SWAP3 POP POP DUP2 SWAP1 SSTORE POP DUP3 PUSH20 0xFFFFFFFFFFFFFFFFFFFFFFFFFFFFFFFFFFFFFFFF AND CALLER PUSH20 0xFFFFFFFFFFFFFFFFFFFFFFFFFFFFFFFFFFFFFFFF AND PUSH32 0xDDF252AD1BE2C89B69C2B068FC378DAA952BA7F163C4A11628F55A4DF523B3EF DUP5 PUSH1 0x40 MLOAD PUSH2 0x99E SWAP2 SWAP1 PUSH2 0xAF3 JUMP JUMPDEST PUSH1 0x40 MLOAD DUP1 SWAP2 SUB SWAP1 LOG3 PUSH1 0x1 SWAP1 POP SWAP3 SWAP2 POP POP JUMP JUMPDEST PUSH1 0x0 PUSH1 0x5 PUSH1 0x0 DUP5 PUSH20 0xFFFFFFFFFFFFFFFFFFFFFFFFFFFFFFFFFFFFFFFF AND PUSH20 0xFFFFFFFFFFFFFFFFFFFFFFFFFFFFFFFFFFFFFFFF AND DUP2 MSTORE PUSH1 0x20 ADD SWAP1 DUP2 MSTORE PUSH1 0x20 ADD PUSH1 0x0 KECCAK256 PUSH1 0x0 DUP4 PUSH20 0xFFFFFFFFFFFFFFFFFFFFFFFFFFFFFFFFFFFFFFFF AND PUSH20 0xFFFFFFFFFFFFFFFFFFFFFFFFFFFFFFFFFFFFFFFF AND DUP2 MSTORE PUSH1 0x20 ADD SWAP1 DUP2 MSTORE PUSH1 0x20 ADD PUSH1 0x0 KECCAK256 SLOAD SWAP1 POP SWAP3 SWAP2 POP POP JUMP JUMPDEST PUSH1 0x0 DUP1 REVERT JUMPDEST PUSH1 0x0 PUSH20 0xFFFFFFFFFFFFFFFFFFFFFFFFFFFFFFFFFFFFFFFF DUP3 AND SWAP1 POP SWAP2 SWAP1 POP JUMP JUMPDEST PUSH1 0x0 PUSH2 0xA67 DUP3 PUSH2 0xA3C JUMP JUMPDEST SWAP1 POP SWAP2 SWAP1 POP JUMP JUMPDEST PUSH2 0xA77 DUP2 PUSH2 0xA5C JUMP JUMPDEST DUP2 EQ PUSH2 0xA82 JUMPI PUSH1 0x0 DUP1 REVERT JUMPDEST POP JUMP JUMPDEST PUSH1 0x0 DUP2 CALLDATALOAD SWAP1 POP PUSH2 0xA94 DUP2 PUSH2 0xA6E JUMP JUMPDEST SWAP3 SWAP2 POP POP JUMP JUMPDEST PUSH1 0x0 DUP1 PUSH1 0x40 DUP4 DUP6 SUB SLT ISZERO PUSH2 0xAB1 JUMPI PUSH2 0xAB0 PUSH2 0xA37 JUMP JUMPDEST JUMPDEST PUSH1 0x0 PUSH2 0xABF DUP6 DUP3 DUP7 ADD PUSH2 0xA85 JUMP JUMPDEST SWAP3 POP POP PUSH1 0x20 PUSH2 0xAD0 DUP6 DUP3 DUP7 ADD PUSH2 0xA85 JUMP JUMPDEST SWAP2 POP POP SWAP3 POP SWAP3 SWAP1 POP JUMP JUMPDEST PUSH1 0x0 DUP2 SWAP1 POP SWAP2 SWAP1 POP JUMP JUMPDEST PUSH2 0xAED DUP2 PUSH2 0xADA JUMP JUMPDEST DUP3 MSTORE POP POP JUMP JUMPDEST PUSH1 0x0 PUSH1 0x20 DUP3 ADD SWAP1 POP PUSH2 0xB08 PUSH1 0x0 DUP4 ADD DUP5 PUSH2 0xAE4 JUMP JUMPDEST SWAP3 SWAP2 POP POP JUMP JUMPDEST PUSH1 0x0 DUP2 MLOAD SWAP1 POP SWAP2 SWAP1 POP JUMP JUMPDEST PUSH1 0x0 DUP3 DUP3 MSTORE PUSH1 0x20 DUP3 ADD SWAP1 POP SWAP3 SWAP2 POP POP JUMP JUMPDEST PUSH1 0x0 JUMPDEST DUP4 DUP2 LT ISZERO PUSH2 0xB48 JUMPI DUP1 DUP3 ADD MLOAD DUP2 DUP5 ADD MSTORE PUSH1 0x20 DUP2 ADD SWAP1 POP PUSH2 0xB2D JUMP JUMPDEST PUSH1 0x0 DUP5 DUP5 ADD MSTORE POP POP POP POP JUMP JUMPDEST PUSH1 0x0 PUSH1 0x1F NOT PUSH1 0x1F DUP4 ADD AND SWAP1 POP SWAP2 SWAP1 POP JUMP JUMPDEST PUSH1 0x0 PUSH2 0xB70 DUP3 PUSH2 0xB0E JUMP JUMPDEST PUSH2 0xB7A DUP2 DUP6 PUSH2 0xB19 JUMP JUMPDEST SWAP4 POP PUSH2 0xB8A DUP2 DUP6 PUSH1 0x20 DUP7 ADD PUSH2 0xB2A JUMP JUMPDEST PUSH2 0xB93 DUP2 PUSH2 0xB54 JUMP JUMPDEST DUP5 ADD SWAP2 POP POP SWAP3 SWAP2 POP POP JUMP JUMPDEST PUSH1 0x0 PUSH1 0x20 DUP3 ADD SWAP1 POP DUP2 DUP2 SUB PUSH1 0x0 DUP4 ADD MSTORE PUSH2 0xBB8 DUP2 DUP5 PUSH2 0xB65 JUMP JUMPDEST SWAP1 POP SWAP3 SWAP2 POP POP JUMP JUMPDEST PUSH2 0xBC9 DUP2 PUSH2 0xADA JUMP JUMPDEST DUP2 EQ PUSH2 0xBD4 JUMPI PUSH1 0x0 DUP1 REVERT JUMPDEST POP JUMP JUMPDEST PUSH1 0x0 DUP2 CALLDATALOAD SWAP1 POP PUSH2 0xBE6 DUP2 PUSH2 0xBC0 JUMP JUMPDEST SWAP3 SWAP2 POP POP JUMP JUMPDEST PUSH1 0x0 DUP1 PUSH1 0x40 DUP4 DUP6 SUB SLT ISZERO PUSH2 0xC03 JUMPI PUSH2 0xC02 PUSH2 0xA37 JUMP JUMPDEST JUMPDEST PUSH1 0x0 PUSH2 0xC11 DUP6 DUP3 DUP7 ADD PUSH2 0xA85 JUMP JUMPDEST SWAP3 POP POP PUSH1 0x20 PUSH2 0xC22 DUP6 DUP3 DUP7 ADD PUSH2 0xBD7 JUMP JUMPDEST SWAP2 POP POP SWAP3 POP SWAP3 SWAP1 POP JUMP JUMPDEST PUSH1 0x0 DUP2 ISZERO ISZERO SWAP1 POP SWAP2 SWAP1 POP JUMP JUMPDEST PUSH2 0xC41 DUP2 PUSH2 0xC2C JUMP JUMPDEST DUP3 MSTORE POP POP JUMP JUMPDEST PUSH1 0x0 PUSH1 0x20 DUP3 ADD SWAP1 POP PUSH2 0xC5C PUSH1 0x0 DUP4 ADD DUP5 PUSH2 0xC38 JUMP JUMPDEST SWAP3 SWAP2 POP POP JUMP JUMPDEST PUSH1 0x0 DUP1 PUSH1 0x0 PUSH1 0x60 DUP5 DUP7 SUB SLT ISZERO PUSH2 0xC7B JUMPI PUSH2 0xC7A PUSH2 0xA37 JUMP JUMPDEST JUMPDEST PUSH1 0x0 PUSH2 0xC89 DUP7 DUP3 DUP8 ADD PUSH2 0xA85 JUMP JUMPDEST SWAP4 POP POP PUSH1 0x20 PUSH2 0xC9A DUP7 DUP3 DUP8 ADD PUSH2 0xA85 JUMP JUMPDEST SWAP3 POP POP PUSH1 0x40 PUSH2 0xCAB DUP7 DUP3 DUP8 ADD PUSH2 0xBD7 JUMP JUMPDEST SWAP2 POP POP SWAP3 POP SWAP3 POP SWAP3 JUMP JUMPDEST PUSH1 0x0 PUSH1 0xFF DUP3 AND SWAP1 POP SWAP2 SWAP1 POP JUMP JUMPDEST PUSH2 0xCCB DUP2 PUSH2 0xCB5 JUMP JUMPDEST DUP3 MSTORE POP POP JUMP JUMPDEST PUSH1 0x0 PUSH1 0x20 DUP3 ADD SWAP1 POP PUSH2 0xCE6 PUSH1 0x0 DUP4 ADD DUP5 PUSH2 0xCC2 JUMP JUMPDEST SWAP3 SWAP2 POP POP JUMP JUMPDEST PUSH1 0x0 PUSH1 0x20 DUP3 DUP5 SUB SLT ISZERO PUSH2 0xD02 JUMPI PUSH2 0xD01 PUSH2 0xA37 JUMP JUMPDEST JUMPDEST PUSH1 0x0 PUSH2 0xD10 DUP5 DUP3 DUP6 ADD PUSH2 0xBD7 JUMP JUMPDEST SWAP2 POP POP SWAP3 SWAP2 POP POP JUMP JUMPDEST PUSH1 0x0 PUSH1 0x20 DUP3 DUP5 SUB SLT ISZERO PUSH2 0xD2F JUMPI PUSH2 0xD2E PUSH2 0xA37 JUMP JUMPDEST JUMPDEST PUSH1 0x0 PUSH2 0xD3D DUP5 DUP3 DUP6 ADD PUSH2 0xA85 JUMP JUMPDEST SWAP2 POP POP SWAP3 SWAP2 POP POP JUMP JUMPDEST PUSH32 0x4E487B7100000000000000000000000000000000000000000000000000000000 PUSH1 0x0 MSTORE PUSH1 0x22 PUSH1 0x4 MSTORE PUSH1 0x24 PUSH1 0x0 REVERT JUMPDEST PUSH1 0x0 PUSH1 0x2 DUP3 DIV SWAP1 POP PUSH1 0x1 DUP3 AND DUP1 PUSH2 0xD8D JUMPI PUSH1 0x7F DUP3 AND SWAP2 POP JUMPDEST PUSH1 0x20 DUP3 LT DUP2 SUB PUSH2 0xDA0 JUMPI PUSH2 0xD9F PUSH2 0xD46 JUMP JUMPDEST JUMPDEST POP SWAP2 SWAP1 POP JUMP JUMPDEST PUSH32 0x4E487B7100000000000000000000000000000000000000000000000000000000 PUSH1 0x0 MSTORE PUSH1 0x11 PUSH1 0x4 MSTORE PUSH1 0x24 PUSH1 0x0 REVERT JUMPDEST PUSH1 0x0 PUSH2 0xDE0 DUP3 PUSH2 0xADA JUMP JUMPDEST SWAP2 POP PUSH2 0xDEB DUP4 PUSH2 0xADA JUMP JUMPDEST SWAP3 POP DUP3 DUP3 SUB SWAP1 POP DUP2 DUP2 GT ISZERO PUSH2 0xE03 JUMPI PUSH2 0xE02 PUSH2 0xDA6 JUMP JUMPDEST JUMPDEST SWAP3 SWAP2 POP POP JUMP JUMPDEST PUSH1 0x0 PUSH2 0xE14 DUP3 PUSH2 0xADA JUMP JUMPDEST SWAP2 POP PUSH2 0xE1F DUP4 PUSH2 0xADA JUMP JUMPDEST SWAP3 POP DUP3 DUP3 ADD SWAP1 POP DUP1 DUP3 GT ISZERO PUSH2 0xE37 JUMPI PUSH2 0xE36 PUSH2 0xDA6 JUMP JUMPDEST JUMPDEST SWAP3 SWAP2 POP POP JUMP INVALID LOG2 PUSH5 0x6970667358 0x22 SLT KECCAK256 0x2F DUP6 0xC5 0xE1 PUSH24 0x3F2D4BCCBC834C6D67021B5538375968F326B62D46DF6BC9 DUP14 0x21 0xD1 PUSH5 0x736F6C6343 STOP ADDMOD GT STOP CALLER "
				},
				"gasEstimates": {
					"creation": {
						"codeDepositCost": "739800",
						"executionCost": "infinite",
						"totalCost": "infinite"
					},
					"external": {
						"_allowances(address,address)": "infinite",
						"allowance(address,address)": "infinite",
						"approve(address,uint256)": "infinite",
						"balanceOf(address)": "2858",
						"burn(uint256)": "infinite",
						"decimals()": "2590",
						"mint(address,uint256)": "infinite",
						"name()": "infinite",
						"symbol()": "infinite",
						"totalSupply()": "2496",
						"transfer(address,uint256)": "infinite",
						"transferFrom(address,address,uint256)": "infinite"
					}
				},
				"methodIdentifiers": {
					"_allowances(address,address)": "024c2ddd",
					"allowance(address,address)": "dd62ed3e",
					"approve(address,uint256)": "095ea7b3",
					"balanceOf(address)": "70a08231",
					"burn(uint256)": "42966c68",
					"decimals()": "313ce567",
					"mint(address,uint256)": "40c10f19",
					"name()": "06fdde03",
					"symbol()": "95d89b41",
					"totalSupply()": "18160ddd",
					"transfer(address,uint256)": "a9059cbb",
					"transferFrom(address,address,uint256)": "23b872dd"
				}
			},
			"storageLayout": {
				"storage": [
					{
						"astId": 6,
						"contract": "contracts/CZKC.sol:CZKC",
						"label": "_name",
						"offset": 0,
						"slot": "0",
						"type": "t_string_storage"
					},
					{
						"astId": 8,
						"contract": "contracts/CZKC.sol:CZKC",
						"label": "_symbol",
						"offset": 0,
						"slot": "1",
						"type": "t_string_storage"
					},
					{
						"astId": 10,
						"contract": "contracts/CZKC.sol:CZKC",
						"label": "_decimals",
						"offset": 0,
						"slot": "2",
						"type": "t_uint8"
					},
					{
						"astId": 12,
						"contract": "contracts/CZKC.sol:CZKC",
						"label": "totalSupply",
						"offset": 0,
						"slot": "3",
						"type": "t_uint256"
					},
					{
						"astId": 16,
						"contract": "contracts/CZKC.sol:CZKC",
						"label": "balanceOf",
						"offset": 0,
						"slot": "4",
						"type": "t_mapping(t_address,t_uint256)"
					},
					{
						"astId": 22,
						"contract": "contracts/CZKC.sol:CZKC",
						"label": "_allowances",
						"offset": 0,
						"slot": "5",
						"type": "t_mapping(t_address,t_mapping(t_address,t_uint256))"
					}
				],
				"types": {
					"t_address": {
						"encoding": "inplace",
						"label": "address",
						"numberOfBytes": "20"
					},
					"t_mapping(t_address,t_mapping(t_address,t_uint256))": {
						"encoding": "mapping",
						"key": "t_address",
						"label": "mapping(address => mapping(address => uint256))",
						"numberOfBytes": "32",
						"value": "t_mapping(t_address,t_uint256)"
					},
					"t_mapping(t_address,t_uint256)": {
						"encoding": "mapping",
						"key": "t_address",
						"label": "mapping(address => uint256)",
						"numberOfBytes": "32",
						"value": "t_uint256"
					},
					"t_string_storage": {
						"encoding": "bytes",
						"label": "string",
						"numberOfBytes": "32"
					},
					"t_uint256": {
						"encoding": "inplace",
						"label": "uint256",
						"numberOfBytes": "32"
					},
					"t_uint8": {
						"encoding": "inplace",
						"label": "uint8",
						"numberOfBytes": "1"
					}
				}
			},
			"userdoc": {
				"kind": "user",
				"methods": {},
				"version": 1
			}
		}
	}
}