{
	"contracts/ERC20.sol": {
		"ERC20": {
			"abi": [
				{
					"anonymous": false,
					"inputs": [
						{
							"indexed": true,
							"internalType": "address",
							"name": "owner",
							"type": "address"
						},
						{
							"indexed": true,
							"internalType": "address",
							"name": "spender",
							"type": "address"
						},
						{
							"indexed": false,
							"internalType": "uint256",
							"name": "value",
							"type": "uint256"
						}
					],
					"name": "Approval",
					"type": "event"
				},
				{
					"anonymous": false,
					"inputs": [
						{
							"indexed": true,
							"internalType": "address",
							"name": "from",
							"type": "address"
						},
						{
							"indexed": true,
							"internalType": "address",
							"name": "to",
							"type": "address"
						},
						{
							"indexed": false,
							"internalType": "uint256",
							"name": "value",
							"type": "uint256"
						}
					],
					"name": "Transfer",
					"type": "event"
				},
				{
					"inputs": [
						{
							"internalType": "address",
							"name": "",
							"type": "address"
						},
						{
							"internalType": "address",
							"name": "",
							"type": "address"
						}
					],
					"name": "allowance",
					"outputs": [
						{
							"internalType": "uint256",
							"name": "",
							"type": "uint256"
						}
					],
					"stateMutability": "view",
					"type": "function"
				},
				{
					"inputs": [
						{
							"internalType": "address",
							"name": "spender",
							"type": "address"
						},
						{
							"internalType": "uint256",
							"name": "amount",
							"type": "uint256"
						}
					],
					"name": "approve",
					"outputs": [
						{
							"internalType": "bool",
							"name": "",
							"type": "bool"
						}
					],
					"stateMutability": "nonpayable",
					"type": "function"
				},
				{
					"inputs": [
						{
							"internalType": "address",
							"name": "",
							"type": "address"
						}
					],
					"name": "balanceOf",
					"outputs": [
						{
							"internalType": "uint256",
							"name": "",
							"type": "uint256"
						}
					],
					"stateMutability": "view",
					"type": "function"
				},
				{
					"inputs": [
						{
							"internalType": "uint256",
							"name": "amount",
							"type": "uint256"
						}
					],
					"name": "burn",
					"outputs": [
						{
							"internalType": "bool",
							"name": "",
							"type": "bool"
						}
					],
					"stateMutability": "nonpayable",
					"type": "function"
				},
				{
					"inputs": [
						{
							"internalType": "address",
							"name": "recipient",
							"type": "address"
						},
						{
							"internalType": "uint256",
							"name": "amount",
							"type": "uint256"
						}
					],
					"name": "mint",
					"outputs": [
						{
							"internalType": "bool",
							"name": "",
							"type": "bool"
						}
					],
					"stateMutability": "nonpayable",
					"type": "function"
				},
				{
					"inputs": [],
					"name": "totalSupply",
					"outputs": [
						{
							"internalType": "uint256",
							"name": "",
							"type": "uint256"
						}
					],
					"stateMutability": "view",
					"type": "function"
				},
				{
					"inputs": [
						{
							"internalType": "address",
							"name": "recipient",
							"type": "address"
						},
						{
							"internalType": "uint256",
							"name": "amount",
							"type": "uint256"
						}
					],
					"name": "transfer",
					"outputs": [
						{
							"internalType": "bool",
							"name": "",
							"type": "bool"
						}
					],
					"stateMutability": "nonpayable",
					"type": "function"
				},
				{
					"inputs": [
						{
							"internalType": "address",
							"name": "spender",
							"type": "address"
						},
						{
							"internalType": "address",
							"name": "recipient",
							"type": "address"
						},
						{
							"internalType": "uint256",
							"name": "amount",
							"type": "uint256"
						}
					],
					"name": "transferFrom",
					"outputs": [
						{
							"internalType": "bool",
							"name": "",
							"type": "bool"
						}
					],
					"stateMutability": "nonpayable",
					"type": "function"
				}
			],
			"devdoc": {
				"kind": "dev",
				"methods": {},
				"version": 1
			},
			"evm": {
				"assembly": "    /* \"contracts/ERC20.sol\":93:1500  contract ERC20 is IERC20{... */\n  mstore(0x40, 0x80)\n  callvalue\n  dup1\n  iszero\n  tag_1\n  jumpi\n  0x00\n  dup1\n  revert\ntag_1:\n  pop\n  dataSize(sub_0)\n  dup1\n  dataOffset(sub_0)\n  0x00\n  codecopy\n  0x00\n  return\nstop\n\nsub_0: assembly {\n        /* \"contracts/ERC20.sol\":93:1500  contract ERC20 is IERC20{... */\n      mstore(0x40, 0x80)\n      callvalue\n      dup1\n      iszero\n      tag_1\n      jumpi\n      0x00\n      dup1\n      revert\n    tag_1:\n      pop\n      jumpi(tag_2, lt(calldatasize, 0x04))\n      shr(0xe0, calldataload(0x00))\n      dup1\n      0x42966c68\n      gt\n      tag_11\n      jumpi\n      dup1\n      0x42966c68\n      eq\n      tag_7\n      jumpi\n      dup1\n      0x70a08231\n      eq\n      tag_8\n      jumpi\n      dup1\n      0xa9059cbb\n      eq\n      tag_9\n      jumpi\n      dup1\n      0xdd62ed3e\n      eq\n      tag_10\n      jumpi\n      jump(tag_2)\n    tag_11:\n      dup1\n      0x095ea7b3\n      eq\n      tag_3\n      jumpi\n      dup1\n      0x18160ddd\n      eq\n      tag_4\n      jumpi\n      dup1\n      0x23b872dd\n      eq\n      tag_5\n      jumpi\n      dup1\n      0x40c10f19\n      eq\n      tag_6\n      jumpi\n    tag_2:\n      0x00\n      dup1\n      revert\n        /* \"contracts/ERC20.sol\":524:728  function approve(address spender, uint amount) external returns (bool) {... */\n    tag_3:\n      tag_12\n      0x04\n      dup1\n      calldatasize\n      sub\n      dup2\n      add\n      swap1\n      tag_13\n      swap2\n      swap1\n      tag_14\n      jump\t// in\n    tag_13:\n      tag_15\n      jump\t// in\n    tag_12:\n      mload(0x40)\n      tag_16\n      swap2\n      swap1\n      tag_17\n      jump\t// in\n    tag_16:\n      mload(0x40)\n      dup1\n      swap2\n      sub\n      swap1\n      return\n        /* \"contracts/ERC20.sol\":124:147  uint public totalSupply */\n    tag_4:\n      tag_18\n      tag_19\n      jump\t// in\n    tag_18:\n      mload(0x40)\n      tag_20\n      swap2\n      swap1\n      tag_21\n      jump\t// in\n    tag_20:\n      mload(0x40)\n      dup1\n      swap2\n      sub\n      swap1\n      return\n        /* \"contracts/ERC20.sol\":736:1044  function transferFrom(address spender, address recipient, uint amount) external returns (bool) {... */\n    tag_5:\n      tag_22\n      0x04\n      dup1\n      calldatasize\n      sub\n      dup2\n      add\n      swap1\n      tag_23\n      swap2\n      swap1\n      tag_24\n      jump\t// in\n    tag_23:\n      tag_25\n      jump\t// in\n    tag_22:\n      mload(0x40)\n      tag_26\n      swap2\n      swap1\n      tag_17\n      jump\t// in\n    tag_26:\n      mload(0x40)\n      dup1\n      swap2\n      sub\n      swap1\n      return\n        /* \"contracts/ERC20.sol\":1052:1279  function mint(address recipient, uint amount) external returns(bool) {... */\n    tag_6:\n      tag_27\n      0x04\n      dup1\n      calldatasize\n      sub\n      dup2\n      add\n      swap1\n      tag_28\n      swap2\n      swap1\n      tag_14\n      jump\t// in\n    tag_28:\n      tag_29\n      jump\t// in\n    tag_27:\n      mload(0x40)\n      tag_30\n      swap2\n      swap1\n      tag_17\n      jump\t// in\n    tag_30:\n      mload(0x40)\n      dup1\n      swap2\n      sub\n      swap1\n      return\n        /* \"contracts/ERC20.sol\":1287:1497  function burn(uint amount) external returns(bool) {... */\n    tag_7:\n      tag_31\n      0x04\n      dup1\n      calldatasize\n      sub\n      dup2\n      add\n      swap1\n      tag_32\n      swap2\n      swap1\n      tag_33\n      jump\t// in\n    tag_32:\n      tag_34\n      jump\t// in\n    tag_31:\n      mload(0x40)\n      tag_35\n      swap2\n      swap1\n      tag_17\n      jump\t// in\n    tag_35:\n      mload(0x40)\n      dup1\n      swap2\n      sub\n      swap1\n      return\n        /* \"contracts/ERC20.sol\":156:197  mapping(address => uint) public balanceOf */\n    tag_8:\n      tag_36\n      0x04\n      dup1\n      calldatasize\n      sub\n      dup2\n      add\n      swap1\n      tag_37\n      swap2\n      swap1\n      tag_38\n      jump\t// in\n    tag_37:\n      tag_39\n      jump\t// in\n    tag_36:\n      mload(0x40)\n      tag_40\n      swap2\n      swap1\n      tag_21\n      jump\t// in\n    tag_40:\n      mload(0x40)\n      dup1\n      swap2\n      sub\n      swap1\n      return\n        /* \"contracts/ERC20.sol\":274:516  function transfer(address recipient, uint amount) external returns (bool) {... */\n    tag_9:\n      tag_41\n      0x04\n      dup1\n      calldatasize\n      sub\n      dup2\n      add\n      swap1\n      tag_42\n      swap2\n      swap1\n      tag_14\n      jump\t// in\n    tag_42:\n      tag_43\n      jump\t// in\n    tag_41:\n      mload(0x40)\n      tag_44\n      swap2\n      swap1\n      tag_17\n      jump\t// in\n    tag_44:\n      mload(0x40)\n      dup1\n      swap2\n      sub\n      swap1\n      return\n        /* \"contracts/ERC20.sol\":204:265  mapping(address => mapping(address => uint)) public allowance */\n    tag_10:\n      tag_45\n      0x04\n      dup1\n      calldatasize\n      sub\n      dup2\n      add\n      swap1\n      tag_46\n      swap2\n      swap1\n      tag_47\n      jump\t// in\n    tag_46:\n      tag_48\n      jump\t// in\n    tag_45:\n      mload(0x40)\n      tag_49\n      swap2\n      swap1\n      tag_21\n      jump\t// in\n    tag_49:\n      mload(0x40)\n      dup1\n      swap2\n      sub\n      swap1\n      return\n        /* \"contracts/ERC20.sol\":524:728  function approve(address spender, uint amount) external returns (bool) {... */\n    tag_15:\n        /* \"contracts/ERC20.sol\":589:593  bool */\n      0x00\n        /* \"contracts/ERC20.sol\":639:645  amount */\n      dup2\n        /* \"contracts/ERC20.sol\":606:615  allowance */\n      0x02\n        /* \"contracts/ERC20.sol\":606:627  allowance[msg.sender] */\n      0x00\n        /* \"contracts/ERC20.sol\":616:626  msg.sender */\n      caller\n        /* \"contracts/ERC20.sol\":606:627  allowance[msg.sender] */\n      0xffffffffffffffffffffffffffffffffffffffff\n      and\n      0xffffffffffffffffffffffffffffffffffffffff\n      and\n      dup2\n      mstore\n      0x20\n      add\n      swap1\n      dup2\n      mstore\n      0x20\n      add\n      0x00\n      keccak256\n        /* \"contracts/ERC20.sol\":606:636  allowance[msg.sender][spender] */\n      0x00\n        /* \"contracts/ERC20.sol\":628:635  spender */\n      dup6\n        /* \"contracts/ERC20.sol\":606:636  allowance[msg.sender][spender] */\n      0xffffffffffffffffffffffffffffffffffffffff\n      and\n      0xffffffffffffffffffffffffffffffffffffffff\n      and\n      dup2\n      mstore\n      0x20\n      add\n      swap1\n      dup2\n      mstore\n      0x20\n      add\n      0x00\n      keccak256\n        /* \"contracts/ERC20.sol\":606:645  allowance[msg.sender][spender] = amount */\n      dup2\n      swap1\n      sstore\n      pop\n        /* \"contracts/ERC20.sol\":682:689  spender */\n      dup3\n        /* \"contracts/ERC20.sol\":661:698  Approval(msg.sender, spender, amount) */\n      0xffffffffffffffffffffffffffffffffffffffff\n      and\n        /* \"contracts/ERC20.sol\":670:680  msg.sender */\n      caller\n        /* \"contracts/ERC20.sol\":661:698  Approval(msg.sender, spender, amount) */\n      0xffffffffffffffffffffffffffffffffffffffff\n      and\n      0x8c5be1e5ebec7d5bd14f71427d1e84f3dd0314c0f7b2291e5b200ac8c7c3b925\n        /* \"contracts/ERC20.sol\":691:697  amount */\n      dup5\n        /* \"contracts/ERC20.sol\":661:698  Approval(msg.sender, spender, amount) */\n      mload(0x40)\n      tag_51\n      swap2\n      swap1\n      tag_21\n      jump\t// in\n    tag_51:\n      mload(0x40)\n      dup1\n      swap2\n      sub\n      swap1\n      log3\n        /* \"contracts/ERC20.sol\":716:720  true */\n      0x01\n        /* \"contracts/ERC20.sol\":709:720  return true */\n      swap1\n      pop\n        /* \"contracts/ERC20.sol\":524:728  function approve(address spender, uint amount) external returns (bool) {... */\n      swap3\n      swap2\n      pop\n      pop\n      jump\t// out\n        /* \"contracts/ERC20.sol\":124:147  uint public totalSupply */\n    tag_19:\n      sload(0x00)\n      dup2\n      jump\t// out\n        /* \"contracts/ERC20.sol\":736:1044  function transferFrom(address spender, address recipient, uint amount) external returns (bool) {... */\n    tag_25:\n        /* \"contracts/ERC20.sol\":825:829  bool */\n      0x00\n        /* \"contracts/ERC20.sol\":876:882  amount */\n      dup2\n        /* \"contracts/ERC20.sol\":842:851  allowance */\n      0x02\n        /* \"contracts/ERC20.sol\":842:860  allowance[spender] */\n      0x00\n        /* \"contracts/ERC20.sol\":852:859  spender */\n      dup7\n        /* \"contracts/ERC20.sol\":842:860  allowance[spender] */\n      0xffffffffffffffffffffffffffffffffffffffff\n      and\n      0xffffffffffffffffffffffffffffffffffffffff\n      and\n      dup2\n      mstore\n      0x20\n      add\n      swap1\n      dup2\n      mstore\n      0x20\n      add\n      0x00\n      keccak256\n        /* \"contracts/ERC20.sol\":842:872  allowance[spender][msg.sender] */\n      0x00\n        /* \"contracts/ERC20.sol\":861:871  msg.sender */\n      caller\n        /* \"contracts/ERC20.sol\":842:872  allowance[spender][msg.sender] */\n      0xffffffffffffffffffffffffffffffffffffffff\n      and\n      0xffffffffffffffffffffffffffffffffffffffff\n      and\n      dup2\n      mstore\n      0x20\n      add\n      swap1\n      dup2\n      mstore\n      0x20\n      add\n      0x00\n      keccak256\n      0x00\n        /* \"contracts/ERC20.sol\":842:882  allowance[spender][msg.sender] -= amount */\n      dup3\n      dup3\n      sload\n      tag_53\n      swap2\n      swap1\n      tag_54\n      jump\t// in\n    tag_53:\n      swap3\n      pop\n      pop\n      dup2\n      swap1\n      sstore\n      pop\n        /* \"contracts/ERC20.sol\":915:921  amount */\n      dup2\n        /* \"contracts/ERC20.sol\":893:902  balanceOf */\n      0x01\n        /* \"contracts/ERC20.sol\":893:911  balanceOf[spender] */\n      0x00\n        /* \"contracts/ERC20.sol\":903:910  spender */\n      dup7\n        /* \"contracts/ERC20.sol\":893:911  balanceOf[spender] */\n      0xffffffffffffffffffffffffffffffffffffffff\n      and\n      0xffffffffffffffffffffffffffffffffffffffff\n      and\n      dup2\n      mstore\n      0x20\n      add\n      swap1\n      dup2\n      mstore\n      0x20\n      add\n      0x00\n      keccak256\n      0x00\n        /* \"contracts/ERC20.sol\":893:921  balanceOf[spender] -= amount */\n      dup3\n      dup3\n      sload\n      tag_55\n      swap2\n      swap1\n      tag_54\n      jump\t// in\n    tag_55:\n      swap3\n      pop\n      pop\n      dup2\n      swap1\n      sstore\n      pop\n        /* \"contracts/ERC20.sol\":956:962  amount */\n      dup2\n        /* \"contracts/ERC20.sol\":932:941  balanceOf */\n      0x01\n        /* \"contracts/ERC20.sol\":932:952  balanceOf[recipient] */\n      0x00\n        /* \"contracts/ERC20.sol\":942:951  recipient */\n      dup6\n        /* \"contracts/ERC20.sol\":932:952  balanceOf[recipient] */\n      0xffffffffffffffffffffffffffffffffffffffff\n      and\n      0xffffffffffffffffffffffffffffffffffffffff\n      and\n      dup2\n      mstore\n      0x20\n      add\n      swap1\n      dup2\n      mstore\n      0x20\n      add\n      0x00\n      keccak256\n      0x00\n        /* \"contracts/ERC20.sol\":932:962  balanceOf[recipient] += amount */\n      dup3\n      dup3\n      sload\n      tag_56\n      swap2\n      swap1\n      tag_57\n      jump\t// in\n    tag_56:\n      swap3\n      pop\n      pop\n      dup2\n      swap1\n      sstore\n      pop\n        /* \"contracts/ERC20.sol\":996:1005  recipient */\n      dup3\n        /* \"contracts/ERC20.sol\":978:1014  Transfer(spender, recipient, amount) */\n      0xffffffffffffffffffffffffffffffffffffffff\n      and\n        /* \"contracts/ERC20.sol\":987:994  spender */\n      dup5\n        /* \"contracts/ERC20.sol\":978:1014  Transfer(spender, recipient, amount) */\n      0xffffffffffffffffffffffffffffffffffffffff\n      and\n      0xddf252ad1be2c89b69c2b068fc378daa952ba7f163c4a11628f55a4df523b3ef\n        /* \"contracts/ERC20.sol\":1007:1013  amount */\n      dup5\n        /* \"contracts/ERC20.sol\":978:1014  Transfer(spender, recipient, amount) */\n      mload(0x40)\n      tag_58\n      swap2\n      swap1\n      tag_21\n      jump\t// in\n    tag_58:\n      mload(0x40)\n      dup1\n      swap2\n      sub\n      swap1\n      log3\n        /* \"contracts/ERC20.sol\":1032:1036  true */\n      0x01\n        /* \"contracts/ERC20.sol\":1025:1036  return true */\n      swap1\n      pop\n        /* \"contracts/ERC20.sol\":736:1044  function transferFrom(address spender, address recipient, uint amount) external returns (bool) {... */\n      swap4\n      swap3\n      pop\n      pop\n      pop\n      jump\t// out\n        /* \"contracts/ERC20.sol\":1052:1279  function mint(address recipient, uint amount) external returns(bool) {... */\n    tag_29:\n        /* \"contracts/ERC20.sol\":1115:1119  bool */\n      0x00\n        /* \"contracts/ERC20.sol\":1147:1153  amount */\n      dup2\n        /* \"contracts/ERC20.sol\":1132:1143  totalSupply */\n      0x00\n      dup1\n        /* \"contracts/ERC20.sol\":1132:1153  totalSupply += amount */\n      dup3\n      dup3\n      sload\n      tag_60\n      swap2\n      swap1\n      tag_57\n      jump\t// in\n    tag_60:\n      swap3\n      pop\n      pop\n      dup2\n      swap1\n      sstore\n      pop\n        /* \"contracts/ERC20.sol\":1188:1194  amount */\n      dup2\n        /* \"contracts/ERC20.sol\":1164:1173  balanceOf */\n      0x01\n        /* \"contracts/ERC20.sol\":1164:1184  balanceOf[recipient] */\n      0x00\n        /* \"contracts/ERC20.sol\":1174:1183  recipient */\n      dup6\n        /* \"contracts/ERC20.sol\":1164:1184  balanceOf[recipient] */\n      0xffffffffffffffffffffffffffffffffffffffff\n      and\n      0xffffffffffffffffffffffffffffffffffffffff\n      and\n      dup2\n      mstore\n      0x20\n      add\n      swap1\n      dup2\n      mstore\n      0x20\n      add\n      0x00\n      keccak256\n      0x00\n        /* \"contracts/ERC20.sol\":1164:1194  balanceOf[recipient] += amount */\n      dup3\n      dup3\n      sload\n      tag_61\n      swap2\n      swap1\n      tag_57\n      jump\t// in\n    tag_61:\n      swap3\n      pop\n      pop\n      dup2\n      swap1\n      sstore\n      pop\n        /* \"contracts/ERC20.sol\":1231:1240  recipient */\n      dup3\n        /* \"contracts/ERC20.sol\":1210:1249  Transfer(address(0), recipient, amount) */\n      0xffffffffffffffffffffffffffffffffffffffff\n      and\n        /* \"contracts/ERC20.sol\":1227:1228  0 */\n      0x00\n        /* \"contracts/ERC20.sol\":1210:1249  Transfer(address(0), recipient, amount) */\n      0xffffffffffffffffffffffffffffffffffffffff\n      and\n      0xddf252ad1be2c89b69c2b068fc378daa952ba7f163c4a11628f55a4df523b3ef\n        /* \"contracts/ERC20.sol\":1242:1248  amount */\n      dup5\n        /* \"contracts/ERC20.sol\":1210:1249  Transfer(address(0), recipient, amount) */\n      mload(0x40)\n      tag_62\n      swap2\n      swap1\n      tag_21\n      jump\t// in\n    tag_62:\n      mload(0x40)\n      dup1\n      swap2\n      sub\n      swap1\n      log3\n        /* \"contracts/ERC20.sol\":1267:1271  true */\n      0x01\n        /* \"contracts/ERC20.sol\":1260:1271  return true */\n      swap1\n      pop\n        /* \"contracts/ERC20.sol\":1052:1279  function mint(address recipient, uint amount) external returns(bool) {... */\n      swap3\n      swap2\n      pop\n      pop\n      jump\t// out\n        /* \"contracts/ERC20.sol\":1287:1497  function burn(uint amount) external returns(bool) {... */\n    tag_34:\n        /* \"contracts/ERC20.sol\":1331:1335  bool */\n      0x00\n        /* \"contracts/ERC20.sol\":1363:1369  amount */\n      dup2\n        /* \"contracts/ERC20.sol\":1348:1359  totalSupply */\n      0x00\n      dup1\n        /* \"contracts/ERC20.sol\":1348:1369  totalSupply -= amount */\n      dup3\n      dup3\n      sload\n      tag_64\n      swap2\n      swap1\n      tag_54\n      jump\t// in\n    tag_64:\n      swap3\n      pop\n      pop\n      dup2\n      swap1\n      sstore\n      pop\n        /* \"contracts/ERC20.sol\":1405:1411  amount */\n      dup2\n        /* \"contracts/ERC20.sol\":1380:1389  balanceOf */\n      0x01\n        /* \"contracts/ERC20.sol\":1380:1401  balanceOf[msg.sender] */\n      0x00\n        /* \"contracts/ERC20.sol\":1390:1400  msg.sender */\n      caller\n        /* \"contracts/ERC20.sol\":1380:1401  balanceOf[msg.sender] */\n      0xffffffffffffffffffffffffffffffffffffffff\n      and\n      0xffffffffffffffffffffffffffffffffffffffff\n      and\n      dup2\n      mstore\n      0x20\n      add\n      swap1\n      dup2\n      mstore\n      0x20\n      add\n      0x00\n      keccak256\n      0x00\n        /* \"contracts/ERC20.sol\":1380:1411  balanceOf[msg.sender] -= amount */\n      dup3\n      dup3\n      sload\n      tag_65\n      swap2\n      swap1\n      tag_54\n      jump\t// in\n    tag_65:\n      swap3\n      pop\n      pop\n      dup2\n      swap1\n      sstore\n      pop\n        /* \"contracts/ERC20.sol\":1456:1457  0 */\n      0x00\n        /* \"contracts/ERC20.sol\":1427:1467  Transfer(msg.sender, address(0), amount) */\n      0xffffffffffffffffffffffffffffffffffffffff\n      and\n        /* \"contracts/ERC20.sol\":1436:1446  msg.sender */\n      caller\n        /* \"contracts/ERC20.sol\":1427:1467  Transfer(msg.sender, address(0), amount) */\n      0xffffffffffffffffffffffffffffffffffffffff\n      and\n      0xddf252ad1be2c89b69c2b068fc378daa952ba7f163c4a11628f55a4df523b3ef\n        /* \"contracts/ERC20.sol\":1460:1466  amount */\n      dup5\n        /* \"contracts/ERC20.sol\":1427:1467  Transfer(msg.sender, address(0), amount) */\n      mload(0x40)\n      tag_66\n      swap2\n      swap1\n      tag_21\n      jump\t// in\n    tag_66:\n      mload(0x40)\n      dup1\n      swap2\n      sub\n      swap1\n      log3\n        /* \"contracts/ERC20.sol\":1485:1489  true */\n      0x01\n        /* \"contracts/ERC20.sol\":1478:1489  return true */\n      swap1\n      pop\n        /* \"contracts/ERC20.sol\":1287:1497  function burn(uint amount) external returns(bool) {... */\n      swap2\n      swap1\n      pop\n      jump\t// out\n        /* \"contracts/ERC20.sol\":156:197  mapping(address => uint) public balanceOf */\n    tag_39:\n      mstore(0x20, 0x01)\n      dup1\n      0x00\n      mstore\n      keccak256(0x00, 0x40)\n      0x00\n      swap2\n      pop\n      swap1\n      pop\n      sload\n      dup2\n      jump\t// out\n        /* \"contracts/ERC20.sol\":274:516  function transfer(address recipient, uint amount) external returns (bool) {... */\n    tag_43:\n        /* \"contracts/ERC20.sol\":342:346  bool */\n      0x00\n        /* \"contracts/ERC20.sol\":384:390  amount */\n      dup2\n        /* \"contracts/ERC20.sol\":359:368  balanceOf */\n      0x01\n        /* \"contracts/ERC20.sol\":359:380  balanceOf[msg.sender] */\n      0x00\n        /* \"contracts/ERC20.sol\":369:379  msg.sender */\n      caller\n        /* \"contracts/ERC20.sol\":359:380  balanceOf[msg.sender] */\n      0xffffffffffffffffffffffffffffffffffffffff\n      and\n      0xffffffffffffffffffffffffffffffffffffffff\n      and\n      dup2\n      mstore\n      0x20\n      add\n      swap1\n      dup2\n      mstore\n      0x20\n      add\n      0x00\n      keccak256\n      0x00\n        /* \"contracts/ERC20.sol\":359:390  balanceOf[msg.sender] -= amount */\n      dup3\n      dup3\n      sload\n      tag_68\n      swap2\n      swap1\n      tag_54\n      jump\t// in\n    tag_68:\n      swap3\n      pop\n      pop\n      dup2\n      swap1\n      sstore\n      pop\n        /* \"contracts/ERC20.sol\":425:431  amount */\n      dup2\n        /* \"contracts/ERC20.sol\":401:410  balanceOf */\n      0x01\n        /* \"contracts/ERC20.sol\":401:421  balanceOf[recipient] */\n      0x00\n        /* \"contracts/ERC20.sol\":411:420  recipient */\n      dup6\n        /* \"contracts/ERC20.sol\":401:421  balanceOf[recipient] */\n      0xffffffffffffffffffffffffffffffffffffffff\n      and\n      0xffffffffffffffffffffffffffffffffffffffff\n      and\n      dup2\n      mstore\n      0x20\n      add\n      swap1\n      dup2\n      mstore\n      0x20\n      add\n      0x00\n      keccak256\n      0x00\n        /* \"contracts/ERC20.sol\":401:431  balanceOf[recipient] += amount */\n      dup3\n      dup3\n      sload\n      tag_69\n      swap2\n      swap1\n      tag_57\n      jump\t// in\n    tag_69:\n      swap3\n      pop\n      pop\n      dup2\n      swap1\n      sstore\n      pop\n        /* \"contracts/ERC20.sol\":468:477  recipient */\n      dup3\n        /* \"contracts/ERC20.sol\":447:486  Transfer(msg.sender, recipient, amount) */\n      0xffffffffffffffffffffffffffffffffffffffff\n      and\n        /* \"contracts/ERC20.sol\":456:466  msg.sender */\n      caller\n        /* \"contracts/ERC20.sol\":447:486  Transfer(msg.sender, recipient, amount) */\n      0xffffffffffffffffffffffffffffffffffffffff\n      and\n      0xddf252ad1be2c89b69c2b068fc378daa952ba7f163c4a11628f55a4df523b3ef\n        /* \"contracts/ERC20.sol\":479:485  amount */\n      dup5\n        /* \"contracts/ERC20.sol\":447:486  Transfer(msg.sender, recipient, amount) */\n      mload(0x40)\n      tag_70\n      swap2\n      swap1\n      tag_21\n      jump\t// in\n    tag_70:\n      mload(0x40)\n      dup1\n      swap2\n      sub\n      swap1\n      log3\n        /* \"contracts/ERC20.sol\":504:508  true */\n      0x01\n        /* \"contracts/ERC20.sol\":497:508  return true */\n      swap1\n      pop\n        /* \"contracts/ERC20.sol\":274:516  function transfer(address recipient, uint amount) external returns (bool) {... */\n      swap3\n      swap2\n      pop\n      pop\n      jump\t// out\n        /* \"contracts/ERC20.sol\":204:265  mapping(address => mapping(address => uint)) public allowance */\n    tag_48:\n      mstore(0x20, 0x02)\n      dup2\n      0x00\n      mstore\n      mstore(0x20, keccak256(0x00, 0x40))\n      dup1\n      0x00\n      mstore\n      keccak256(0x00, 0x40)\n      0x00\n      swap2\n      pop\n      swap2\n      pop\n      pop\n      sload\n      dup2\n      jump\t// out\n        /* \"#utility.yul\":88:205   */\n    tag_72:\n        /* \"#utility.yul\":197:198   */\n      0x00\n        /* \"#utility.yul\":194:195   */\n      dup1\n        /* \"#utility.yul\":187:199   */\n      revert\n        /* \"#utility.yul\":334:460   */\n    tag_74:\n        /* \"#utility.yul\":371:378   */\n      0x00\n        /* \"#utility.yul\":411:453   */\n      0xffffffffffffffffffffffffffffffffffffffff\n        /* \"#utility.yul\":404:409   */\n      dup3\n        /* \"#utility.yul\":400:454   */\n      and\n        /* \"#utility.yul\":389:454   */\n      swap1\n      pop\n        /* \"#utility.yul\":334:460   */\n      swap2\n      swap1\n      pop\n      jump\t// out\n        /* \"#utility.yul\":466:562   */\n    tag_75:\n        /* \"#utility.yul\":503:510   */\n      0x00\n        /* \"#utility.yul\":532:556   */\n      tag_91\n        /* \"#utility.yul\":550:555   */\n      dup3\n        /* \"#utility.yul\":532:556   */\n      tag_74\n      jump\t// in\n    tag_91:\n        /* \"#utility.yul\":521:556   */\n      swap1\n      pop\n        /* \"#utility.yul\":466:562   */\n      swap2\n      swap1\n      pop\n      jump\t// out\n        /* \"#utility.yul\":568:690   */\n    tag_76:\n        /* \"#utility.yul\":641:665   */\n      tag_93\n        /* \"#utility.yul\":659:664   */\n      dup2\n        /* \"#utility.yul\":641:665   */\n      tag_75\n      jump\t// in\n    tag_93:\n        /* \"#utility.yul\":634:639   */\n      dup2\n        /* \"#utility.yul\":631:666   */\n      eq\n        /* \"#utility.yul\":621:684   */\n      tag_94\n      jumpi\n        /* \"#utility.yul\":680:681   */\n      0x00\n        /* \"#utility.yul\":677:678   */\n      dup1\n        /* \"#utility.yul\":670:682   */\n      revert\n        /* \"#utility.yul\":621:684   */\n    tag_94:\n        /* \"#utility.yul\":568:690   */\n      pop\n      jump\t// out\n        /* \"#utility.yul\":696:835   */\n    tag_77:\n        /* \"#utility.yul\":742:747   */\n      0x00\n        /* \"#utility.yul\":780:786   */\n      dup2\n        /* \"#utility.yul\":767:787   */\n      calldataload\n        /* \"#utility.yul\":758:787   */\n      swap1\n      pop\n        /* \"#utility.yul\":796:829   */\n      tag_96\n        /* \"#utility.yul\":823:828   */\n      dup2\n        /* \"#utility.yul\":796:829   */\n      tag_76\n      jump\t// in\n    tag_96:\n        /* \"#utility.yul\":696:835   */\n      swap3\n      swap2\n      pop\n      pop\n      jump\t// out\n        /* \"#utility.yul\":841:918   */\n    tag_78:\n        /* \"#utility.yul\":878:885   */\n      0x00\n        /* \"#utility.yul\":907:912   */\n      dup2\n        /* \"#utility.yul\":896:912   */\n      swap1\n      pop\n        /* \"#utility.yul\":841:918   */\n      swap2\n      swap1\n      pop\n      jump\t// out\n        /* \"#utility.yul\":924:1046   */\n    tag_79:\n        /* \"#utility.yul\":997:1021   */\n      tag_99\n        /* \"#utility.yul\":1015:1020   */\n      dup2\n        /* \"#utility.yul\":997:1021   */\n      tag_78\n      jump\t// in\n    tag_99:\n        /* \"#utility.yul\":990:995   */\n      dup2\n        /* \"#utility.yul\":987:1022   */\n      eq\n        /* \"#utility.yul\":977:1040   */\n      tag_100\n      jumpi\n        /* \"#utility.yul\":1036:1037   */\n      0x00\n        /* \"#utility.yul\":1033:1034   */\n      dup1\n        /* \"#utility.yul\":1026:1038   */\n      revert\n        /* \"#utility.yul\":977:1040   */\n    tag_100:\n        /* \"#utility.yul\":924:1046   */\n      pop\n      jump\t// out\n        /* \"#utility.yul\":1052:1191   */\n    tag_80:\n        /* \"#utility.yul\":1098:1103   */\n      0x00\n        /* \"#utility.yul\":1136:1142   */\n      dup2\n        /* \"#utility.yul\":1123:1143   */\n      calldataload\n        /* \"#utility.yul\":1114:1143   */\n      swap1\n      pop\n        /* \"#utility.yul\":1152:1185   */\n      tag_102\n        /* \"#utility.yul\":1179:1184   */\n      dup2\n        /* \"#utility.yul\":1152:1185   */\n      tag_79\n      jump\t// in\n    tag_102:\n        /* \"#utility.yul\":1052:1191   */\n      swap3\n      swap2\n      pop\n      pop\n      jump\t// out\n        /* \"#utility.yul\":1197:1671   */\n    tag_14:\n        /* \"#utility.yul\":1265:1271   */\n      0x00\n        /* \"#utility.yul\":1273:1279   */\n      dup1\n        /* \"#utility.yul\":1322:1324   */\n      0x40\n        /* \"#utility.yul\":1310:1319   */\n      dup4\n        /* \"#utility.yul\":1301:1308   */\n      dup6\n        /* \"#utility.yul\":1297:1320   */\n      sub\n        /* \"#utility.yul\":1293:1325   */\n      slt\n        /* \"#utility.yul\":1290:1409   */\n      iszero\n      tag_104\n      jumpi\n        /* \"#utility.yul\":1328:1407   */\n      tag_105\n      tag_72\n      jump\t// in\n    tag_105:\n        /* \"#utility.yul\":1290:1409   */\n    tag_104:\n        /* \"#utility.yul\":1448:1449   */\n      0x00\n        /* \"#utility.yul\":1473:1526   */\n      tag_106\n        /* \"#utility.yul\":1518:1525   */\n      dup6\n        /* \"#utility.yul\":1509:1515   */\n      dup3\n        /* \"#utility.yul\":1498:1507   */\n      dup7\n        /* \"#utility.yul\":1494:1516   */\n      add\n        /* \"#utility.yul\":1473:1526   */\n      tag_77\n      jump\t// in\n    tag_106:\n        /* \"#utility.yul\":1463:1526   */\n      swap3\n      pop\n        /* \"#utility.yul\":1419:1536   */\n      pop\n        /* \"#utility.yul\":1575:1577   */\n      0x20\n        /* \"#utility.yul\":1601:1654   */\n      tag_107\n        /* \"#utility.yul\":1646:1653   */\n      dup6\n        /* \"#utility.yul\":1637:1643   */\n      dup3\n        /* \"#utility.yul\":1626:1635   */\n      dup7\n        /* \"#utility.yul\":1622:1644   */\n      add\n        /* \"#utility.yul\":1601:1654   */\n      tag_80\n      jump\t// in\n    tag_107:\n        /* \"#utility.yul\":1591:1654   */\n      swap2\n      pop\n        /* \"#utility.yul\":1546:1664   */\n      pop\n        /* \"#utility.yul\":1197:1671   */\n      swap3\n      pop\n      swap3\n      swap1\n      pop\n      jump\t// out\n        /* \"#utility.yul\":1677:1767   */\n    tag_81:\n        /* \"#utility.yul\":1711:1718   */\n      0x00\n        /* \"#utility.yul\":1754:1759   */\n      dup2\n        /* \"#utility.yul\":1747:1760   */\n      iszero\n        /* \"#utility.yul\":1740:1761   */\n      iszero\n        /* \"#utility.yul\":1729:1761   */\n      swap1\n      pop\n        /* \"#utility.yul\":1677:1767   */\n      swap2\n      swap1\n      pop\n      jump\t// out\n        /* \"#utility.yul\":1773:1882   */\n    tag_82:\n        /* \"#utility.yul\":1854:1875   */\n      tag_110\n        /* \"#utility.yul\":1869:1874   */\n      dup2\n        /* \"#utility.yul\":1854:1875   */\n      tag_81\n      jump\t// in\n    tag_110:\n        /* \"#utility.yul\":1849:1852   */\n      dup3\n        /* \"#utility.yul\":1842:1876   */\n      mstore\n        /* \"#utility.yul\":1773:1882   */\n      pop\n      pop\n      jump\t// out\n        /* \"#utility.yul\":1888:2098   */\n    tag_17:\n        /* \"#utility.yul\":1975:1979   */\n      0x00\n        /* \"#utility.yul\":2013:2015   */\n      0x20\n        /* \"#utility.yul\":2002:2011   */\n      dup3\n        /* \"#utility.yul\":1998:2016   */\n      add\n        /* \"#utility.yul\":1990:2016   */\n      swap1\n      pop\n        /* \"#utility.yul\":2026:2091   */\n      tag_112\n        /* \"#utility.yul\":2088:2089   */\n      0x00\n        /* \"#utility.yul\":2077:2086   */\n      dup4\n        /* \"#utility.yul\":2073:2090   */\n      add\n        /* \"#utility.yul\":2064:2070   */\n      dup5\n        /* \"#utility.yul\":2026:2091   */\n      tag_82\n      jump\t// in\n    tag_112:\n        /* \"#utility.yul\":1888:2098   */\n      swap3\n      swap2\n      pop\n      pop\n      jump\t// out\n        /* \"#utility.yul\":2104:2222   */\n    tag_83:\n        /* \"#utility.yul\":2191:2215   */\n      tag_114\n        /* \"#utility.yul\":2209:2214   */\n      dup2\n        /* \"#utility.yul\":2191:2215   */\n      tag_78\n      jump\t// in\n    tag_114:\n        /* \"#utility.yul\":2186:2189   */\n      dup3\n        /* \"#utility.yul\":2179:2216   */\n      mstore\n        /* \"#utility.yul\":2104:2222   */\n      pop\n      pop\n      jump\t// out\n        /* \"#utility.yul\":2228:2450   */\n    tag_21:\n        /* \"#utility.yul\":2321:2325   */\n      0x00\n        /* \"#utility.yul\":2359:2361   */\n      0x20\n        /* \"#utility.yul\":2348:2357   */\n      dup3\n        /* \"#utility.yul\":2344:2362   */\n      add\n        /* \"#utility.yul\":2336:2362   */\n      swap1\n      pop\n        /* \"#utility.yul\":2372:2443   */\n      tag_116\n        /* \"#utility.yul\":2440:2441   */\n      0x00\n        /* \"#utility.yul\":2429:2438   */\n      dup4\n        /* \"#utility.yul\":2425:2442   */\n      add\n        /* \"#utility.yul\":2416:2422   */\n      dup5\n        /* \"#utility.yul\":2372:2443   */\n      tag_83\n      jump\t// in\n    tag_116:\n        /* \"#utility.yul\":2228:2450   */\n      swap3\n      swap2\n      pop\n      pop\n      jump\t// out\n        /* \"#utility.yul\":2456:3075   */\n    tag_24:\n        /* \"#utility.yul\":2533:2539   */\n      0x00\n        /* \"#utility.yul\":2541:2547   */\n      dup1\n        /* \"#utility.yul\":2549:2555   */\n      0x00\n        /* \"#utility.yul\":2598:2600   */\n      0x60\n        /* \"#utility.yul\":2586:2595   */\n      dup5\n        /* \"#utility.yul\":2577:2584   */\n      dup7\n        /* \"#utility.yul\":2573:2596   */\n      sub\n        /* \"#utility.yul\":2569:2601   */\n      slt\n        /* \"#utility.yul\":2566:2685   */\n      iszero\n      tag_118\n      jumpi\n        /* \"#utility.yul\":2604:2683   */\n      tag_119\n      tag_72\n      jump\t// in\n    tag_119:\n        /* \"#utility.yul\":2566:2685   */\n    tag_118:\n        /* \"#utility.yul\":2724:2725   */\n      0x00\n        /* \"#utility.yul\":2749:2802   */\n      tag_120\n        /* \"#utility.yul\":2794:2801   */\n      dup7\n        /* \"#utility.yul\":2785:2791   */\n      dup3\n        /* \"#utility.yul\":2774:2783   */\n      dup8\n        /* \"#utility.yul\":2770:2792   */\n      add\n        /* \"#utility.yul\":2749:2802   */\n      tag_77\n      jump\t// in\n    tag_120:\n        /* \"#utility.yul\":2739:2802   */\n      swap4\n      pop\n        /* \"#utility.yul\":2695:2812   */\n      pop\n        /* \"#utility.yul\":2851:2853   */\n      0x20\n        /* \"#utility.yul\":2877:2930   */\n      tag_121\n        /* \"#utility.yul\":2922:2929   */\n      dup7\n        /* \"#utility.yul\":2913:2919   */\n      dup3\n        /* \"#utility.yul\":2902:2911   */\n      dup8\n        /* \"#utility.yul\":2898:2920   */\n      add\n        /* \"#utility.yul\":2877:2930   */\n      tag_77\n      jump\t// in\n    tag_121:\n        /* \"#utility.yul\":2867:2930   */\n      swap3\n      pop\n        /* \"#utility.yul\":2822:2940   */\n      pop\n        /* \"#utility.yul\":2979:2981   */\n      0x40\n        /* \"#utility.yul\":3005:3058   */\n      tag_122\n        /* \"#utility.yul\":3050:3057   */\n      dup7\n        /* \"#utility.yul\":3041:3047   */\n      dup3\n        /* \"#utility.yul\":3030:3039   */\n      dup8\n        /* \"#utility.yul\":3026:3048   */\n      add\n        /* \"#utility.yul\":3005:3058   */\n      tag_80\n      jump\t// in\n    tag_122:\n        /* \"#utility.yul\":2995:3058   */\n      swap2\n      pop\n        /* \"#utility.yul\":2950:3068   */\n      pop\n        /* \"#utility.yul\":2456:3075   */\n      swap3\n      pop\n      swap3\n      pop\n      swap3\n      jump\t// out\n        /* \"#utility.yul\":3081:3410   */\n    tag_33:\n        /* \"#utility.yul\":3140:3146   */\n      0x00\n        /* \"#utility.yul\":3189:3191   */\n      0x20\n        /* \"#utility.yul\":3177:3186   */\n      dup3\n        /* \"#utility.yul\":3168:3175   */\n      dup5\n        /* \"#utility.yul\":3164:3187   */\n      sub\n        /* \"#utility.yul\":3160:3192   */\n      slt\n        /* \"#utility.yul\":3157:3276   */\n      iszero\n      tag_124\n      jumpi\n        /* \"#utility.yul\":3195:3274   */\n      tag_125\n      tag_72\n      jump\t// in\n    tag_125:\n        /* \"#utility.yul\":3157:3276   */\n    tag_124:\n        /* \"#utility.yul\":3315:3316   */\n      0x00\n        /* \"#utility.yul\":3340:3393   */\n      tag_126\n        /* \"#utility.yul\":3385:3392   */\n      dup5\n        /* \"#utility.yul\":3376:3382   */\n      dup3\n        /* \"#utility.yul\":3365:3374   */\n      dup6\n        /* \"#utility.yul\":3361:3383   */\n      add\n        /* \"#utility.yul\":3340:3393   */\n      tag_80\n      jump\t// in\n    tag_126:\n        /* \"#utility.yul\":3330:3393   */\n      swap2\n      pop\n        /* \"#utility.yul\":3286:3403   */\n      pop\n        /* \"#utility.yul\":3081:3410   */\n      swap3\n      swap2\n      pop\n      pop\n      jump\t// out\n        /* \"#utility.yul\":3416:3745   */\n    tag_38:\n        /* \"#utility.yul\":3475:3481   */\n      0x00\n        /* \"#utility.yul\":3524:3526   */\n      0x20\n        /* \"#utility.yul\":3512:3521   */\n      dup3\n        /* \"#utility.yul\":3503:3510   */\n      dup5\n        /* \"#utility.yul\":3499:3522   */\n      sub\n        /* \"#utility.yul\":3495:3527   */\n      slt\n        /* \"#utility.yul\":3492:3611   */\n      iszero\n      tag_128\n      jumpi\n        /* \"#utility.yul\":3530:3609   */\n      tag_129\n      tag_72\n      jump\t// in\n    tag_129:\n        /* \"#utility.yul\":3492:3611   */\n    tag_128:\n        /* \"#utility.yul\":3650:3651   */\n      0x00\n        /* \"#utility.yul\":3675:3728   */\n      tag_130\n        /* \"#utility.yul\":3720:3727   */\n      dup5\n        /* \"#utility.yul\":3711:3717   */\n      dup3\n        /* \"#utility.yul\":3700:3709   */\n      dup6\n        /* \"#utility.yul\":3696:3718   */\n      add\n        /* \"#utility.yul\":3675:3728   */\n      tag_77\n      jump\t// in\n    tag_130:\n        /* \"#utility.yul\":3665:3728   */\n      swap2\n      pop\n        /* \"#utility.yul\":3621:3738   */\n      pop\n        /* \"#utility.yul\":3416:3745   */\n      swap3\n      swap2\n      pop\n      pop\n      jump\t// out\n        /* \"#utility.yul\":3751:4225   */\n    tag_47:\n        /* \"#utility.yul\":3819:3825   */\n      0x00\n        /* \"#utility.yul\":3827:3833   */\n      dup1\n        /* \"#utility.yul\":3876:3878   */\n      0x40\n        /* \"#utility.yul\":3864:3873   */\n      dup4\n        /* \"#utility.yul\":3855:3862   */\n      dup6\n        /* \"#utility.yul\":3851:3874   */\n      sub\n        /* \"#utility.yul\":3847:3879   */\n      slt\n        /* \"#utility.yul\":3844:3963   */\n      iszero\n      tag_132\n      jumpi\n        /* \"#utility.yul\":3882:3961   */\n      tag_133\n      tag_72\n      jump\t// in\n    tag_133:\n        /* \"#utility.yul\":3844:3963   */\n    tag_132:\n        /* \"#utility.yul\":4002:4003   */\n      0x00\n        /* \"#utility.yul\":4027:4080   */\n      tag_134\n        /* \"#utility.yul\":4072:4079   */\n      dup6\n        /* \"#utility.yul\":4063:4069   */\n      dup3\n        /* \"#utility.yul\":4052:4061   */\n      dup7\n        /* \"#utility.yul\":4048:4070   */\n      add\n        /* \"#utility.yul\":4027:4080   */\n      tag_77\n      jump\t// in\n    tag_134:\n        /* \"#utility.yul\":4017:4080   */\n      swap3\n      pop\n        /* \"#utility.yul\":3973:4090   */\n      pop\n        /* \"#utility.yul\":4129:4131   */\n      0x20\n        /* \"#utility.yul\":4155:4208   */\n      tag_135\n        /* \"#utility.yul\":4200:4207   */\n      dup6\n        /* \"#utility.yul\":4191:4197   */\n      dup3\n        /* \"#utility.yul\":4180:4189   */\n      dup7\n        /* \"#utility.yul\":4176:4198   */\n      add\n        /* \"#utility.yul\":4155:4208   */\n      tag_77\n      jump\t// in\n    tag_135:\n        /* \"#utility.yul\":4145:4208   */\n      swap2\n      pop\n        /* \"#utility.yul\":4100:4218   */\n      pop\n        /* \"#utility.yul\":3751:4225   */\n      swap3\n      pop\n      swap3\n      swap1\n      pop\n      jump\t// out\n        /* \"#utility.yul\":4231:4411   */\n    tag_84:\n        /* \"#utility.yul\":4279:4356   */\n      0x4e487b7100000000000000000000000000000000000000000000000000000000\n        /* \"#utility.yul\":4276:4277   */\n      0x00\n        /* \"#utility.yul\":4269:4357   */\n      mstore\n        /* \"#utility.yul\":4376:4380   */\n      0x11\n        /* \"#utility.yul\":4373:4374   */\n      0x04\n        /* \"#utility.yul\":4366:4381   */\n      mstore\n        /* \"#utility.yul\":4400:4404   */\n      0x24\n        /* \"#utility.yul\":4397:4398   */\n      0x00\n        /* \"#utility.yul\":4390:4405   */\n      revert\n        /* \"#utility.yul\":4417:4611   */\n    tag_54:\n        /* \"#utility.yul\":4457:4461   */\n      0x00\n        /* \"#utility.yul\":4477:4497   */\n      tag_138\n        /* \"#utility.yul\":4495:4496   */\n      dup3\n        /* \"#utility.yul\":4477:4497   */\n      tag_78\n      jump\t// in\n    tag_138:\n        /* \"#utility.yul\":4472:4497   */\n      swap2\n      pop\n        /* \"#utility.yul\":4511:4531   */\n      tag_139\n        /* \"#utility.yul\":4529:4530   */\n      dup4\n        /* \"#utility.yul\":4511:4531   */\n      tag_78\n      jump\t// in\n    tag_139:\n        /* \"#utility.yul\":4506:4531   */\n      swap3\n      pop\n        /* \"#utility.yul\":4555:4556   */\n      dup3\n        /* \"#utility.yul\":4552:4553   */\n      dup3\n        /* \"#utility.yul\":4548:4557   */\n      sub\n        /* \"#utility.yul\":4540:4557   */\n      swap1\n      pop\n        /* \"#utility.yul\":4579:4580   */\n      dup2\n        /* \"#utility.yul\":4573:4577   */\n      dup2\n        /* \"#utility.yul\":4570:4581   */\n      gt\n        /* \"#utility.yul\":4567:4604   */\n      iszero\n      tag_140\n      jumpi\n        /* \"#utility.yul\":4584:4602   */\n      tag_141\n      tag_84\n      jump\t// in\n    tag_141:\n        /* \"#utility.yul\":4567:4604   */\n    tag_140:\n        /* \"#utility.yul\":4417:4611   */\n      swap3\n      swap2\n      pop\n      pop\n      jump\t// out\n        /* \"#utility.yul\":4617:4808   */\n    tag_57:\n        /* \"#utility.yul\":4657:4660   */\n      0x00\n        /* \"#utility.yul\":4676:4696   */\n      tag_143\n        /* \"#utility.yul\":4694:4695   */\n      dup3\n        /* \"#utility.yul\":4676:4696   */\n      tag_78\n      jump\t// in\n    tag_143:\n        /* \"#utility.yul\":4671:4696   */\n      swap2\n      pop\n        /* \"#utility.yul\":4710:4730   */\n      tag_144\n        /* \"#utility.yul\":4728:4729   */\n      dup4\n        /* \"#utility.yul\":4710:4730   */\n      tag_78\n      jump\t// in\n    tag_144:\n        /* \"#utility.yul\":4705:4730   */\n      swap3\n      pop\n        /* \"#utility.yul\":4753:4754   */\n      dup3\n        /* \"#utility.yul\":4750:4751   */\n      dup3\n        /* \"#utility.yul\":4746:4755   */\n      add\n        /* \"#utility.yul\":4739:4755   */\n      swap1\n      pop\n        /* \"#utility.yul\":4774:4777   */\n      dup1\n        /* \"#utility.yul\":4771:4772   */\n      dup3\n        /* \"#utility.yul\":4768:4778   */\n      gt\n        /* \"#utility.yul\":4765:4801   */\n      iszero\n      tag_145\n      jumpi\n        /* \"#utility.yul\":4781:4799   */\n      tag_146\n      tag_84\n      jump\t// in\n    tag_146:\n        /* \"#utility.yul\":4765:4801   */\n    tag_145:\n        /* \"#utility.yul\":4617:4808   */\n      swap3\n      swap2\n      pop\n      pop\n      jump\t// out\n\n    auxdata: 0xa2646970667358221220ccce0e04e8de1f103ce409a07bc6dd8f0dc8f47da8d5804077d56597ddb6167c64736f6c63430008110033\n}\n",
				"bytecode": {
					"linkReferences": {},
					"object": "608060405234801561001057600080fd5b50610ab0806100206000396000f3fe608060405234801561001057600080fd5b50600436106100885760003560e01c806342966c681161005b57806342966c681461013b57806370a082311461016b578063a9059cbb1461019b578063dd62ed3e146101cb57610088565b8063095ea7b31461008d57806318160ddd146100bd57806323b872dd146100db57806340c10f191461010b575b600080fd5b6100a760048036038101906100a29190610856565b6101fb565b6040516100b491906108b1565b60405180910390f35b6100c56102ed565b6040516100d291906108db565b60405180910390f35b6100f560048036038101906100f091906108f6565b6102f3565b60405161010291906108b1565b60405180910390f35b61012560048036038101906101209190610856565b6104a4565b60405161013291906108b1565b60405180910390f35b61015560048036038101906101509190610949565b610584565b60405161016291906108b1565b60405180910390f35b61018560048036038101906101809190610976565b610663565b60405161019291906108db565b60405180910390f35b6101b560048036038101906101b09190610856565b61067b565b6040516101c291906108b1565b60405180910390f35b6101e560048036038101906101e091906109a3565b610798565b6040516101f291906108db565b60405180910390f35b600081600260003373ffffffffffffffffffffffffffffffffffffffff1673ffffffffffffffffffffffffffffffffffffffff16815260200190815260200160002060008573ffffffffffffffffffffffffffffffffffffffff1673ffffffffffffffffffffffffffffffffffffffff168152602001908152602001600020819055508273ffffffffffffffffffffffffffffffffffffffff163373ffffffffffffffffffffffffffffffffffffffff167f8c5be1e5ebec7d5bd14f71427d1e84f3dd0314c0f7b2291e5b200ac8c7c3b925846040516102db91906108db565b60405180910390a36001905092915050565b60005481565b600081600260008673ffffffffffffffffffffffffffffffffffffffff1673ffffffffffffffffffffffffffffffffffffffff16815260200190815260200160002060003373ffffffffffffffffffffffffffffffffffffffff1673ffffffffffffffffffffffffffffffffffffffff16815260200190815260200160002060008282546103819190610a12565b9250508190555081600160008673ffffffffffffffffffffffffffffffffffffffff1673ffffffffffffffffffffffffffffffffffffffff16815260200190815260200160002060008282546103d79190610a12565b9250508190555081600160008573ffffffffffffffffffffffffffffffffffffffff1673ffffffffffffffffffffffffffffffffffffffff168152602001908152602001600020600082825461042d9190610a46565b925050819055508273ffffffffffffffffffffffffffffffffffffffff168473ffffffffffffffffffffffffffffffffffffffff167fddf252ad1be2c89b69c2b068fc378daa952ba7f163c4a11628f55a4df523b3ef8460405161049191906108db565b60405180910390a3600190509392505050565b6000816000808282546104b79190610a46565b9250508190555081600160008573ffffffffffffffffffffffffffffffffffffffff1673ffffffffffffffffffffffffffffffffffffffff168152602001908152602001600020600082825461050d9190610a46565b925050819055508273ffffffffffffffffffffffffffffffffffffffff16600073ffffffffffffffffffffffffffffffffffffffff167fddf252ad1be2c89b69c2b068fc378daa952ba7f163c4a11628f55a4df523b3ef8460405161057291906108db565b60405180910390a36001905092915050565b6000816000808282546105979190610a12565b9250508190555081600160003373ffffffffffffffffffffffffffffffffffffffff1673ffffffffffffffffffffffffffffffffffffffff16815260200190815260200160002060008282546105ed9190610a12565b92505081905550600073ffffffffffffffffffffffffffffffffffffffff163373ffffffffffffffffffffffffffffffffffffffff167fddf252ad1be2c89b69c2b068fc378daa952ba7f163c4a11628f55a4df523b3ef8460405161065291906108db565b60405180910390a360019050919050565b60016020528060005260406000206000915090505481565b600081600160003373ffffffffffffffffffffffffffffffffffffffff1673ffffffffffffffffffffffffffffffffffffffff16815260200190815260200160002060008282546106cc9190610a12565b9250508190555081600160008573ffffffffffffffffffffffffffffffffffffffff1673ffffffffffffffffffffffffffffffffffffffff16815260200190815260200160002060008282546107229190610a46565b925050819055508273ffffffffffffffffffffffffffffffffffffffff163373ffffffffffffffffffffffffffffffffffffffff167fddf252ad1be2c89b69c2b068fc378daa952ba7f163c4a11628f55a4df523b3ef8460405161078691906108db565b60405180910390a36001905092915050565b6002602052816000526040600020602052806000526040600020600091509150505481565b600080fd5b600073ffffffffffffffffffffffffffffffffffffffff82169050919050565b60006107ed826107c2565b9050919050565b6107fd816107e2565b811461080857600080fd5b50565b60008135905061081a816107f4565b92915050565b6000819050919050565b61083381610820565b811461083e57600080fd5b50565b6000813590506108508161082a565b92915050565b6000806040838503121561086d5761086c6107bd565b5b600061087b8582860161080b565b925050602061088c85828601610841565b9150509250929050565b60008115159050919050565b6108ab81610896565b82525050565b60006020820190506108c660008301846108a2565b92915050565b6108d581610820565b82525050565b60006020820190506108f060008301846108cc565b92915050565b60008060006060848603121561090f5761090e6107bd565b5b600061091d8682870161080b565b935050602061092e8682870161080b565b925050604061093f86828701610841565b9150509250925092565b60006020828403121561095f5761095e6107bd565b5b600061096d84828501610841565b91505092915050565b60006020828403121561098c5761098b6107bd565b5b600061099a8482850161080b565b91505092915050565b600080604083850312156109ba576109b96107bd565b5b60006109c88582860161080b565b92505060206109d98582860161080b565b9150509250929050565b7f4e487b7100000000000000000000000000000000000000000000000000000000600052601160045260246000fd5b6000610a1d82610820565b9150610a2883610820565b9250828203905081811115610a4057610a3f6109e3565b5b92915050565b6000610a5182610820565b9150610a5c83610820565b9250828201905080821115610a7457610a736109e3565b5b9291505056fea2646970667358221220ccce0e04e8de1f103ce409a07bc6dd8f0dc8f47da8d5804077d56597ddb6167c64736f6c63430008110033",
					"opcodes": "PUSH1 0x80 PUSH1 0x40 MSTORE CALLVALUE DUP1 ISZERO PUSH2 0x10 JUMPI PUSH1 0x0 DUP1 REVERT JUMPDEST POP PUSH2 0xAB0 DUP1 PUSH2 0x20 PUSH1 0x0 CODECOPY PUSH1 0x0 RETURN INVALID PUSH1 0x80 PUSH1 0x40 MSTORE CALLVALUE DUP1 ISZERO PUSH2 0x10 JUMPI PUSH1 0x0 DUP1 REVERT JUMPDEST POP PUSH1 0x4 CALLDATASIZE LT PUSH2 0x88 JUMPI PUSH1 0x0 CALLDATALOAD PUSH1 0xE0 SHR DUP1 PUSH4 0x42966C68 GT PUSH2 0x5B JUMPI DUP1 PUSH4 0x42966C68 EQ PUSH2 0x13B JUMPI DUP1 PUSH4 0x70A08231 EQ PUSH2 0x16B JUMPI DUP1 PUSH4 0xA9059CBB EQ PUSH2 0x19B JUMPI DUP1 PUSH4 0xDD62ED3E EQ PUSH2 0x1CB JUMPI PUSH2 0x88 JUMP JUMPDEST DUP1 PUSH4 0x95EA7B3 EQ PUSH2 0x8D JUMPI DUP1 PUSH4 0x18160DDD EQ PUSH2 0xBD JUMPI DUP1 PUSH4 0x23B872DD EQ PUSH2 0xDB JUMPI DUP1 PUSH4 0x40C10F19 EQ PUSH2 0x10B JUMPI JUMPDEST PUSH1 0x0 DUP1 REVERT JUMPDEST PUSH2 0xA7 PUSH1 0x4 DUP1 CALLDATASIZE SUB DUP2 ADD SWAP1 PUSH2 0xA2 SWAP2 SWAP1 PUSH2 0x856 JUMP JUMPDEST PUSH2 0x1FB JUMP JUMPDEST PUSH1 0x40 MLOAD PUSH2 0xB4 SWAP2 SWAP1 PUSH2 0x8B1 JUMP JUMPDEST PUSH1 0x40 MLOAD DUP1 SWAP2 SUB SWAP1 RETURN JUMPDEST PUSH2 0xC5 PUSH2 0x2ED JUMP JUMPDEST PUSH1 0x40 MLOAD PUSH2 0xD2 SWAP2 SWAP1 PUSH2 0x8DB JUMP JUMPDEST PUSH1 0x40 MLOAD DUP1 SWAP2 SUB SWAP1 RETURN JUMPDEST PUSH2 0xF5 PUSH1 0x4 DUP1 CALLDATASIZE SUB DUP2 ADD SWAP1 PUSH2 0xF0 SWAP2 SWAP1 PUSH2 0x8F6 JUMP JUMPDEST PUSH2 0x2F3 JUMP JUMPDEST PUSH1 0x40 MLOAD PUSH2 0x102 SWAP2 SWAP1 PUSH2 0x8B1 JUMP JUMPDEST PUSH1 0x40 MLOAD DUP1 SWAP2 SUB SWAP1 RETURN JUMPDEST PUSH2 0x125 PUSH1 0x4 DUP1 CALLDATASIZE SUB DUP2 ADD SWAP1 PUSH2 0x120 SWAP2 SWAP1 PUSH2 0x856 JUMP JUMPDEST PUSH2 0x4A4 JUMP JUMPDEST PUSH1 0x40 MLOAD PUSH2 0x132 SWAP2 SWAP1 PUSH2 0x8B1 JUMP JUMPDEST PUSH1 0x40 MLOAD DUP1 SWAP2 SUB SWAP1 RETURN JUMPDEST PUSH2 0x155 PUSH1 0x4 DUP1 CALLDATASIZE SUB DUP2 ADD SWAP1 PUSH2 0x150 SWAP2 SWAP1 PUSH2 0x949 JUMP JUMPDEST PUSH2 0x584 JUMP JUMPDEST PUSH1 0x40 MLOAD PUSH2 0x162 SWAP2 SWAP1 PUSH2 0x8B1 JUMP JUMPDEST PUSH1 0x40 MLOAD DUP1 SWAP2 SUB SWAP1 RETURN JUMPDEST PUSH2 0x185 PUSH1 0x4 DUP1 CALLDATASIZE SUB DUP2 ADD SWAP1 PUSH2 0x180 SWAP2 SWAP1 PUSH2 0x976 JUMP JUMPDEST PUSH2 0x663 JUMP JUMPDEST PUSH1 0x40 MLOAD PUSH2 0x192 SWAP2 SWAP1 PUSH2 0x8DB JUMP JUMPDEST PUSH1 0x40 MLOAD DUP1 SWAP2 SUB SWAP1 RETURN JUMPDEST PUSH2 0x1B5 PUSH1 0x4 DUP1 CALLDATASIZE SUB DUP2 ADD SWAP1 PUSH2 0x1B0 SWAP2 SWAP1 PUSH2 0x856 JUMP JUMPDEST PUSH2 0x67B JUMP JUMPDEST PUSH1 0x40 MLOAD PUSH2 0x1C2 SWAP2 SWAP1 PUSH2 0x8B1 JUMP JUMPDEST PUSH1 0x40 MLOAD DUP1 SWAP2 SUB SWAP1 RETURN JUMPDEST PUSH2 0x1E5 PUSH1 0x4 DUP1 CALLDATASIZE SUB DUP2 ADD SWAP1 PUSH2 0x1E0 SWAP2 SWAP1 PUSH2 0x9A3 JUMP JUMPDEST PUSH2 0x798 JUMP JUMPDEST PUSH1 0x40 MLOAD PUSH2 0x1F2 SWAP2 SWAP1 PUSH2 0x8DB JUMP JUMPDEST PUSH1 0x40 MLOAD DUP1 SWAP2 SUB SWAP1 RETURN JUMPDEST PUSH1 0x0 DUP2 PUSH1 0x2 PUSH1 0x0 CALLER PUSH20 0xFFFFFFFFFFFFFFFFFFFFFFFFFFFFFFFFFFFFFFFF AND PUSH20 0xFFFFFFFFFFFFFFFFFFFFFFFFFFFFFFFFFFFFFFFF AND DUP2 MSTORE PUSH1 0x20 ADD SWAP1 DUP2 MSTORE PUSH1 0x20 ADD PUSH1 0x0 KECCAK256 PUSH1 0x0 DUP6 PUSH20 0xFFFFFFFFFFFFFFFFFFFFFFFFFFFFFFFFFFFFFFFF AND PUSH20 0xFFFFFFFFFFFFFFFFFFFFFFFFFFFFFFFFFFFFFFFF AND DUP2 MSTORE PUSH1 0x20 ADD SWAP1 DUP2 MSTORE PUSH1 0x20 ADD PUSH1 0x0 KECCAK256 DUP2 SWAP1 SSTORE POP DUP3 PUSH20 0xFFFFFFFFFFFFFFFFFFFFFFFFFFFFFFFFFFFFFFFF AND CALLER PUSH20 0xFFFFFFFFFFFFFFFFFFFFFFFFFFFFFFFFFFFFFFFF AND PUSH32 0x8C5BE1E5EBEC7D5BD14F71427D1E84F3DD0314C0F7B2291E5B200AC8C7C3B925 DUP5 PUSH1 0x40 MLOAD PUSH2 0x2DB SWAP2 SWAP1 PUSH2 0x8DB JUMP JUMPDEST PUSH1 0x40 MLOAD DUP1 SWAP2 SUB SWAP1 LOG3 PUSH1 0x1 SWAP1 POP SWAP3 SWAP2 POP POP JUMP JUMPDEST PUSH1 0x0 SLOAD DUP2 JUMP JUMPDEST PUSH1 0x0 DUP2 PUSH1 0x2 PUSH1 0x0 DUP7 PUSH20 0xFFFFFFFFFFFFFFFFFFFFFFFFFFFFFFFFFFFFFFFF AND PUSH20 0xFFFFFFFFFFFFFFFFFFFFFFFFFFFFFFFFFFFFFFFF AND DUP2 MSTORE PUSH1 0x20 ADD SWAP1 DUP2 MSTORE PUSH1 0x20 ADD PUSH1 0x0 KECCAK256 PUSH1 0x0 CALLER PUSH20 0xFFFFFFFFFFFFFFFFFFFFFFFFFFFFFFFFFFFFFFFF AND PUSH20 0xFFFFFFFFFFFFFFFFFFFFFFFFFFFFFFFFFFFFFFFF AND DUP2 MSTORE PUSH1 0x20 ADD SWAP1 DUP2 MSTORE PUSH1 0x20 ADD PUSH1 0x0 KECCAK256 PUSH1 0x0 DUP3 DUP3 SLOAD PUSH2 0x381 SWAP2 SWAP1 PUSH2 0xA12 JUMP JUMPDEST SWAP3 POP POP DUP2 SWAP1 SSTORE POP DUP2 PUSH1 0x1 PUSH1 0x0 DUP7 PUSH20 0xFFFFFFFFFFFFFFFFFFFFFFFFFFFFFFFFFFFFFFFF AND PUSH20 0xFFFFFFFFFFFFFFFFFFFFFFFFFFFFFFFFFFFFFFFF AND DUP2 MSTORE PUSH1 0x20 ADD SWAP1 DUP2 MSTORE PUSH1 0x20 ADD PUSH1 0x0 KECCAK256 PUSH1 0x0 DUP3 DUP3 SLOAD PUSH2 0x3D7 SWAP2 SWAP1 PUSH2 0xA12 JUMP JUMPDEST SWAP3 POP POP DUP2 SWAP1 SSTORE POP DUP2 PUSH1 0x1 PUSH1 0x0 DUP6 PUSH20 0xFFFFFFFFFFFFFFFFFFFFFFFFFFFFFFFFFFFFFFFF AND PUSH20 0xFFFFFFFFFFFFFFFFFFFFFFFFFFFFFFFFFFFFFFFF AND DUP2 MSTORE PUSH1 0x20 ADD SWAP1 DUP2 MSTORE PUSH1 0x20 ADD PUSH1 0x0 KECCAK256 PUSH1 0x0 DUP3 DUP3 SLOAD PUSH2 0x42D SWAP2 SWAP1 PUSH2 0xA46 JUMP JUMPDEST SWAP3 POP POP DUP2 SWAP1 SSTORE POP DUP3 PUSH20 0xFFFFFFFFFFFFFFFFFFFFFFFFFFFFFFFFFFFFFFFF AND DUP5 PUSH20 0xFFFFFFFFFFFFFFFFFFFFFFFFFFFFFFFFFFFFFFFF AND PUSH32 0xDDF252AD1BE2C89B69C2B068FC378DAA952BA7F163C4A11628F55A4DF523B3EF DUP5 PUSH1 0x40 MLOAD PUSH2 0x491 SWAP2 SWAP1 PUSH2 0x8DB JUMP JUMPDEST PUSH1 0x40 MLOAD DUP1 SWAP2 SUB SWAP1 LOG3 PUSH1 0x1 SWAP1 POP SWAP4 SWAP3 POP POP POP JUMP JUMPDEST PUSH1 0x0 DUP2 PUSH1 0x0 DUP1 DUP3 DUP3 SLOAD PUSH2 0x4B7 SWAP2 SWAP1 PUSH2 0xA46 JUMP JUMPDEST SWAP3 POP POP DUP2 SWAP1 SSTORE POP DUP2 PUSH1 0x1 PUSH1 0x0 DUP6 PUSH20 0xFFFFFFFFFFFFFFFFFFFFFFFFFFFFFFFFFFFFFFFF AND PUSH20 0xFFFFFFFFFFFFFFFFFFFFFFFFFFFFFFFFFFFFFFFF AND DUP2 MSTORE PUSH1 0x20 ADD SWAP1 DUP2 MSTORE PUSH1 0x20 ADD PUSH1 0x0 KECCAK256 PUSH1 0x0 DUP3 DUP3 SLOAD PUSH2 0x50D SWAP2 SWAP1 PUSH2 0xA46 JUMP JUMPDEST SWAP3 POP POP DUP2 SWAP1 SSTORE POP DUP3 PUSH20 0xFFFFFFFFFFFFFFFFFFFFFFFFFFFFFFFFFFFFFFFF AND PUSH1 0x0 PUSH20 0xFFFFFFFFFFFFFFFFFFFFFFFFFFFFFFFFFFFFFFFF AND PUSH32 0xDDF252AD1BE2C89B69C2B068FC378DAA952BA7F163C4A11628F55A4DF523B3EF DUP5 PUSH1 0x40 MLOAD PUSH2 0x572 SWAP2 SWAP1 PUSH2 0x8DB JUMP JUMPDEST PUSH1 0x40 MLOAD DUP1 SWAP2 SUB SWAP1 LOG3 PUSH1 0x1 SWAP1 POP SWAP3 SWAP2 POP POP JUMP JUMPDEST PUSH1 0x0 DUP2 PUSH1 0x0 DUP1 DUP3 DUP3 SLOAD PUSH2 0x597 SWAP2 SWAP1 PUSH2 0xA12 JUMP JUMPDEST SWAP3 POP POP DUP2 SWAP1 SSTORE POP DUP2 PUSH1 0x1 PUSH1 0x0 CALLER PUSH20 0xFFFFFFFFFFFFFFFFFFFFFFFFFFFFFFFFFFFFFFFF AND PUSH20 0xFFFFFFFFFFFFFFFFFFFFFFFFFFFFFFFFFFFFFFFF AND DUP2 MSTORE PUSH1 0x20 ADD SWAP1 DUP2 MSTORE PUSH1 0x20 ADD PUSH1 0x0 KECCAK256 PUSH1 0x0 DUP3 DUP3 SLOAD PUSH2 0x5ED SWAP2 SWAP1 PUSH2 0xA12 JUMP JUMPDEST SWAP3 POP POP DUP2 SWAP1 SSTORE POP PUSH1 0x0 PUSH20 0xFFFFFFFFFFFFFFFFFFFFFFFFFFFFFFFFFFFFFFFF AND CALLER PUSH20 0xFFFFFFFFFFFFFFFFFFFFFFFFFFFFFFFFFFFFFFFF AND PUSH32 0xDDF252AD1BE2C89B69C2B068FC378DAA952BA7F163C4A11628F55A4DF523B3EF DUP5 PUSH1 0x40 MLOAD PUSH2 0x652 SWAP2 SWAP1 PUSH2 0x8DB JUMP JUMPDEST PUSH1 0x40 MLOAD DUP1 SWAP2 SUB SWAP1 LOG3 PUSH1 0x1 SWAP1 POP SWAP2 SWAP1 POP JUMP JUMPDEST PUSH1 0x1 PUSH1 0x20 MSTORE DUP1 PUSH1 0x0 MSTORE PUSH1 0x40 PUSH1 0x0 KECCAK256 PUSH1 0x0 SWAP2 POP SWAP1 POP SLOAD DUP2 JUMP JUMPDEST PUSH1 0x0 DUP2 PUSH1 0x1 PUSH1 0x0 CALLER PUSH20 0xFFFFFFFFFFFFFFFFFFFFFFFFFFFFFFFFFFFFFFFF AND PUSH20 0xFFFFFFFFFFFFFFFFFFFFFFFFFFFFFFFFFFFFFFFF AND DUP2 MSTORE PUSH1 0x20 ADD SWAP1 DUP2 MSTORE PUSH1 0x20 ADD PUSH1 0x0 KECCAK256 PUSH1 0x0 DUP3 DUP3 SLOAD PUSH2 0x6CC SWAP2 SWAP1 PUSH2 0xA12 JUMP JUMPDEST SWAP3 POP POP DUP2 SWAP1 SSTORE POP DUP2 PUSH1 0x1 PUSH1 0x0 DUP6 PUSH20 0xFFFFFFFFFFFFFFFFFFFFFFFFFFFFFFFFFFFFFFFF AND PUSH20 0xFFFFFFFFFFFFFFFFFFFFFFFFFFFFFFFFFFFFFFFF AND DUP2 MSTORE PUSH1 0x20 ADD SWAP1 DUP2 MSTORE PUSH1 0x20 ADD PUSH1 0x0 KECCAK256 PUSH1 0x0 DUP3 DUP3 SLOAD PUSH2 0x722 SWAP2 SWAP1 PUSH2 0xA46 JUMP JUMPDEST SWAP3 POP POP DUP2 SWAP1 SSTORE POP DUP3 PUSH20 0xFFFFFFFFFFFFFFFFFFFFFFFFFFFFFFFFFFFFFFFF AND CALLER PUSH20 0xFFFFFFFFFFFFFFFFFFFFFFFFFFFFFFFFFFFFFFFF AND PUSH32 0xDDF252AD1BE2C89B69C2B068FC378DAA952BA7F163C4A11628F55A4DF523B3EF DUP5 PUSH1 0x40 MLOAD PUSH2 0x786 SWAP2 SWAP1 PUSH2 0x8DB JUMP JUMPDEST PUSH1 0x40 MLOAD DUP1 SWAP2 SUB SWAP1 LOG3 PUSH1 0x1 SWAP1 POP SWAP3 SWAP2 POP POP JUMP JUMPDEST PUSH1 0x2 PUSH1 0x20 MSTORE DUP2 PUSH1 0x0 MSTORE PUSH1 0x40 PUSH1 0x0 KECCAK256 PUSH1 0x20 MSTORE DUP1 PUSH1 0x0 MSTORE PUSH1 0x40 PUSH1 0x0 KECCAK256 PUSH1 0x0 SWAP2 POP SWAP2 POP POP SLOAD DUP2 JUMP JUMPDEST PUSH1 0x0 DUP1 REVERT JUMPDEST PUSH1 0x0 PUSH20 0xFFFFFFFFFFFFFFFFFFFFFFFFFFFFFFFFFFFFFFFF DUP3 AND SWAP1 POP SWAP2 SWAP1 POP JUMP JUMPDEST PUSH1 0x0 PUSH2 0x7ED DUP3 PUSH2 0x7C2 JUMP JUMPDEST SWAP1 POP SWAP2 SWAP1 POP JUMP JUMPDEST PUSH2 0x7FD DUP2 PUSH2 0x7E2 JUMP JUMPDEST DUP2 EQ PUSH2 0x808 JUMPI PUSH1 0x0 DUP1 REVERT JUMPDEST POP JUMP JUMPDEST PUSH1 0x0 DUP2 CALLDATALOAD SWAP1 POP PUSH2 0x81A DUP2 PUSH2 0x7F4 JUMP JUMPDEST SWAP3 SWAP2 POP POP JUMP JUMPDEST PUSH1 0x0 DUP2 SWAP1 POP SWAP2 SWAP1 POP JUMP JUMPDEST PUSH2 0x833 DUP2 PUSH2 0x820 JUMP JUMPDEST DUP2 EQ PUSH2 0x83E JUMPI PUSH1 0x0 DUP1 REVERT JUMPDEST POP JUMP JUMPDEST PUSH1 0x0 DUP2 CALLDATALOAD SWAP1 POP PUSH2 0x850 DUP2 PUSH2 0x82A JUMP JUMPDEST SWAP3 SWAP2 POP POP JUMP JUMPDEST PUSH1 0x0 DUP1 PUSH1 0x40 DUP4 DUP6 SUB SLT ISZERO PUSH2 0x86D JUMPI PUSH2 0x86C PUSH2 0x7BD JUMP JUMPDEST JUMPDEST PUSH1 0x0 PUSH2 0x87B DUP6 DUP3 DUP7 ADD PUSH2 0x80B JUMP JUMPDEST SWAP3 POP POP PUSH1 0x20 PUSH2 0x88C DUP6 DUP3 DUP7 ADD PUSH2 0x841 JUMP JUMPDEST SWAP2 POP POP SWAP3 POP SWAP3 SWAP1 POP JUMP JUMPDEST PUSH1 0x0 DUP2 ISZERO ISZERO SWAP1 POP SWAP2 SWAP1 POP JUMP JUMPDEST PUSH2 0x8AB DUP2 PUSH2 0x896 JUMP JUMPDEST DUP3 MSTORE POP POP JUMP JUMPDEST PUSH1 0x0 PUSH1 0x20 DUP3 ADD SWAP1 POP PUSH2 0x8C6 PUSH1 0x0 DUP4 ADD DUP5 PUSH2 0x8A2 JUMP JUMPDEST SWAP3 SWAP2 POP POP JUMP JUMPDEST PUSH2 0x8D5 DUP2 PUSH2 0x820 JUMP JUMPDEST DUP3 MSTORE POP POP JUMP JUMPDEST PUSH1 0x0 PUSH1 0x20 DUP3 ADD SWAP1 POP PUSH2 0x8F0 PUSH1 0x0 DUP4 ADD DUP5 PUSH2 0x8CC JUMP JUMPDEST SWAP3 SWAP2 POP POP JUMP JUMPDEST PUSH1 0x0 DUP1 PUSH1 0x0 PUSH1 0x60 DUP5 DUP7 SUB SLT ISZERO PUSH2 0x90F JUMPI PUSH2 0x90E PUSH2 0x7BD JUMP JUMPDEST JUMPDEST PUSH1 0x0 PUSH2 0x91D DUP7 DUP3 DUP8 ADD PUSH2 0x80B JUMP JUMPDEST SWAP4 POP POP PUSH1 0x20 PUSH2 0x92E DUP7 DUP3 DUP8 ADD PUSH2 0x80B JUMP JUMPDEST SWAP3 POP POP PUSH1 0x40 PUSH2 0x93F DUP7 DUP3 DUP8 ADD PUSH2 0x841 JUMP JUMPDEST SWAP2 POP POP SWAP3 POP SWAP3 POP SWAP3 JUMP JUMPDEST PUSH1 0x0 PUSH1 0x20 DUP3 DUP5 SUB SLT ISZERO PUSH2 0x95F JUMPI PUSH2 0x95E PUSH2 0x7BD JUMP JUMPDEST JUMPDEST PUSH1 0x0 PUSH2 0x96D DUP5 DUP3 DUP6 ADD PUSH2 0x841 JUMP JUMPDEST SWAP2 POP POP SWAP3 SWAP2 POP POP JUMP JUMPDEST PUSH1 0x0 PUSH1 0x20 DUP3 DUP5 SUB SLT ISZERO PUSH2 0x98C JUMPI PUSH2 0x98B PUSH2 0x7BD JUMP JUMPDEST JUMPDEST PUSH1 0x0 PUSH2 0x99A DUP5 DUP3 DUP6 ADD PUSH2 0x80B JUMP JUMPDEST SWAP2 POP POP SWAP3 SWAP2 POP POP JUMP JUMPDEST PUSH1 0x0 DUP1 PUSH1 0x40 DUP4 DUP6 SUB SLT ISZERO PUSH2 0x9BA JUMPI PUSH2 0x9B9 PUSH2 0x7BD JUMP JUMPDEST JUMPDEST PUSH1 0x0 PUSH2 0x9C8 DUP6 DUP3 DUP7 ADD PUSH2 0x80B JUMP JUMPDEST SWAP3 POP POP PUSH1 0x20 PUSH2 0x9D9 DUP6 DUP3 DUP7 ADD PUSH2 0x80B JUMP JUMPDEST SWAP2 POP POP SWAP3 POP SWAP3 SWAP1 POP JUMP JUMPDEST PUSH32 0x4E487B7100000000000000000000000000000000000000000000000000000000 PUSH1 0x0 MSTORE PUSH1 0x11 PUSH1 0x4 MSTORE PUSH1 0x24 PUSH1 0x0 REVERT JUMPDEST PUSH1 0x0 PUSH2 0xA1D DUP3 PUSH2 0x820 JUMP JUMPDEST SWAP2 POP PUSH2 0xA28 DUP4 PUSH2 0x820 JUMP JUMPDEST SWAP3 POP DUP3 DUP3 SUB SWAP1 POP DUP2 DUP2 GT ISZERO PUSH2 0xA40 JUMPI PUSH2 0xA3F PUSH2 0x9E3 JUMP JUMPDEST JUMPDEST SWAP3 SWAP2 POP POP JUMP JUMPDEST PUSH1 0x0 PUSH2 0xA51 DUP3 PUSH2 0x820 JUMP JUMPDEST SWAP2 POP PUSH2 0xA5C DUP4 PUSH2 0x820 JUMP JUMPDEST SWAP3 POP DUP3 DUP3 ADD SWAP1 POP DUP1 DUP3 GT ISZERO PUSH2 0xA74 JUMPI PUSH2 0xA73 PUSH2 0x9E3 JUMP JUMPDEST JUMPDEST SWAP3 SWAP2 POP POP JUMP INVALID LOG2 PUSH5 0x6970667358 0x22 SLT KECCAK256 0xCC 0xCE 0xE DIV 0xE8 0xDE 0x1F LT EXTCODECOPY 0xE4 MULMOD LOG0 PUSH28 0xC6DD8F0DC8F47DA8D5804077D56597DDB6167C64736F6C6343000811 STOP CALLER "
				},
				"gasEstimates": {
					"creation": {
						"codeDepositCost": "547200",
						"executionCost": "581",
						"totalCost": "547781"
					},
					"external": {
						"allowance(address,address)": "infinite",
						"approve(address,uint256)": "infinite",
						"balanceOf(address)": "2836",
						"burn(uint256)": "infinite",
						"mint(address,uint256)": "infinite",
						"totalSupply()": "2452",
						"transfer(address,uint256)": "infinite",
						"transferFrom(address,address,uint256)": "infinite"
					}
				},
				"methodIdentifiers": {
					"allowance(address,address)": "dd62ed3e",
					"approve(address,uint256)": "095ea7b3",
					"balanceOf(address)": "70a08231",
					"burn(uint256)": "42966c68",
					"mint(address,uint256)": "40c10f19",
					"totalSupply()": "18160ddd",
					"transfer(address,uint256)": "a9059cbb",
					"transferFrom(address,address,uint256)": "23b872dd"
				}
			},
			"storageLayout": {
				"storage": [
					{
						"astId": 6,
						"contract": "contracts/ERC20.sol:ERC20",
						"label": "totalSupply",
						"offset": 0,
						"slot": "0",
						"type": "t_uint256"
					},
					{
						"astId": 10,
						"contract": "contracts/ERC20.sol:ERC20",
						"label": "balanceOf",
						"offset": 0,
						"slot": "1",
						"type": "t_mapping(t_address,t_uint256)"
					},
					{
						"astId": 16,
						"contract": "contracts/ERC20.sol:ERC20",
						"label": "allowance",
						"offset": 0,
						"slot": "2",
						"type": "t_mapping(t_address,t_mapping(t_address,t_uint256))"
					}
				],
				"types": {
					"t_address": {
						"encoding": "inplace",
						"label": "address",
						"numberOfBytes": "20"
					},
					"t_mapping(t_address,t_mapping(t_address,t_uint256))": {
						"encoding": "mapping",
						"key": "t_address",
						"label": "mapping(address => mapping(address => uint256))",
						"numberOfBytes": "32",
						"value": "t_mapping(t_address,t_uint256)"
					},
					"t_mapping(t_address,t_uint256)": {
						"encoding": "mapping",
						"key": "t_address",
						"label": "mapping(address => uint256)",
						"numberOfBytes": "32",
						"value": "t_uint256"
					},
					"t_uint256": {
						"encoding": "inplace",
						"label": "uint256",
						"numberOfBytes": "32"
					}
				}
			},
			"userdoc": {
				"kind": "user",
				"methods": {},
				"version": 1
			}
		}
	}
}